:020000040800F2
:100000009022002021020008471000083510000847
:10001000451000086B0400085112000800000000A1
:10002000000000000000000000000000890100083E
:10003000B504000800000000CD0100084D100008C4
:100040003B0200083B0200083B0200083B0200089C
:100050003B0200083B0200083B0200083B0200088C
:100060003B0200083B0200083B0200083B0200087C
:100070006D04000879040008850400089104000854
:100080009D040008A90400083B0200083B02000888
:100090003B0200083B0200083B0200083B0200084C
:1000A0003B0200083B0200083B0200083B0200083C
:1000B0003B0200083B0200083B0200083B0200082C
:1000C0003B0200083B0200083B0200083B0200081C
:1000D0003B0200082D1200083912000845120008E2
:1000E0003B0200083B0200083B02000800F002F857
:1000F00000F03AF80AA090E8000C82448344AAF188
:100100000107DA4501D100F02FF8AFF2090EBAE885
:100110000F0013F0010F18BFFB1A43F0010318473B
:10012000C8290000E8290000103A24BF78C878C127
:10013000FAD8520724BF30C830C144BF04680C60ED
:10014000704700000023002400250026103A28BF35
:1001500078C1FBD8520728BF30C148BF0B60704739
:100160001FB51FBD10B510BD00F045F91146FFF7D2
:10017000F7FF01F003F900F063F903B4FFF7F2FFB2
:1001800003BC00F06BF90000224B19680868B0E866
:10019000F00F80F30988BFF36F8F4FF0000080F3FA
:1001A00011884EF00D0E70470000000006480068F0
:1001B000006880F3088862B661B6BFF34F8FBFF363
:1001C0006F8F00DF00BF00BF08ED00E0EFF3098094
:1001D000BFF36F8F0F4B1A6820E9F00F106008B55E
:1001E0004FF0500080F31188BFF34F8FBFF36F8F34
:1001F00001F06CFF4FF0000080F31188BDE808406B
:1002000019680868B0E8F00F80F30988BFF36F8FB2
:10021000704700BF14000020EFF305807047000016
:100220000948804709480047FEE7FEE7FEE7FEE78A
:10023000FEE7FEE7FEE7FEE7FEE7FEE704480549C6
:10024000054A064B70470000C1100008ED00000889
:10025000901C002090220020901E0020901E002064
:10026000032A40F2308010F0030C00F0158011F8E2
:10027000013BBCF1020F624498BF11F801CB00F8BA
:10028000013B38BF11F8013BA2F1040298BF00F80E
:1002900001CB38BF00F8013B11F0030300F0578099
:1002A000083AC0F0088051F8043B083A51F804CBF2
:1002B000A0E80810F5E7121D5CBF51F8043B40F8B8
:1002C000043BAFF30080D20724BF11F8013B11F8C3
:1002D00001CB48BF11F8012B24BF00F8013B00F807
:1002E00001CB48BF00F8012B704702F0FF0343EA3F
:1002F000032242EA024200F05EB84FF0000200B56D
:10030000134694469646203922BFA0E80C50A0E838
:100310000C50B1F12001BFF4F7AF090728BFA0E8E6
:100320000C5048BF0CC05DF804EB890028BF40F8B2
:10033000042B08BF704748BF20F8022B11F0804FF4
:1003400018BF00F8012B704770477047704710B511
:10035000203AC0F00B80B1E81850203AA0E81850BD
:10036000B1E81850A0E81850BFF4F5AF5FEA027C7E
:1003700024BFB1E81850A0E8185044BF18C918C0ED
:10038000BDE810405FEA827C24BF51F8043B40F88E
:10039000043B08BF7047D20728BF31F8023B48BF73
:1003A00011F8012B28BF20F8023B48BF00F8012BB1
:1003B00070474FF000020429C0F0128010F0030CC7
:1003C0003FF49DAFCCF1040CBCF1020F18BF00F854
:1003D000012BA8BF20F8022BA1EB0C01FFF78FBF68
:1003E0005FEAC17C24BF00F8012B00F8012B48BF55
:1003F00000F8012B7047754600F02CF8AE4605005A
:100400006946534620F00700854618B020B5FFF72F
:1004100015FFBDE820404FF000064FF000074FF0F9
:1004200000084FF0000B21F00701AC46ACE8C00912
:10043000ACE8C009ACE8C009ACE8C0098D4670471B
:1004400010B50446AFF300802046BDE81040FFF72A
:1004500094BE000000487047301C0020014918205D
:10046000ABBEFEE7260002007047FEE7014800F041
:10047000A9B80000EC1B0020014800F0A3B8000060
:10048000A81B0020014800F09DB80000DC1A0020E5
:10049000014800F097B80000981A0020014800F0C9
:1004A00091B80000201B0020014800F08BB800002C
:1004B000641B0020704772B6FEE7000030B585B0BF
:1004C000002418480094019402940394816941F037
:1004D00004018161816901F004010491816941F0A5
:1004E000080181618069104D00F00800049000222D
:1004F0003021284600F007FA0820CDE900046946BB
:100500002846029400F008F9302000900120CDE93F
:100510000104022003906946284600F0FDF805B06A
:1005200030BD000000100240000C014010B590F8F2
:1005300021100024022903D00421816301243DE01D
:1005400001680A6822F00E020A6001680A6822F057
:1005500001020A601A4A0168914201D1012121E099
:10056000174A1432914201D110211BE0144A28325B
:10057000914201D1891515E0114A3C32914201D1D5
:1005800089140FE00E4A5032914202D14FF480316B
:1005900008E00B4A6432914202D14FF4801101E02D
:1005A0004FF08071064A083A5160012180F821100D
:1005B000002180F82010416B01B18847204610BD12
:1005C000080002402DE9F05FC16B0C6801680B6800
:1005D000D0F840C0042202FA0CF2494DDFF824A101
:1005E000494E4A4FDFF828B1DFF828E122422CD0EB
:1005F0005A072AD50A68920603D40A6822F0040230
:100600000A600168A94201D1042219E0514501D1D3
:10061000402215E0B14202D14FF4806210E0B942AD
:1006200002D14FF480420BE0594502D14FF48022B1
:1006300006E0714502D14FF4800201E04FF0806284
:100640002F4908394A60C16A3BE04FF0020808FAB6
:100650000CF818EA040F4FF000094FF0010235D0F2
:100660005FEA837832D50B689B0605D40B6823F0CC
:100670000A030B6080F821200168A94201D10222FF
:1006800019E0514501D1202215E0B14202D14FF4C9
:10069000007210E0B94202D14FF400520BE059450C
:1006A00002D14FF4003206E0714502D14FF400123E
:1006B00001E04FF00072124908394A6080F820903A
:1006C000816A00291AD0BDE8F05F0847082505FABD
:1006D0000CF5254212D01B0710D50B6823F00E0332
:1006E0000B6090F84010C36B02FA01F1596082630D
:1006F00080F8212080F82090016BE2E7BDE8F09FB0
:10070000080002401C000240300002404400024049
:10071000580002406C0002402DE9F84FDFF8B89114
:10072000002409F1040A0AF1040B23460F270BF1F8
:10073000040EC9E00125A5402A40AA427DD1674E9A
:10074000D1F804C0ACEB0608B44532D014DCBCF1DF
:10075000030F3AD009DCBCF1000F2AD0BCF1010F25
:100760001CD0BCF1020F31D11DE0BCF1110F17D02C
:10077000BCF1120F2AD119E0B8F5881F19D006DC98
:10078000B8F5803F15D0B8F5801F1FD111E0B8F53E
:10079000001F0ED0B8F5041F18D10AE0CB6815E091
:1007A000CB681B1D12E0CB6808330FE0CB680C331D
:1007B0000CE08B682BB1012B4FF0080303D045618F
:1007C00004E0042302E0056100E00023FF2A01D8D1
:1007D000064601E000F104064FEA840501D9A5F1BF
:1007E0002005D6F8008007FA05FC28EA0C0803FA71
:1007F00005F548EA0508C6F800804D68ED0062D5A9
:10080000374DAE6946F00106AE61AD6924F00306CE
:1008100005F001050095334D06EB050CDCF808509A
:10082000A607360F07FA06F825EA0805DFF8B880AC
:10083000404503D14FF0000817E044E0DFF8AC80FA
:10084000404502D14FF001080FE0DFF8A480404599
:1008500002D14FF0020808E0DFF89880404502D14D
:100860004FF0030801E04FF0040808FA06F848EAE0
:100870000508CCF808804D68D9F80060ED034D46B6
:1008800001D5164300E096432E604D68DAF800600B
:10089000AD03554601D5164300E096432E604D68E2
:1008A000DBF80060ED025D4601D5164300E096439B
:1008B0002E604D68DEF80060AD02754601D5164326
:1008C00000E096432E60641C0D682A46E5407FF4E4
:1008D00031AFBDE8F88F00000004014000001110A6
:1008E000001002400000014000080140000C0140DF
:1008F0000010014000140140C2680A4201D0416169
:100900007047016170470AB1016170470904FBE754
:100910000148806870470000040000200248816898
:10092000027811448160704704000020074810B528
:10093000016841F010010160032000F06DF80F2004
:1009400000F006F800F024F8002010BD002002405E
:1009500070B50D4D04464FF47A712878B1FBF0F074
:100960000A490968B1FBF0F000F0C4FA48B9102C4C
:1009700007D200222146501E00F02EF800206C60A5
:1009800070BD012070BD0000040000201000002098
:100990000F4808B5816941F001018161816901F069
:1009A00001010091C16941F08051C161C06900221B
:1009B00000F0805000900F21901E00F00DF80548C7
:1009C000416821F0E06141F00071416008BD000024
:1009D0000010024000000140F0B40E4B1B680C46B2
:1009E000C3F30223C3F10705042D00D90425191D03
:1009F000072901D2002300E0DB1E012606FA05F1DB
:100A0000491E214099409E40761E16403143F0BC5D
:100A100000F03CBC0CED00E0064900F0070208685D
:100A20004FF6FF03184040EA0220034A10430860D3
:100A3000704700000CED00E00000FA052DE9F047DA
:100A40000F46050061D0434E306800F00700B84201
:100A500009D2306820F0070038433060306800F079
:100A60000700B84251D128683B4C810712D5400796
:100A700003D5606840F4E06060602878000703D523
:100A8000606840F4605060606068A96820F0F00021
:100A9000084360602878C00728D06868012810D013
:100AA0002168022810D0890700292EDA616821F018
:100AB000030101436160FFF72BFF804641F2883953
:100AC0000DE021688903EFE78901EDE7FFF720FFDB
:100AD000A0EB0801494502D90320BDE8F087606812
:100AE000696800F00C00B0EB810FEFD1306800F0C6
:100AF0000700B8420BD9306820F007003843306057
:100B0000306800F00700B84201D00120E5E72878FE
:100B1000400705D56068E96820F4E060084360603C
:100B20002878000706D56068296920F4605040EAFB
:100B3000C100606000F018F86168084AC1F3031151
:100B4000515CC8400649086006480068FFF700FF8E
:100B50000020C2E70020024000100240D82A00080E
:100B6000100000200800002012A185B00FC98DE8F8
:100B70000F0014A0144A006804905168134801F053
:100B80000C03042B10D0082B0ED1C1F38343C903EF
:100B90001DF803000AD5516804AAC1F34041515C15
:100BA0000A4A5043B0FBF1F005B07047084948438A
:100BB000FAE7000002030405060708090A0B0C0DFA
:100BC0000E0F1010010200000010024000127A0007
:100BD00000093D002DE9F84F040070D02078C04D89
:100BE000C00749D06868C0F38100012807D0686851
:100BF000C0F38100022809D16868C00306D52868BF
:100C0000800339D560680028E7D035E06068B0F52A
:100C1000803F0BD010B1B0F5A02F11D0286820F480
:100C200080302860286820F4802002E0286840F4A2
:100C300080302860606890B1FFF76AFE06460AE0DF
:100C4000286840F480202860F0E700BFFFF760FECE
:100C5000801B642873D828688003F7D50CE0FFF761
:100C600057FE064605E000BFFFF752FE801B6428D2
:100C7000F0D828688003F7D420789A4E80074FF088
:100C800001094FF0000839D5686810F00C0F07D043
:100C90006868C0F38100022809D16868C00306D4DF
:100CA0002868800714D52069012808D110E0206940
:100CB000B0B1C6F80090FFF72BFE074605E00AE149
:100CC000FFF726FEC01B0228C4D828688007F7D586
:100CD0002868616920F0F80040EAC10028600DE052
:100CE000C6F80080FFF714FE074604E0FFF710FE89
:100CF000C01B022823D828688007F7D42078000773
:100D00002CD57948A169D9B1C0F80090FFF700FE51
:100D1000074604E0FFF7FCFDC01B02280FD8686AF5
:100D20008007F7D571484FF4FA510068B0FBF1F035
:100D3000009000BF0098411E0091FAD20EE080E0C2
:100D4000C0F80080FFF7E4FD074604E0FFF7E0FD90
:100D5000C01B022875D8686A8007F7D4207840073E
:100D600060D5E8690027C00008D4E86940F08050E9
:100D7000E861E869012700F0805000905C48016854
:100D8000C90513D40168834641F480710160FFF7FF
:100D9000BFFD824606E000BFFFF7BAFDA0EB0A00E8
:100DA00064284ED8DBF80000C005F5D5E0680128BE
:100DB0000AD008B1052813D0286A20F00100286263
:100DC000286A20F0040002E0286A40F0010028624E
:100DD000E06841F2883B98B1FFF79AFD82460BE04C
:100DE000286A40F004002862EEE700BFFFF790FD9C
:100DF000A0EB0A0159455AD8286A8007F6D50CE0BD
:100E0000FFF786FD824605E0FFF782FDA0EB0A01B1
:100E100059454CD8286A8007F6D41FB1E86920F0FC
:100E20008050E861E06988B36968C1F381010229F3
:100E300044D00228C6F8608004D0FFF769FD04465C
:100E400038E034E0FFF764FD074604E0FFF760FD9B
:100E5000C01B02282BD828688001F7D4206AB0F57F
:100E6000803F05D16868A16820F4003008436860BD
:100E7000D4E908010843696821F4741108436860E3
:100E8000C6F86090FFF744FD044606E025E000BF89
:100E9000FFF73EFD001B022809D828688001F7D51E
:100EA0001BE000BFFFF734FD001B022802D903201E
:100EB000BDE8F88F28688001F4D40EE00128F7D04F
:100EC0006868226A00F48031914204D1616A00F4BA
:100ED0007010884201D00120EAE70020E8E7000016
:100EE00000100240000042428004424210000020F4
:100EF0000070004010B5401EB0F1807F01D301208A
:100F000010BD4FF0E02460610F21601700F0BEF9C2
:100F10000020A06107202061002010BD7047000064
:100F200070B5026804461068D168536910F00F0F5D
:100F300050D003F0010501F4907635435DD0C2072F
:100F400005D0CA0503D5E26B42F00102E263420715
:100F500005D5DA0703D0E26B42F00202E2638207B2
:100F600005D5DA0703D0E26B42F00402E263020720
:100F700005D5DA0703D0E26B42F00802E263E26BC8
:100F8000002A33D0800604D5880602D5204600F01A
:100F9000D1F820684069E16BC0F38010090700D4E4
:100FA00028B3204600F0B8F82068416949061AD5F0
:100FB000416921F040014161606BA0B11B4941636F
:100FC000606BFFF7B3FA002810D0606B416BBDE88F
:100FD00070400847830610D58B060ED52046BDE825
:100FE000704000F0A7B82046FFF798FF70BD20467C
:100FF000FFF794FF0020E06370BD030606D50B06E3
:1010000004D52046BDE8704000F0DFB84006F3D5B7
:101010004806F1D5D168204621F04001D160202159
:1010200084F8391000F005F870BD000009110008BF
:1010300070477047FEE710B500F016F8BDE81040A5
:10104000FFF73CBAFEE7FEE700F030B910B500F05C
:10105000F7FDFFF763FC01F089FB012803D0BDE831
:10106000104001F0B9B810BD30B58FB028216846E6
:10107000FFF743F914210AA8FFF73FF902250120E1
:10108000049000951020059000244FF4C010CDE985
:10109000084007956846FFF79DFD08B1FFF70BFA7A
:1010A0000F200A90CDE90B540D9401210AA80E944B
:1010B000FFF7C4FC002801D0FFF7FDF90FB030BDE9
:1010C0000D48016841F00101016041680B4A11407F
:1010D000416001680A4A11400160016821F48021E1
:1010E0000160416821F4FE0141604FF41F018160FD
:1010F0000449C00308607047001002400000FFF878
:10110000FFFFF6FE08ED00E010B5406A0021C18542
:10111000C184FFF703FF10BD0168CA6822F4907212
:10112000CA6001684A6922F001024A61202180F800
:101130003A10704710B590F83A10222901D00220D9
:1011400010BD8168B1F5805F11D001690029016887
:101150001FD0496801F07F03816A4A1C82620B70CC
:10116000C18D491E0904090CC18518D02BE0026904
:10117000816A002A0268526805D0D2B20A80816A68
:10118000491C8162ECE7C2F308020A80816A891C6B
:10119000F7E74A68816A4B1C83620A70E0E70168DE
:1011A000CA6822F02002CA600168CA6822F480720C
:1011B000CA6001684A6922F001024A61202180F870
:1011C0003A10FFF735FF002010BD90F839102129A3
:1011D00001D0022070478168B1F5805F016A0BD0B1
:1011E0004A1C0262026809785160C18C491E0904D8
:1011F000090CC1840ED017E009880268C1F3080108
:10120000516001690029016A02D0491C0162ECE7C2
:10121000891CFBE70168CA6822F08002CA60006886
:10122000C16841F04001C160002070470148FFF7EC
:1012300077BE0000D81900200148FFF771BE0000FA
:10124000181A00200148FFF76BBE0000581A002052
:10125000FEE70000094D0A4C4FF4FA7610212846AB
:10126000FFF74AFB304600F0B1F820212846FFF78F
:1012700043FB2068401C2060F0E70000000C0140A8
:1012800000000020012000F0A1F8FBE70907090E8B
:10129000002804DB00F1E02080F80014704700F023
:1012A0000F0000F1E02080F8141D7047314B10B59D
:1012B00000202F495FEA135251F820401C4041F8AA
:1012C000204011F8204024F0020401F8204011F8D9
:1012D000204024F0010401F8204051F820409443BC
:1012E00041F82040401C80B20A28E5D32049002064
:1012F00011F1280111F8203023F0020301F8203009
:1013000011F8203023F0010301F8203051F820308B
:10131000934341F82030401C80B20A28EAD3144994
:101320000020154A503141F6F87300BF11F82040F3
:1013300024F0040401F8204051F82040144041F802
:10134000204011F8204024F0010401F8204011F859
:10135000204024F0020401F8204051F820409C4332
:1013600041F82040401C80B20A28DFD310BD0000A5
:1013700060190020FF0FC0FFFF1F80FF1CB5FFF7A3
:10138000D5FAFFF758FEFFF75FFE002501242B4634
:10139000642208A10948CDE9004501F08FF9002336
:1013A000642207A10848CDE9004501F087F900F063
:1013B00041FEFEE77461736B3100000055120008B6
:1013C0007461736B320000008512000810B5EFF3F2
:1013D000058149B9EFF3108131B90849096802293B
:1013E00005D1EFF3118111B16FF0050403E0002482
:1013F00008B100F0B7FD204610BD000064000020D9
:101400002DE9F041134C0F46054666692068001D22
:1014100000F078FC681C07D137B12168BDE8F041C5
:101420000D48091D00F0BEBC20683544B54245603A
:10143000216805D2A068BDE8F041091D00F09ABC02
:101440006068091D00F096FC206B854200D2256380
:10145000BDE8F081140000207C0500202DE9F0415A
:10146000054600F0ABFC2D4C2069401C2061206833
:101470002B4F10B1E06930B32BE0256020690128C3
:1014800027D1002606EB860007EB800000F064FC05
:10149000761C382EF6D3234800F05EFC2148143029
:1014A00000F05AFC1F48283000F056FC1D483C3024
:1014B00000F052FC1B48503000F04EFC19486060B0
:1014C0001430A06005E02068E96AC06A884200D84C
:1014D0002560E06A401CE0626864E86AA1698842AD
:1014E00000D9A06100EB800007EB8000291D00F00F
:1014F00059FC00F083FCE06900280CD02068E96A00
:10150000C06A884207D208494FF080500860BFF394
:101510004F8FBFF36F8FBDE8F081000014000020F3
:10152000CC0000202C05002004ED00E038B500F0D0
:1015300045FC104CA068C8B90F4800F00DFC0E48DF
:10154000143000F009FC0C482060143060600A4B35
:1015500000202833009003F1500210210A2000F0EF
:1015600051FEA06010B105A100F0C6FCBDE83840F6
:1015700000F044BC5000002090050020546D7251D2
:101580000000000030B4026C0B46002A0BD0C1688A
:101590001144C1604468A14201D30168C16030BCFC
:1015A0001846FEF75DBE30BC70472DE9F041856BF3
:1015B000174604460026026C82B1C7B1E068FEF708
:1015C0004FFEE168206C091AE1602268914202D264
:1015D0006168081AE060022F16D017E02068A8B9E9
:1015E000606801F03BF90646002060600EE0A068EC
:1015F000FEF736FE216CA0680844A060616888424E
:1016000004D32068A06001E005B16D1E6D1CA563C8
:101610003046BDE8F08110B5044690F8590058B145
:1016200001280CD002280FD0502080F31188BFF37E
:101630004F8FBFF36F8FFEE7206B00F0F3FB204668
:10164000BDE8104000F0EEBB10BD000010484FF4A4
:101650004061420706D0C01D0D4920F00700411A25
:10166000C1F540610B4A00230144C2E90003083977
:10167000103A21F0070111604B600B600B1AC0E9B2
:10168000001393604FF000405360D060704700003B
:10169000600D002078000020144E154CA6F29C47E7
:1016A0004FF08058DFF84C9012E000BF00F086FB4E
:1016B000F068C568281D00F025FB2069401E2061E8
:1016C000E068401EE06000F099FB2846FFF7A3FFAA
:1016D000E0680028EAD138680128F9D9C9F8008003
:1016E000BFF34F8FBFF36F8FF2E700006805002054
:1016F0001400002004ED00E070B51D46049C51B1BB
:10170000C4F80020C4E90F010121204600F0AEFD1D
:1017100084F84C5070BD2460F4E72DE9F0470E4684
:10172000DDE909841746824691009946089DA52265
:10173000206BFEF7DAFD6FF00301206B01EB8701F0
:10174000084420F00707780707D0502080F311885D
:10175000BFF34F8FBFF36F8FFEE72218315C82F823
:101760003410315C11B1401C1028F6D3002684F8E7
:101770004360382D00D33725E562C4E91356201D98
:1017800000F0F5FA04F1180000F0F1FA2461C5F157
:1017900038006462A061666584F858604A46514624
:1017A000384600F03BFA2060B8F1000F01D0C8F8CD
:1017B0000040BDE8F087000030B5114900E0114657
:1017C0000A688242FBD34B685C18844203D14068AC
:1017D00018444860084643681C18944209D1084CD4
:1017E000103C2468A24209D052681A4442600A6838
:1017F00012680260814200D0086030BD0460F9E7E1
:101800007800002070B5002441600B4D00619142CA
:1018100006D8D11A8269914206D2011D686807E094
:101820009A4203D2994201D3012403E0011D2868A2
:1018300000F0A0FA204670BD5000002010B504460C
:1018400000F0BCFAA06B28B15FF0000400F0D6FAFB
:10185000204610BD0124F9E730B589B0304D55E080
:101860000498002806DADDE90601059A90470498F5
:1018700000284BDB069C606910B1201D00F042FA85
:1018800002A800F0B9F8024604980A283ED2DFE820
:1018900000F00505053D263705053D260598A1699B
:1018A000034601442046FFF7ADFF00B3616A2046BE
:1018B0008847E069012829D1002000900598A16996
:1018C000002342181946204601F0D2F878B950207A
:1018D00080F31188BFF34F8FBFF36F8FFEE705983A
:1018E000A06128B1811813462046FFF78BFF0DE059
:1018F000502080F31188BFF34F8FBFF36F8FFEE747
:1019000094F82C0010B9204600F08CFA002204A9AB
:10191000A86800F0FDFD0028A2D109B030BD00008C
:10192000500000202DE9FC410F46054600F0C6FBA3
:1019300001A800F061F80446019818B101F006F81A
:10194000BDE8FC81224EAFB170680068A8B30027E3
:10195000291B3A46B06800F0E3FA00F0F7FF0028D0
:10196000EED11C494FF080500860BFF34F8FBFF39A
:101970006F8FE5E7A542EBD800F0E8FF3068274617
:10198000C068C468201D00F0BDF9E069012810D1CD
:10199000A0692B4641193A462046FFF733FF40B174
:1019A00000200346014600902A46204601F060F8D8
:1019B00020B1616A20468847C2E707E0502080F3E3
:1019C0001188BFF34F8FBFF36F8FFEE70127BFE78B
:1019D0005000002004ED00E006484168096829B184
:1019E0004168C968C9684968016370474FF0FF31B1
:1019F000FAE700001400002070B5054600F0C4FEB0
:101A0000064E04463069844203D200F009F80120F2
:101A100000E0002028602046346170BD50000020A6
:101A2000F8B5194D1FE0C068C4680668201D00F0B5
:101A300069F9616A20468847E069012813D1A069E5
:101A40003044B04206D924616060211D286800F04E
:101A500091F908E0002003460146009032462046F6
:101A600001F006F838B1286801680029DBD16968FF
:101A7000C5E90010F8BD502080F31188BFF34F8FE7
:101A8000BFF36F8FFEE70000500000200848406859
:101A9000401C4FF0500080F3118804D0BFF34F8FEB
:101AA000BFF36F8FFEE7BFF34F8FBFF36F8FFEE77C
:101AB00080000020074C2068016841B1C068002107
:101AC000D0F80000FFF72EFFFFF7C6FEF3E7012175
:101AD0000020F7E7500000202DE9F041044600F017
:101AE0006DF994F9455004F1240609E0606A48B1A3
:101AF000304600F0F3FE08B100F062FA6D1E6DB2E0
:101B0000002DF3DC4FF0FF3684F8456000F076F9E5
:101B100000F054F994F9445004F1100709E02069E9
:101B200048B1384600F0DAFE08B100F049FA6D1EFF
:101B30006DB2002DF3DC84F84460BDE8F04100F0A4
:101B40005DB900002DE9F0410546002700F0B6FA26
:101B5000314E306808B9FFF779FDF06805424BD186
:101B6000C5B3083568070ED005F00700C0F10800BE
:101B70000544680707D0502080F31188BFF34F8FCA
:101B8000BFF36F8FFEE72DB37068854234D82248CB
:101B9000103001460C6801E020460C466168A942FD
:101BA00002D221680029F7D131688C4224D007681D
:101BB0002168016060680837411B10290FD960193E
:101BC000420708D0502080F31188BFF34F8FBFF336
:101BD0006F8FFEE710E041606560FFF7EDFD616823
:101BE0007068401A7060B268904200D2B060F068CD
:101BF00001430020C4E9000100F0A8FE780707D0E7
:101C0000502080F31188BFF34F8FBFF36F8FFEE733
:101C10003846BDE8F08100006800002010B5031FC1
:101C20004FF080741C601B1F21F001011960191F07
:101C3000024B0B60143940380A6010BD8D1A000841
:101C400038B500232E4A40F6FC710093009812F834
:101C50002000800700981CD502EB8000046805680E
:101C6000A408641C64F38B050560009C52F82440B2
:101C7000009DC4F3890452F82550C5F30935AC42E0
:101C80000CD904688C430460047844F001040470A7
:101C900004E002EB80042068884320600098401C28
:101CA00000900A28D2DB164A00932832009812F8D6
:101CB00020008007009817D552F8200008420098AD
:101CC00002EB800007D0036804689B085B1E63F387
:101CD0008B0404600DE0037823F0020303700378A3
:101CE00043F00103037004E002EB800003688B43C0
:101CF00003600098401C00900A28D7DB38BD000024
:101D000060190020D0E9013201699A60D0E901230D
:101D10005A604A68824201D182684A6000220261A8
:101D20000868401E0860086870470000034B0360A5
:101D300003F15C000860802010607047A806002056
:101D4000044B036003F15C0008604FF48070106086
:101D5000704700000409002000F108014FF0FF3235
:101D6000C0E90112C16001610021016070470021DA
:101D70000161704730B50B685A1C02D000F10802AF
:101D800002E0026904E02246546825689D42FAD9BF
:101D900053684B6099608A60516008610168491C12
:101DA000016030BD42684A6093688B6093685960F7
:101DB000916008610168491C01607047502080F300
:101DC0001188BFF34F8FBFF36F8F0A494868401CDB
:101DD000486001280CD10848006810F0FF0F07D0B8
:101DE000502080F31188BFF34F8FBFF36F8FFEE752
:101DF000704700008000002004ED00E008494868BA
:101E000028B1401E486001D180F3118870475020EE
:101E100080F31188BFF34F8FBFF36F8FFEE7000091
:101E20008000002070B5002827D0144DA0F10804D0
:101E30006168E868014207D1502080F31188BFF340
:101E40004F8FBFF36F8FFEE722683AB1502080F3C7
:101E50001188BFF34F8FBFF36F8FFEE7814361603F
:101E600000F02CF960686968084468602046FFF754
:101E7000A3FCBDE8704000F069BD70BD68000020A3
:101E80004FF0E02000210161816105494FF47A7231
:101E90000968B1FBF2F1491E4161072101617047F8
:101EA0001000002010B5FEF7B7F9114910280ED325
:101EB00000F1E02090F8F0030A78904207D2502019
:101EC00080F31188BFF34F8FBFF36F8FFEE7094890
:101ED0000068896800F4E060884207D9502080F3E8
:101EE0001188BFF34F8FBFF36F8FFEE710BD000067
:101EF000800000200CED00E010B5084B002200BF70
:101F000053F832401CB1521C082AF9D310BD43F8D3
:101F1000321003EBC201486010BD00008C000020AD
:101F200070B515460E460446FFF748FF94F9441075
:101F30000020491C01D184F8440094F94510491C43
:101F400001D184F84500FFF759FFA06B28B92A4654
:101F5000314604F1240000F051F82046BDE87040FD
:101F6000FFF7BABD10B5020014D00F48806B38B12E
:101F7000502080F31188BFF34F8FBFF36F8FFEE7C0
:101F800000F09CF800211046FFF73AFA00F0DEFC62
:101F9000002807D105494FF080500860BFF34F8FEC
:101FA000BFF36F8F10BD00001400002004ED00E0AF
:101FB00002498A6A02604969416070471400002042
:101FC00001490120486270471400002010B50C46FA
:101FD00050B1094909681831FFF7CCFE2046BDE829
:101FE00010400121FFF70CBA502080F31188BFF395
:101FF0004F8FBFF36F8FFEE71400002070B51446BB
:102000000D4668B10A4909681831FFF7CBFE0CB1DB
:102010004FF0FF3521462846BDE87040FFF7F0B984
:10202000502080F31188BFF34F8FBFF36F8FFEE70F
:102030001400002030B587B00024039405AA04A939
:1020400003A80494FFF772FEDDE903010094CDE9D3
:102050000110002315A11748059A00F05CFB164DEE
:10206000002868631FD000F0D3FC012809D0401C71
:1020700019D1502080F31188BFF34F8FBFF36F8FBA
:10208000FEE7502080F31188BFF34F8FBFF36F8FAF
:102090004FF0FF3028630120E8616C6107B0BDE8B4
:1020A000304000F045B807B030BD000049444C4511
:1020B0000000000099160008140000200248816BFF
:1020C000491C81637047000014000020164810B5B9
:1020D000816B11B10121416210BD00214162816912
:1020E000124A01E0B9B1491E01EB810352F82330D5
:1020F000002BF7D001EB810302EB830202F108040D
:1021000053685B685360A34201D15B685360DA682F
:102110000260816110BD502080F31188BFF34F8FA2
:10212000BFF36F8FFEE7000014000020CC000020FA
:102130001CB5264908780190FF20087008788DF8B2
:1021400000009DF800009DF8002000F0F000904293
:1021500007D0502080F31188BFF34F8FBFF36F8FEC
:10216000FEE79DF800001A4B00F0500018700720A1
:10217000986005E09DF8002052008DF80020401E78
:102180009DF800201206F5D49860032807D050204F
:1021900080F31188BFF34F8FBFF36F8FFEE74FF4CB
:1021A00040709860019808700A48016841F4700115
:1021B0000160016841F070410160FFF761FE00209D
:1021C0005860FDF7F3FF00201CBD000000E400E0B4
:1021D0008000002020ED00E010B5502080F3118831
:1021E000BFF34F8FBFF36F8F00F0D4FA18B10449DB
:1021F0004FF080500860002080F3118810BD00006F
:1022000004ED00E038B5049D18B153B1CAB181B1F5
:1022100020E0502080F31188BFF34F8FBFF36F8F02
:10222000FEE7502080F31188BFF34F8FBFF36F8F0D
:10223000FEE7502080F31188BFF34F8FBFF36F8FFD
:10224000FEE739B1502080F31188BFF34F8FBFF301
:102250006F8FFEE750241C46012384F846302B463E
:102260000094FFF749FA204638BD000070B50D46CE
:10227000040025D0FFF7A2FDD4E90F20216802FB5E
:10228000001161600021A1632168A1600A46D4E9C0
:102290000F01401E00FB0121E16021464FF0FF309D
:1022A00001F8440F487004F110008DB1FFF754FDA0
:1022B00004F12400FFF750FDFFF7A0FD012070BDE1
:1022C000502080F31188BFF34F8FBFF36F8FFEE76D
:1022D00021690029F0D000F001FB0028ECD004496E
:1022E0004FF080500860BFF34F8FBFF36F8FE3E76D
:1022F00004ED00E02DE9FF4782B01D468A464FF00D
:102300000008040003D0BAF1000F08D011E05020FB
:1023100080F31188BFF34F8FBFF36F8FFEE7206C00
:1023200038B1502080F31188BFF34F8FBFF36F8F08
:10233000FEE7022D0AD1E06B012807D0502080F380
:102340001188BFF34F8FBFF36F8FFEE700F00EFAD7
:102350003F4F4FF000094FF0805648B9049838B10C
:10236000502080F31188BFF34F8FBFF36F8FFEE7CC
:10237000FFF724FDA06BE16B884207D3022D05D047
:102380000498D0B1B8F1000F1AD01EE02A46514689
:102390002046FFF70AF9616A19B104F1240000F040
:1023A0009DFA20B13E60BFF34F8FBFF36F8FFFF7F1
:1023B00025FD012006B0BDE8F087FFF71FFD22E0F4
:1023C0006846FFF7F5FD4FF00108FFF717FDFFF72F
:1023D00075FEFFF7F3FC94F94400401C01D184F82A
:1023E000449094F94500401C01D184F84590FFF7D2
:1023F00005FD04A9684600F027F930B12046FFF733
:102400006BFB00F0A3FA0020D4E7FFF7D7FCA06B2A
:10241000E16B884213D1FFF7F1FC04F1100004993D
:10242000FFF7D4FD2046FFF757FB00F08FFA002896
:102430009ED13E60BFF34F8FBFF36F8F98E7FFF7DA
:10244000DDFC2046FFF748FB00F080FA90E7000033
:1024500004ED00E02DE9F0471F4690468946040050
:1024600003D0B9F1000F08D011E0502080F311889B
:10247000BFF34F8FBFF36F8FFEE7206C38B1502052
:1024800080F31188BFF34F8FBFF36F8FFEE7022FEA
:102490000AD1E06B012807D0502080F31188BFF3E8
:1024A0004F8FBFF36F8FFEE7FFF7FCFC5020EFF379
:1024B000118680F31188BFF34F8FBFF36F8FA06B2E
:1024C000E16B884206D3022F04D0002086F31188E6
:1024D000BDE8F08794F945503A4649462046FFF753
:1024E00064F8681C04D06D1C84F845500120EDE7A9
:1024F000606A0028FAD004F1240000F0EFF9002807
:10250000F4D0B8F1000FF1D00121C8F80010EDE7C8
:102510002DE9F747002683B08A46040003D0BAF1BC
:10252000000F08D011E0502080F31188BFF34F8FC7
:10253000BFF36F8FFEE7206C38B1502080F3118815
:10254000BFF34F8FBFF36F8FFEE700F00FF9DFF897
:10255000F4804FF000094FF0805748B9059838B122
:10256000502080F31188BFF34F8FBFF36F8FFEE7CA
:10257000FFF724FCA56BC5B151462046FFF702F8D2
:102580006D1EA563206950B104F1100000F0A6F99A
:1025900028B1C8F80070BFF34F8FBFF36F8FFFF7FC
:1025A0002DFC012006B0BDE8F087059808B11EB1EA
:1025B00006E0FFF723FC27E06846FFF7F9FC012659
:1025C000FFF71CFCFFF77AFDFFF7F8FB94F94400D6
:1025D000401C01D184F8449094F94500401C01D17D
:1025E00084F84590FFF70AFC05A9684600F02CF82E
:1025F000002820460AD0FFF76FFA00F0A7F920461E
:10260000FFF71CF90028B3D00020CBE7FFF716F93D
:1026100090B104F124000599FFF7D8FC2046FFF79C
:102620005BFA00F093F90028A2D1C8F80070BFF35C
:102630004F8FBFF36F8F9BE72046FFF74DFA00F0F7
:1026400085F995E704ED00E02DE9F0410C46050021
:1026500011D0C4B1FFF7B2FB174B5A696E682068FE
:10266000911B471C17D02F689B6A9F4219D0964236
:1026700017D8012410E0502080F31188BFF34F8F4A
:10268000BFF36F8FFEE7502080F31188BFF34F8FA9
:10269000BFF36F8FFEE70024FFF7B0FB2046BDE8D5
:1026A000F081884205D9401A20602846FFF780FC57
:1026B000F1E700202060DCE7140000202DE9FF5F37
:1026C0008346DDE90E87994616468A469000FFF755
:1026D00039FA05001CD05C20FFF734FA040014D04E
:1026E0000020256384F85900CDE90240CDE9008738
:1026F0004B46324651465846FFF70FF82046FEF744
:10270000ADFE012004B0BDE8F09F2846FFF78AFB2C
:102710004FF0FF30F6E7F0B585B0DDE90B640A9DB8
:10272000A6B1DCB15C2700972663022684F85960C5
:10273000002604AFCDE90246CDE90057FEF7EDFFD4
:102740002046FEF78BFE049805B0F0BD502080F3C4
:102750001188BFF34F8FBFF36F8FFEE7502080F3D8
:102760001188BFF34F8FBFF36F8FFEE70548C16934
:1027700019B1806B18B1002070470120704702200A
:1027800070470000140000200148406970470000B5
:10279000140000202DE9F0412E4C0027A06B40B121
:1027A000206A401C2062606A00B101273846BDE8FB
:1027B000F0816669761C666113D16068006838B183
:1027C000502080F31188BFF34F8FBFF36F8FFEE768
:1027D0006068A1686160A060A06A401CA062FFF709
:1027E000FBF8206BDFF87080864209D360680068D0
:1027F00080B16068C068C568686886420DD2206391
:102800002068C06A00EB800158F821000128CAD96D
:102810000127C8E74FF0FF30F1E7281DFFF772FAF4
:10282000A86A18B105F11800FFF76CFAE86AA16907
:10283000884200D9A06100EB800108EB8100291DCE
:10284000FFF7B0FAE86A2168C96A8842CED3012747
:10285000CCE7000014000020CC00002070B504007C
:102860004FF0000133D01B4D2868844207D0502020
:1028700080F31188BFF34F8FBFF36F8FFEE7206D9A
:1028800038B1401E2065E36CE26A9A421FD040B125
:102890001DE0502080F31188BFF34F8FBFF36F8F7F
:1028A000FEE7201DFFF72EFAE06CE062C0F1380071
:1028B000A061E06AA969884200D9A861064900EBD5
:1028C000800001EB8000211DFFF76CFA0121084612
:1028D00070BD000014000020CC00002070B5C0685E
:1028E000C46854B104F118000646FFF70BFA144D02
:1028F000A86B50B13146134815E0502080F3118881
:10290000BFF34F8FBFF36F8FFEE7201DFFF7FAF97C
:10291000E06AA969884200D9A8610B4900EB8000F0
:1029200001EB8000211DFFF73DFAE06A2968C96AC2
:10293000884202D90120686270BD002070BD00008D
:102940001400002054050020CC0000202DE9F047A1
:102950002C4D00242746A86B38B1FFF72FFAA86B3F
:10296000401EA863A86B40B146E0502080F3118858
:10297000BFF34F8FBFF36F8FFEE72969224E01200F
:10298000D1B3A6F5916980463068E0B1F068C468BB
:1029900004F11800FFF7B6F9201DFFF7B3F9E06A5C
:1029A000A969884200D9A86100EB800109EB810088
:1029B000211DFFF7F7F9E06A2968C96A8842E3D365
:1029C000C5F82480E0E70CB1FFF706F82C6A4CB19B
:1029D0004FEA0806FFF7DEFE00B16E62641EF9D111
:1029E00000202862686A38B1084901273807086062
:1029F000BFF34F8FBFF36F8FFFF700FA3846BDE884
:102A0000F0870000140000205405002004ED00E0D1
:102A100010B586B0FEF78AFD114CA068B8B1002051
:102A20000390049005AA04A903A8FFF789F9DDE93A
:102A3000032102208DE8070000230AA10B48059A14
:102A4000FFF769FEE06010B106B0012010BD502014
:102A500080F31188BFF34F8FBFF36F8FFEE7000045
:102A600050000020546D722053766300B51A0008A0
:102A70002DE9FF411E46134602000A9D4FF000005B
:102A800016D0144CA768002F0FD0CDE90013029286
:102A9000062917DAFFF76AFE02284FF000030FD06D
:102AA00000226946A068FFF725FC04B0BDE8F0816C
:102AB000502080F31188BFF34F8FBFF36F8FFEE775
:102AC0002A46EEE70023324669463846FFF7C2FC45
:102AD000EBE70000500000200000000000000000B4
:102AE0000102030406070809082B00080000002063
:102AF0008C00000028010008942B00088C000020A6
:102B00000422000044010008000000000100000051
:102B100010000000000000000024F400000000008D
:102B200000000000000000000000000000000000A5
:102B30000000000000000000000000000000000095
:102B40000000000000000000000000000000000085
:102B50000000000000000000000000000000000075
:102B60000000000000000000000000000000000065
:102B70000000000000000000000000000000000055
:102B8000000000000000000000000000AAAAAAAA9D
:042B90000000000041
:04000005080000ED02
:00000001FF
