:020000040800F2
:10000000602F0020490200081D310008F12B000874
:10001000193100084D0C0008553800080000000098
:10002000000000000000000000000000B101000816
:10003000050D000800000000F501000891310008DE
:1000400063020008630200086302000863020008FC
:1000500063020008630200086302000863020008EC
:1000600063020008630200086302000863020008DC
:10007000A50C0008B50C0008C50C0008D50C00083C
:10008000E50C0008F50C0008630200086302000894
:100090003D380008510C00086302000863020008A4
:1000A000630200086302000863020008630200089C
:1000B000630200086302000863020008630200088C
:1000C000630200086302000863020008630200087C
:1000D0006302000889370008C537000801380008A6
:1000E00063020008630200086302000800F002F8DF
:1000F00000F04FF80AA090E8000C82448344AAF173
:100100000107DA4501D100F044F8AFF2090EBAE870
:100110000F0013F0010F18BFFB1A43F0010318473B
:10012000506A0000706A0000103A24BF78C878C195
:10013000FAD8520724BF30C830C144BF04680C60ED
:10014000704700000023002400250026103A28BF35
:1001500078C1FBD8520728BF30C148BF0B60704739
:10016000642900F05981732900F00B840020704746
:100170001FB59DE8030000F045FB00F0E1FC040022
:100180000020002106F0D2FC401C60601FBD10B5AD
:1001900010BD00F0B0FC1146FFF7EAFF03F0FEFDD2
:1001A00000F0E0FC03B4FFF7F2FF03BC00F010FD29
:1001B000224B19680868B0E8F00F80F30988BFF394
:1001C0006F8F4FF0000080F311884EF00D0E7047D6
:1001D0000000000006480068006880F3088862B6E6
:1001E00061B6BFF34F8FBFF36F8F00DF00BF00BF5B
:1001F00008ED00E0EFF30980BFF36F8F0F4B1A6833
:1002000020E9F00F106008B54FF0500080F311881E
:10021000BFF34F8FBFF36F8F05F044FD4FF0000029
:1002200080F31188BDE8084019680868B0E8F00F4D
:1002300080F30988BFF36F8F704700BF180000205C
:10024000EFF30580704700000948804709480047E0
:10025000FEE7FEE7FEE7FEE7FEE7FEE7FEE7FEE776
:10026000FEE7FEE704480549054A064B70470000D3
:1002700041320008ED00000860290020602F0020B6
:10028000602B0020602B002070B5064600F09AFA23
:10029000056806F10B0020F00704B4429CBF002063
:1002A00070BD2B466A68BAB11068A04210D304F141
:1002B000080188423CBF5068586007D35168101944
:1002C00041601168091B016058601460101D70BD09
:1002D00013465268002AE7D12146284600F07EFAEC
:1002E0000028DED170BD70B50446051F00F06AFA23
:1002F0000068002C14BF446870BD002C18BFAC42CD
:100300003CBF20466468F8D301680A18AA4218BFA7
:10031000456003D12A6805461144016028684119E7
:10032000A1421CBF6C6070BD6168696021680844AF
:10033000286070BD0FB41CB5074B06AA7B44694604
:100340000090059800F0F3FA0020694600F002FBE7
:100350001CBC5DF814FB0000150600002DE9F041FF
:100360000E460446002020622046E168884730B3EC
:10037000252805D0D4E901219047206A401CF2E7E6
:10038000E168204600278847050018D0A5F1410004
:10039000192802D820354FF40067324629462046F6
:1003A0002760FFF7DDFE40B1012804D0F61D26F0DE
:1003B00007060836D8E7361DD6E72846DAE7206A6A
:1003C000BDE8F08170B50C460546012A05D02878B5
:1003D000800600D5EA69002302E0012305E05B1CEA
:1003E000934202D2E05C0028F9D1A869E618C01A4D
:1003F000A861286A184428622846AFF3008004E008
:10040000D5E9012114F8010B9047B442F8D32846EE
:10041000AFF3008070BD00002DE9F04106460024D6
:1004200010687529314616A510D0AFF3008000285A
:1004300002DA404213A507E031688A0701D512A508
:1004400002E0490704D511A5012401E0AFF30080C3
:1004500000210A2206F1240709E0B0FBF2FCB0FB00
:10046000F2F302FB1C00303078541846491C002877
:10047000F3D123462A463046BDE8F04100F0F8B9F2
:10048000000000002D0000002B00000020000000F4
:1004900070B5064600F09AF90468054630460A220F
:1004A000002100F072FA2C6070BD30B505460B4695
:1004B0002A4613F8014B12F8010B08B1A042F8D0FC
:1004C0001CB1002802D06D1CF1E7284630BD40EA7F
:1004D0000103024630B59B0710D14FF0013400E014
:1004E00008C208C91D1B9D4315EAC41FF8D013F0AC
:1004F000FF0102F8011B0DD01B0AF8E711F8013BC0
:10050000002B02F8013B05D011F8013B002B02F84B
:10051000013BF3D130BD10B5431C02E010F8011BC4
:1005200071B18107FAD14FF0013202C88C1A8C43A5
:1005300014EAC211F9D0C01A0A0603D0C01E10BDB9
:10054000C01A10BD0A0401D0801E10BD0902FCD0E3
:10055000401E10BD032A40F2308010F0030C00F062
:10056000158011F8013BBCF1020F624498BF11F8ED
:1005700001CB00F8013B38BF11F8013BA2F10402A6
:1005800098BF00F801CB38BF00F8013B11F003031E
:1005900000F02580083AC0F0088051F8043B083A82
:1005A00051F804CBA0E80810F5E7121D5CBF51F824
:1005B000043B40F8043BAFF30080D20724BF11F89E
:1005C000013B11F801CB48BF11F8012B24BF00F803
:1005D000013B00F801CB48BF00F8012B704710B574
:1005E000203AC0F00B80B1E81850203AA0E818502B
:1005F000B1E81850A0E81850BFF4F5AF5FEA027CEC
:1006000024BFB1E81850A0E8185044BF18C918C05A
:10061000BDE810405FEA827C24BF51F8043B40F8FB
:10062000043B08BF7047D20728BF31F8023B48BFE0
:1006300011F8012B28BF20F8023B48BF00F8012B1E
:10064000704702F0FF0343EA032242EA024200F04D
:1006500002B84FF000020429C0F0128010F0030C21
:1006600000F01B80CCF1040CBCF1020F18BF00F8A5
:10067000012BA8BF20F8022BA1EB0C0100F00DB854
:100680005FEAC17C24BF00F8012B00F8012B48BFB2
:1006900000F8012B70474FF0000200B51346944656
:1006A0009646203922BFA0E80C50A0E80C50B1F1CA
:1006B0002001BFF4F7AF090728BFA0E80C5048BFDE
:1006C0000CC05DF804EB890028BF40F8042B08BF7C
:1006D000704748BF20F8022B11F0804F18BF00F878
:1006E000012B704710B5044610F0030F08BF11F03E
:1006F000030F40F015804FF0013E121FC0F20E8034
:1007000051F8043BA3EB0E0C2CEA030C1CEACE1CA4
:1007100008BF40F8043BF0D0A1F1040102F104024B
:10072000521E08DB11F8013B002B00F8013BF7D10A
:100730001146FFF78EFF204610BD00004FF0013C30
:1007400050F8042B51F8043B9A4221D1A2EB0C0340
:10075000934313EACC1317D150F8042B51F8043B00
:100760009A4215D1A2EB0C03934313EACC130BD19D
:1007700050F8042B51F8043B9A4209D1A2EB0C0328
:10078000934313EACC13DBD04FF00000704700BF57
:10079000D01A01BAB1FA81F101F0180122FA01F080
:1007A000CB40C1F12001DBB2C0B2C01A2CFA01F378
:1007B000D11A914311EAC311E6D1704770477047CF
:1007C0007047000000487047082900200048704723
:1007D00000290020704770477047704738B50446BD
:1007E0000A4600206946AFF30080002808BF38BDE4
:1007F00002460099204600F00DF9012038BD012085
:1008000000F071B9F8B5AFF30080054600200C4642
:10081000102000BF0646A819A0420DD932466946ED
:100820000020AFF30080070008BF00F05CF90098DB
:10083000A04218BF0546C419FFF7C4FF056007466C
:10084000F01D20F007004619284600F00AF8B442CF
:1008500008BFF8BDA21B31463868BDE8F84000F07B
:10086000D9B800210160C0E901107047102070471D
:100870002DE9F0470D4699469246044600F12408BA
:100880000168880604D5E06921F01001216000E0CC
:100890000120A84201DD471B00E00027A1697A1969
:1008A00002EB0900081AA0612078C00602D4204695
:1008B000AFF30080002608E0D4E901211AF8060011
:1008C0009047206A401C761C20624E45F4DB20785D
:1008D000C0060AD52046AFF3008006E0D4E9012126
:1008E00030209047206A401C2062381EA7F1010783
:1008F000F4DC07E0D4E9012118F805009047206AEC
:10090000401C2062281EA5F10105F3DC2046AFF350
:1009100000802078000602D50220BDE8F087012083
:10092000FBE7000001694A1C02610878704700B5C6
:100930008FB0CDE901310021059105497944CDE918
:10094000031011466846FFF709FD0FB000BD000017
:10095000E5FFFFFF0A6802F8010B0A60704710B557
:10096000436913B1AFF3008001E0FFF72BFD0120D5
:1009700010BD127800F124010A7000224A70012291
:10098000EDE711684FF0FF32E9E72DE9F0479146B6
:100990000F4680460446002614F8015B2DB100F096
:1009A00031F80068405DC007F6D12B2D02D02D2D07
:1009B00018D0641E4A463946204600F045F827B153
:1009C0003968A14201D1C7F800804FF002047105D7
:1009D0000BD54042002803DDFFF7F8FE0460A007B6
:1009E000BDE8F08746F48066E4E70028F8DAFFF710
:1009F000EDFE04606FF00040F2E700000048704731
:100A00000029002010B500F09BF8001D10BD00BFAC
:100A10001D610000034640688C46002818BF8842CC
:100A20003CBF03464068F8D318681844884207D092
:100A30000CF1030020F00700001D411A521A014674
:100A4000081D0A60FFF74FBC2DE9F05F824615468E
:100A50008B4600270AF10104B9460078302801D0FE
:100A60009DB113E014F8010B0127782803D0582812
:100A700001D045B10AE00DB1102D07D1002714F8BF
:100A8000010B102502E0082500E00A250026B046EB
:100A90000EE005FB080005FB06F101271FFA80F8B0
:100AA00001EB1046B6F5803F00D3B94614F8010BB0
:100AB000294600F049F80028EBDABBF1000F05D019
:100AC0000FB1641E00E05446CBF80040B9F1000FAE
:100AD00006D0FFF77BFE02210160C81EBDE8F09F33
:100AE00048EA0640FAE710B500F04AF8BDE81040C1
:100AF00000F041B870477546FFF780FFAE4605002D
:100B00006946534620F00700854618B020B5FFF728
:100B1000A9FBBDE820404FF000064FF000074FF062
:100B200000084FF0000B21F00701AC46ACE8C0090B
:100B3000ACE8C009ACE8C009ACE8C0098D46704714
:100B400000487047202900203A2800D2303820F091
:100B50002002412A01D3A2F13700884201D34FF08D
:100B6000FF30704710B50446AFF300802046BDE863
:100B70001040FFF717BB002801D000F029B87047DC
:100B800010B5012805D0002103A000F027F80120AE
:100B900010BD09A1F8E7000053494752544D454D97
:100BA0003A204F7574206F662068656170206D650E
:100BB0006D6F7279000000003A2048656170206D09
:100BC000656D6F727920636F727275707465640001
:100BD00001491820ABBEFEE72600020070B50546AD
:100BE0000C460A2000E06D1C00F011F835B12878A1
:100BF0000028F8D102E0641C00F009F814B1207854
:100C00000028F8D1BDE870400A20AFF3008008B595
:100C100069468DF800000320ABBE08BD10B5094839
:100C2000007800F0010028B14FF40041064801F0BF
:100C30000DF905E000224FF40041034801F00DF9E1
:100C400010BD0000A80000200010014000BFFEE71A
:100C500010B5034800F076FB01200249087010BD72
:100C6000CC2100200000002030B502460B464FF694
:100C7000FF700021002400BF10E0555C684008248C
:100C800009E000F0010525B140084AF2010568407D
:100C900000E04008641E002CF3D1491C9942ECDBB3
:100CA00030BD000010B5024800F036FE10BD000057
:100CB0000824002010B5024800F02EFE10BD0000F0
:100CC000C423002010B5024800F026FE10BD00002D
:100CD000F822002010B5024800F01EFE10BD0000F2
:100CE000B422002010B5024800F016FE10BD00002E
:100CF0003C23002010B5024800F00EFE10BD00009D
:100D0000802300207047000010B515480078C0F31C
:100D1000400048B912480078C0F3C00020B14FF439
:100D20000051104801F092F80D48007800F00100E1
:100D300020B90B480078C0F3400028B100224FF4DE
:100D40000051084801F089F805480078C0F3001008
:100D500020B101225103034801F07FF810BD0000CB
:100D6000A70000200010014010B5744890F8F20070
:100D7000C0F3800030B900224FF40041704801F008
:100D80006CF818E06D4890F8F20020F004006B4910
:100D900081F8F2000122D103694801F05EF804F005
:100DA0009DFB4FF4FA6003F0E7FD00224FF4004191
:100DB000634801F052F863480078C0F3001000283F
:100DC00070D06148408840B100205F49488002F0FF
:100DD0007BFE4FF47A7003F0CFFD584890F8F20094
:100DE000C0F3400040B102F0B5FE00215748006852
:100DF00061F3CC0055490860504890F8F20000F0CB
:100E0000010068B94D48007800F0010040B10021B0
:100E10004E48006861F3CC004C49086003F066F866
:100E20004A48007820F00400001D48490870084630
:100E3000007820F00100401C08700321434800683E
:100E400061F356304149086008460078C0F340001D
:100E500030B10846007820F00200087002F018FE59
:100E60003A48007B20F00400001D3849087308460A
:100E7000007B20F00100401C08731E213348C0682D
:100E800061F356303149C8600846007BC0F340002A
:100E900098B10846007B20F00200087302F038FE8B
:100EA0000BE0FFE72A48007800F0010028B102F0CB
:100EB000EFFD4FF47A7003F05FFD22480078C0F335
:100EC000001090B92148007C20F00400001D1F494B
:100ED000087400211D48006961F3CC001B490861BA
:100EE0000846007C20F0020008741848007C20F0BE
:100EF0000400001D154908740846007C20F001001C
:100F0000401C08745A211148006961F356300F499A
:100F100008610846007CC0F3400068B10846007CC8
:100F200020F002000874054890F8F20020F0040058
:100F3000001D024981F8F20010BD0000E4250020E8
:100F4000000C0140A7000020A0000020A4210020E8
:100F5000A800002072B600BFFEE7000000B585B013
:100F60000020019002900390049000BF44488069E3
:100F700040F00400424988610846806900F004009E
:100F8000009000BF00BF00BF0846806940F0080025
:100F900088610846806900F00800009000BF00BF2B
:100FA00000BF0846806940F01000886108468069EB
:100FB00000F01000009000BF00BF00BF084680692D
:100FC00040F0200088610846806900F02000009011
:100FD00000BF00BF04200190002002900120039078
:100FE00001A9284800F09AFD4FF4604001900120CB
:100FF0000290002003900220049001A9224800F0F2
:101000008DFD0120019002900020039003200490A8
:1010100001A91E4800F082FD0220019001200290EB
:10102000002003900220049001A9194800F076FDE9
:10103000012001900290002003900220049001A959
:10104000134800F06BFD4FF4004001900120029026
:10105000002003900220049001A90A4800F05EFDE0
:101060004FF4807001900120029000200390022034
:10107000049001A9064800F051FD05B000BD000034
:1010800000100240000C014000100140001401401B
:101090000008014010B5024692F82030012B01D023
:1010A000022B06D110684069084314686061002073
:1010B00010BD506A40F4802050620120F8E7F0B57E
:1010C00004460A46216894F82050012D01D0022DD3
:1010D00074D1D1F8000240F00100C1F80002107D87
:1010E00000F01F06012000FA06F3D1F81C02984315
:1010F000C1F81C02D069C8B9D1F80C029843C1F8F4
:101100000C02908880B2968940EA064601F510707C
:10111000576940F83760108880B2168940EA064661
:1011200001F51070576900EBC7004660D0690128CF
:1011300019D1D1F80C021843C1F80C02908880B282
:10114000168840EA064601F51070576940F8376086
:10115000908980B2168940EA064601F510705769F9
:1011600000EBC7004660906928B9D1F804029843A3
:10117000C1F8040204E0D1F804021843C1F80402E3
:10118000106928B9D1F814029843C1F8140204E098
:10119000D1F814021843C1F81402106A012804D1CE
:1011A000D1F81C021843C1F81C02D1F8000220F04B
:1011B0000100C1F800020020F0BDFFE7606A40F4C2
:1011C000802060620120F7E7704770B5044694F80C
:1011D0002050012D01D0022D7DD151B92068C06869
:1011E00000F0030080B9606A40F4001060620120E2
:1011F00070BD2068006900F0030028B9606A40F4FF
:10120000001060620120F3E7206800F5D87000EB61
:101210000110006800F004009060906840B92068F8
:1012200000F5D87000EB01100068400D106007E079
:10123000206800F5D87000EB01100068C00850600D
:10124000206800F5D87000EB0110006800F0020083
:10125000D060206800F5D87000EB0110406800F005
:101260000F001061206800F5D87000EB0110406895
:1012700000F47F40000A9061206800F5D87000EB10
:1012800001104068000C5061206800F5D87000EB38
:10129000011080681870206800F5D87000EB01100C
:1012A000806800F47F40000A5870206800F5D8700C
:1012B00000EB0110806800F47F00000C987020683B
:1012C00000F5D87000EB01108068000ED87020681F
:1012D00000F5D87000E02FE000EB0110C068187135
:1012E000206800F5D87000EB0110C06800F47F4062
:1012F000000A5871206800F5D87000EB0110C06832
:1013000000F47F00000C9871206800F5D87000EBA5
:101310000110C068000ED87131B92068C06840F073
:1013200020002668F06005E02068006940F0200099
:101330002668306100205BE7606A40F480206062CC
:10134000012055E72DE9F05F044600252068466935
:101350002068D0F80490206887682068D0F80CA036
:101360002068D0F810B02068D0F8188006F001008E
:10137000002855D007F00100C0B101202168886025
:1013800007F0020018B1204600F067FA0EE007F0FF
:10139000040010B145F4006508E007F0080010B142
:1013A00045F4805502E0204600F056FA07F48070BC
:1013B000C8B14FF480702168886007F4007018B1DC
:1013C000204600F04CFA0EE007F4806010B145F4BE
:1013D000005508E007F4006010B145F4804502E0D4
:1013E000204600F03BFA07F48030C8B14FF480305B
:1013F0002168886007F4003018B1204600F031FA07
:101400000EE007F4802010B145F4004508E007F431
:10141000002010B145F4803502E0204600F020FAAB
:1014200006F0080038B10AF0100020B145F400754C
:1014300010202168C86006F0040040B10AF00800DE
:1014400028B108202168C860204600F0ADF906F0F8
:10145000020038B12068C06800F0030010B12046D7
:1014600000F0A4F906F0400038B10BF0100020B1F4
:1014700045F4806510202168086106F0200040B125
:101480000BF0080028B1082021680861204600F010
:10149000B1F906F0100038B12068006900F00300CF
:1014A00010B1204600F0A7F906F4003040B109F071
:1014B000100028B1102021684860204600F09CF9F7
:1014C00006F4803040B109F0080028B108202168F6
:1014D0004860204600F0C6F906F4004088B309F0E1
:1014E000040078B306F4807020B108F0010008B160
:1014F00045F0010506F4007020B108F0020008B1C3
:1015000045F0020506F4806020B108F0040008B13F
:1015100045F0040506F40060A0B108F0700088B141
:1015200008F07000402817D006DC10280BD02028C7
:101530000CD0302819D10CE0502810D0602814D1DC
:1015400010E01DE019E045F008050FE045F010053A
:101550000CE045F0200509E045F0400506E045F0C7
:10156000800503E045F4807500E000BF00BF2068FF
:10157000806920F07000216888610420216848603B
:101580002DB1606A284360622046FFF71DFEBDE86A
:10159000F09F70B504460CB9012070BD94F820008E
:1015A00010B9204600F0B0F82068006820F0020072
:1015B0002168086000F058FC05460DE000F054FC7E
:1015C000401B0A2808D9606A40F400306062052098
:1015D00084F820000120E0E72068406800F0020065
:1015E0000028EBD12068006840F001002168086005
:1015F00000F03AFC05460DE000F036FC401B0A28DE
:1016000008D9606A40F400306062052084F8200048
:101610000120C2E72068406800F001000028EBD0FC
:10162000207E012806D12068006840F080002168F3
:10163000086005E02068006820F0800021680860EC
:10164000607E012806D12068006840F040002168D3
:10165000086005E02068006820F04000216808600C
:10166000A07E012806D12068006840F02000216893
:10167000086005E02068006820F02000216808600C
:10168000E07E012806D12068006820F01000216863
:10169000086005E02068006840F0100021680860DC
:1016A000207F012806D12068006840F008002168EA
:1016B000086005E02068006820F0080021680860E4
:1016C000607F012806D12068006840F0040021688E
:1016D000086005E02068006820F0040021680860C8
:1016E000D4E902010843216908436169084361683C
:1016F000491E08432168C86100206062012084F807
:101700002000002049E7000010B586B00446002004
:1017100002900390049005901F492068884239D1B7
:1017200000BF1E48C06940F000701C49C8610846EF
:10173000C06900F00070019000BF00BF00BF084604
:10174000806940F0080088610846806900F0080060
:10175000019000BF00BF8815029000200390049004
:1017600002A90F4800F0DAF94FF40070029002204D
:1017700003900320059002A9094800F0CFF900BFAB
:101780000849486820F4C04040F0E06040F48040E0
:10179000486000BF06B010BD006400400010024069
:1017A000000C0140000001407047000010B50446E5
:1017B00001200A4908700A4908700A4B0A4A0021A8
:1017C0002046FFF702FD09480068401C07490860F1
:1017D000054800680649086010BD0000BC000020F4
:1017E000BD000020D0000020D4280020C000002030
:1017F000C400002070477047704770B5044694F8E5
:101800002000012822D1022084F8200020680068EE
:1018100020F001002168086000F026FB05460DE07D
:1018200000F022FB401B0A2808D9606A40F400300F
:101830006062052084F82000012070BD20684068A7
:1018400000F001000028EBD16062F6E7606A40F426
:10185000002060620120F0E77047704770477047D2
:10186000704770477047000070B50446002594F833
:101870002100022803D00420A063012548E020684D
:10188000006820F00E00216808602068006820F0E1
:101890000100216808601F492068884201D10120A9
:1018A00026E01C4914312068884201D110201FE035
:1018B000184928312068884201D1801518E015495F
:1018C0003C312068884201D1801411E01149503127
:1018D0002068884202D14FF4803009E00D4964311C
:1018E0002068884202D14FF4801001E04FF08070F0
:1018F000084908394860012084F8210000BF002011
:1019000084F8200000BF606B10B12046616B8847EF
:10191000284670BD0800024070B50446E06B0568BB
:101920002068066894F84010042088402840002869
:1019300046D006F00400002842D02068006800F07D
:10194000200028B92068006820F0040021680860A1
:1019500057492068884201D1042027E054491431B6
:101960002068884201D1402020E051492831206878
:10197000884201D1001519E04D493C312068884268
:1019800002D14FF4804011E049495031206888422B
:1019900002D14FF4802009E0454964312068884233
:1019A00002D14FF4800001E04FF0806040490839D7
:1019B0004860E06A00287AD02046E16A884776E0ED
:1019C00094F84010022088402840A0B306F002009E
:1019D00088B32068006800F0200040B920680068E3
:1019E00020F00A0021680860012084F821003049B5
:1019F0002068884201D1022028E02D491431206856
:101A0000884201D1202021E02949283120688842DC
:101A100001D140151AE026493C312068884202D1A4
:101A20004FF4005012E0224950312068884203D11F
:101A30004FF400300AE017E01D4964312068884205
:101A400002D14FF4001001E04FF00070184908393E
:101A5000486000BF002084F8200000BFA06A30B3B7
:101A60002046A16A884722E094F840100820884068
:101A70002840E0B106F00800C8B12068006820F0F6
:101A80000E002168086094F8401001208840E16B46
:101A900048600120A06384F8210000BF002084F882
:101AA000200000BF206B10B12046216B884770BD1D
:101AB000080002400146002209B901207047164B78
:101AC0000868C01A1423B0FBF3F0800008641248C1
:101AD0000838C863022081F821000868026843F6CC
:101AE000F0708243D1E901031843CB6818430B69B6
:101AF00018434B6918438B691843CB691843024359
:101B00000868026000208863012081F8210000201D
:101B100081F8200000BFD1E7080002402DE9F84716
:101B20000346002294466EE14FF0010808FA02F4E1
:101B3000D1F8008008EA0400A0427DD1DFF8DCA2E1
:101B4000D1F80480A8EB0A09D0453AD014DCB8F1EA
:101B5000030F50D009DCB8F1000F31D0B8F1010FFC
:101B60001CD0B8F1020F49D120E0B8F1110F18D004
:101B7000B8F1120F42D11EE0B9F5881F25D006DC5E
:101B8000B9F5803F20D0B9F5801F37D11AE0B9F5FB
:101B9000001F18D0B9F5041F30D117E0D1F80CC0E0
:101BA0002DE0D1F80C8008F1040C28E0D1F80C806D
:101BB00008F1080C23E0D1F80C8008F10C0C1EE0B1
:101BC00000BF00BF00BF00BF00BF00BFD1F808804A
:101BD000B8F1000F02D14FF0040C0BE0D1F80880EF
:101BE000B8F1010F03D14FF0080C1C6102E04FF077
:101BF000080C5C6103E04FF0000C00E000BF00BF88
:101C0000FF2801D8984601E003F104084646FF2862
:101C100002D84FEA820803E0A2F108084FEA8808D8
:101C20004746D6F800804FF00F0909FA07F928EA6D
:101C300009080CFA07F900E088E048EA0908C6F844
:101C40000080D1F8048008F08058B8F1805F7DD121
:101C500000BFDFF8CC81D8F8188048F00108DFF821
:101C6000C091C9F81880C846D8F8188008F0010853
:101C7000CDF8008000BF00BF4FEAB9384FEA9209A3
:101C800058F829504FEA82784FEA18794FF00F0838
:101C900008FA09F825EA0805DFF88881434502D1EA
:101CA0004FF0000816E0DFF88081434502D14FF085
:101CB00001080FE0DFF87481434502D14FF00208BC
:101CC00008E0DFF86C81434502D14FF0030801E0E2
:101CD0004FF004084FEA82794FEA197908FA09F8B7
:101CE00048EA0505DFF84C814FEA920948F8295087
:101CF000D1F8048008F48038B8F5803F0AD1DFF8C5
:101D00003881D8F8008048EA0008DFF82C91C9F83B
:101D1000008009E0DFF82081D8F8008028EA000878
:101D2000DFF81491C9F80080D1F8048008F4003875
:101D3000B8F5003F10D1DFF8008108F10408D8F8A9
:101D4000008048EA0008DFF8F09000E05AE009F16E
:101D50000409C9F800800DE0DFF8DC8008F1040810
:101D6000D8F8008028EA0008DFF8CC9009F10409CF
:101D7000C9F80080D1F8048008F48018B8F5801FF5
:101D80000ED1DFF8B48008F10808D8F8008048EADE
:101D90000008DFF8A49009F10809C9F800800DE0F7
:101DA000DFF8948008F10808D8F8008028EA0008D5
:101DB000DFF8849009F10809C9F80080D1F804809F
:101DC00008F40018B8F5001F0ED1DFF86C8008F198
:101DD0000C08D8F8008048EA0008DFF85C9009F1A8
:101DE0000C09C9F800800DE0DFF84C8008F10C0800
:101DF000D8F8008028EA0008DFF83C9009F10C09C7
:101E0000C9F80080521CD1F8008028FA02F8B8F115
:101E1000000F7FF489AEBDE8F887000000001110C4
:101E20000010024000080140000C01400010014079
:101E3000001401400800014000040140024693687C
:101E40000B400BB1012000E000207047C2680A403F
:101E50000AB1416100E0016170470AB1016101E02E
:101E60000B040361704700000148006870470000E0
:101E70000800002003480068034909780844014924
:101E800008607047080000201000002010B50848C6
:101E9000006840F0100006490860032000F0BCF81C
:101EA0000F2000F007F800F02BF8002010BD000014
:101EB0000020024070B504460E4800784FF47A7155
:101EC000B1FBF0F00C490968B1FBF0F5284600F0D1
:101ED0001FFC08B1012070BD102C07D20022214642
:101EE000501E00F05BF80548046001E00120F2E7B5
:101EF0000020F0E710000020140000200C0000205B
:101F000008B500BF1848806940F001001649886193
:101F10000846806900F00100009000BF00BF00BFCC
:101F20000846C06940F08050C8610846C06900F0AA
:101F30008050009000BF00BF00220F21901E00F0D3
:101F40002DF800BF0949486820F0E06040F00070BB
:101F5000486000BF064800F0D7FC064800F0D4FCFB
:101F6000054800F0D1FC08BD00100240000001400F
:101F7000F42100203422002074220020014608466B
:101F8000002809DB00F01F0301229A4043099B004F
:101F900003F1E023C3F8002100BF70472DE9F05F93
:101FA00080460D461646002701F0BEFC074639461E
:101FB0002A46334601F00700C0F1070ABAF1040FC0
:101FC00002D94FF0040A01E0C0F1070AD14600F13E
:101FD000040ABAF1070F02D24FF0000A01E0A0F1A3
:101FE000030AD4464FF0010A0AFA09FAAAF1010AD3
:101FF0000AEA020A0AFA0CFA4FF0010B0BFA0CFB80
:10200000ABF1010B0BEA030B4AEA0B0421464046F5
:1020100001F09AFCBDE8F09F00BF00F00702064BFC
:1020200019684FF6FF031940044B0B4343EA0221A2
:10203000014B196000BF70470CED00E00000FA058D
:1020400070B504460D460CB9012070BD5A480068B1
:1020500000F00700A8420ED25748006820F00700A1
:102060002843554908600846006800F00700A84268
:1020700001D00120E9E7207800F0020002281DD1FC
:10208000207800F00400042805D14C48406840F452
:10209000E0604A494860207800F00800082805D12F
:1020A0004648406840F460504449486043484068AE
:1020B00020F0F000A168084340494860207800F013
:1020C000010078B36068012806D13C48006800F43C
:1020D000003090B90120B8E76068022806D137487F
:1020E000006800F0007040B90120AEE73348006896
:1020F00000F0020008B90120A7E73048406820F04E
:102100000300616808432D494860FFF7ADFE0646AD
:1021100009E0FFF7A9FE801B41F28831884202D90D
:10212000032092E707E02548406800F00C00616852
:10213000B0EB810FEDD12048006800F00700A84205
:102140000ED91D48006820F0070028431A4908608E
:102150000846006800F00700A84201D0012074E79B
:10216000207800F00400042807D11448406820F4C7
:10217000E060E168084311494860207800F00800F9
:10218000082808D10D48406820F46050216940EAD1
:10219000C1000A49486000F03FF808494968C1F3A6
:1021A0000311074A515CC8400649086006480068A8
:1021B000FFF780FE002048E70020024000100240A8
:1021C000586B0008140000200C0000200148006833
:1021D000704700001400002000B5FFF7F7FF044926
:1021E0004968C1F30221034A515CC84000BD0000A8
:1021F00000100240686B000800B5FFF7E7FF0449D4
:102200004968C1F3C221034A515CC84000BD0000C7
:1022100000100240686B0008F0B585B00FF26C0C3E
:102220009CE8E01001A8A0E8E0101CA52D6800952E
:1022300000210022002300240020194D696801F0CC
:102240000C05F5B1042D02D0082D19D101E0154877
:1022500019E001ADC1F38346AC5D01F4803555B1A1
:102260000F4D6D68C5F340451DF805200D4D6543C4
:10227000B5FBF2F302E00C4D04FB05F3184602E057
:1022800000BF084800BF00BF05B0F0BD0203040551
:10229000060708090A0B0C0D0E0F101001020000B2
:1022A0000010024000127A0000093D00F8B5044613
:1022B0000CB90120F8BD207800F00100002878D08A
:1022C000F848406800F00C0004280CD0F54840683D
:1022D00000F00C00082811D1F248406800F480306A
:1022E000B0F5803F0AD1EF48006800F400300028C4
:1022F0005FD0606800285CD10120DBE700BF606828
:10230000B0F5803F06D1E748006840F48030E549E9
:10231000086028E0606858B9E248006820F480301E
:10232000E04908600846006820F4802008601AE050
:102330006068B0F5A02F0BD1DA48006840F4802027
:10234000D84908600846006840F4803008600AE018
:10235000D448006820F48030D249086008460068FC
:1023600020F48020086000BF606888B1FFF77CFD22
:10237000054606E0FFF778FD401B642801D90320DD
:1023800098E7C848006800F400300028F2D010E058
:10239000FFF76AFD054606E0FFF766FD401B64286F
:1023A00001D9032086E7BF48006800F40030002808
:1023B000F2D1207800F00200022857D1B9484068D5
:1023C00000F00C0050B1B748406800F00C0008283D
:1023D00018D1B448406800F4803098B9B14800681A
:1023E00000F0020020B12069012801D0012061E73E
:1023F000AC48006820F0F800616940EAC100A949D2
:10240000086033E02069E8B10120A7490860FFF7C0
:102410002BFD054606E0FFF727FD401B022801D9EA
:10242000032047E79F48006800F002000028F2D030
:102430009C48006820F0F800616940EAC1009949B1
:10244000086013E0002098490860FFF70DFD05467D
:1024500006E0FFF709FD401B022801D9032029E708
:102460009048006800F002000028F2D1207800F0C7
:10247000080008282DD1A069B8B101208B49086057
:10248000FFF7F2FC054606E0FFF7EEFC401B0228D2
:1024900001D903200EE78348406A00F002000028BB
:1024A000F2D0012000F05CFE13E000207F490860BC
:1024B000FFF7DAFC054606E0FFF7D6FC401B0228D2
:1024C00001D90320F6E67748406A00F002000028B0
:1024D000F2D1207800F00400042873D1002771485D
:1024E000C06900F0805070B900BF6E48C06940F00C
:1024F00080506C49C8610846C06900F08050009067
:1025000000BF00BF01276A48006800F48070B0B9BE
:102510006748006840F4807065490860FFF7A4FCD4
:10252000054606E0FFF7A0FC401B642801D9032004
:10253000C0E65F48006800F480700028F2D000BF59
:10254000E068012806D15748006A40F0010055496B
:10255000086227E0E06858B95248006A20F001009C
:10256000504908620846006A20F00400086219E039
:10257000E06805280BD14B48006A40F00400494947
:1025800008620846006A40F0010008620AE0454817
:10259000006A20F00100434908620846006A20F002
:1025A0000400086200BFE068A0B1FFF75DFC0546CB
:1025B00009E0FFF759FC401B41F28831884202D9FB
:1025C000032077E622E03748006A00F00200002886
:1025D000EFD012E0FFF748FC054608E0FFF744FCA7
:1025E000401B41F28831884201D9032062E62D4820
:1025F000006A00F002000028F0D1012F05D129481F
:10260000C06920F080502749C86100BFE069C8B3A5
:102610002448406800F00C00082860D0E0690228D7
:1026200048D1002020490866FFF71EFC054606E059
:10263000FFF71AFC401B022801D903203AE619488B
:10264000006800F000700028F2D1206AB0F5803FE9
:1026500007D11448406820F40030A16808431149AC
:102660004860D4E9080108430E49496821F474110F
:1026700008430C49486001200B490866FFF7F4FB4A
:10268000054607E03DE0FFF7EFFB401B022801D9BC
:1026900003200FE60348006800F000700028F2D025
:1026A0002FE000000010024000004242800442423D
:1026B00000700040002014490866FFF7D5FB05466E
:1026C00006E0FFF7D1FB401B022801D90320F1E50A
:1026D0000E48006800F000700028F2D111E0E069B7
:1026E000012800D1E6E50948466806F48031206AF1
:1026F000814204D106F47011606A814201D0012048
:10270000D8E50020D6E5000000004242001002405B
:1027100070B504462546681EB0F1807F01D30120C4
:102720000FE0681E4FF0E02148610F214FF0FF30AD
:1027300001F00AF900204FF0E021886107200861CC
:10274000002070BD704700002DE9F0470446206866
:1027500005682068C668206847694FF00008C146D0
:1027600005F00F08B8F1000F0AD105F0200038B1CC
:1027700006F0200020B1204600F0AEFEBDE8F08754
:10278000B8F1000F6DD007F0010018B906F4907091
:10279000002866D005F0010030B106F4807018B151
:1027A000E06B40F00100E06305F0040030B107F099
:1027B000010018B1E06B40F00200E06305F0020098
:1027C00030B107F0010018B1E06B40F00400E063A5
:1027D00005F0080030B107F0010018B1E06B40F0DF
:1027E0000800E063E06B68B305F0200028B106F054
:1027F000200010B1204600F06FFE20684069C0F351
:102800008019E06B00F0080010B9B9F1000F22D078
:10281000204600F0D5FD2068406900F04000B0B1CE
:102820002068406920F0400021684861606B50B129
:102830001748616B4863606BFFF716F810B1606B67
:10284000416B88470CE02046FFF77CFF08E02046FC
:10285000FFF778FF04E02046FFF774FF0020E063F5
:102860008CE705F0800030B106F0800018B12046FA
:1028700000F056FF82E705F0400030B106F040005E
:1028800018B1204600F0ACFD78E700BF76E7000005
:10289000AD33000810B504460CB9012010BDA06985
:1028A00000B100E000BF94F8390028B9002084F896
:1028B0003800204600F028F8242084F839002068E9
:1028C000C06820F400502168C860204600F058FE1F
:1028D0002068006920F49040216808612068406900
:1028E00020F02A00216848612068C06840F4005048
:1028F0002168C8600020E063202084F8390084F853
:102900003A000020CAE7000010B586B00446002057
:102910000290039004900590A749206888426AD1EC
:1029200000BFA648806940F48040A44988610846F9
:10293000806900F48040019000BF00BF00BF0846DE
:10294000806940F0040088610846806900F0040056
:10295000019000BF00BF48150290022003900320A1
:10296000059002A99648FFF7D9F84FF480600290CD
:1029700000200390049002A99148FFF7CFF89148F6
:10298000914908600020486000218F4881608021C3
:10299000C1600021016141618161C161FFF78AF875
:1029A00008B1FEF7D7FA00BF87486063446200BFF2
:1029B0008448143885490860102048600021834805
:1029C00081608021C1600021016141618161C1613B
:1029D000FFF770F808B1FEF7BDFA00BF7B4820632F
:1029E000446200BF002205212520FFF7D7FA2520E9
:1029F000FFF7C4FADDE07649206888426AD100BF5B
:102A00006E48C06940F400306C49C8610846C0692E
:102A100000F40030019000BF00BF00BF084680698D
:102A200040F0040088610846806900F004000190CD
:102A300000BF00BF042002900220039003200590F5
:102A400002A95F48FFF76AF808200290002003906F
:102A5000049002A95A48FFF761F85A4814305D49BA
:102A600008600020486000215A4881608021C160D0
:102A70000021016141618161C161FFF71BF808B16B
:102A8000FEF768FA00BF53486063446200BF4D48D8
:102A90002830514908601020486000214E4881606C
:102AA0008021C1600021016141618161C161FFF745
:102AB00001F808B1FEF74EFA00BF474820634462B0
:102AC00000BF002205212620FFF768FA2620FFF725
:102AD00055FA6EE04149206888426AD100BF374804
:102AE000C06940F480203549C8610846C06900F4D7
:102AF0008020019000BF00BF00BF0846806940F001
:102B0000080088610846806900F00800019000BF55
:102B100000BF08150290022003900320059002A92F
:102B20002F48FEF7FBFF4FF4006002900020039057
:102B3000049002A92A48FEF7F1FF224828382949C3
:102B40000860002048600021264881608021C16023
:102B50000021016141618161C161FEF7ABFF08B1F4
:102B6000FEF7F8F900BF1F486063446200BF1548D4
:102B70003C381D4908601020486000211A488160D7
:102B80008021C1600021016141618161C161FEF765
:102B900091FF08B1FEF7DEF900BF134820634462DD
:102BA00000BF002205212720FFF7F8F92720FFF7B3
:102BB000E5F906B010BD00000038014000100240E9
:102BC0000008014058000240B4220020F8220020F2
:102BD000004400403C2300208023002000480040A7
:102BE000000C0140C42300200824002070477047D7
:102BF00000BFFEE710B500F0F5FAFEF7AFF900F000
:102C00004BFB00F077FB00F0A3FB00F0F9F905485F
:102C1000FEF7F3FD02210348FEF73CFA00F05EFEEA
:102C200010BD0000CC210020C16841F02001C1602E
:102C3000704701460868C0F34010704701460868B5
:102C4000C0F3C010704701460868C0F3C010704759
:102C50000146C868C0F3401070474160704741604A
:102C60007047000038B50421C248FFF7E7F880BB81
:102C7000002427E0254604EBD5704010A4EB40006B
:102C8000C2B24FF40051BC48FFF7E7F804EBD5702F
:102C90004010A4EB4000C2B24FF48041B648FFF7A9
:102CA000DCF804EBD5704010A4EB4000C2B24FF446
:102CB0000041B148FFF7D1F84FF4967001F05CFE87
:102CC000601CC4B2052CD5DB0120AC49488005202E
:102CD0008880AA48808800282DDDA948007D20F042
:102CE0000400001DA64908750846007D20F001007B
:102CF000401C08750F21A248406961F35630A04975
:102D000048610846007DC0F34000D0B10846007D10
:102D100020F0020008759B480078C0F3001010B93D
:102D20009948407868B101209449488008468088D5
:102D3000401E888005E09248007D20F00400904904
:102D4000087500224FF480719048FFF786F890488C
:102D500090F8F20000F0010000284DD08C4890F867
:102D6000F10003280DDD8A48401CFDF7D4FB85B235
:102D70008748401C2B46022203210090012001F0CD
:102D8000DBFC002429E000217D48006861F3CC00D1
:102D90007B4908600846007820F002000870012096
:102DA00001F0EAFD641CB4F5FA7F0DD17848401CAF
:102DB000FDF7B1FB85B27648401C2B460222032169
:102DC0000090012001F0B8FC01F0A0FD714890F8DE
:102DD000F40000F0010000B102E0B4F57A7FD2DD2A
:102DE00000BF00F025FE6A4890F8F20020F00100D4
:102DF000674981F8F20000BF674890F8F20000F0E0
:102E0000010000285FD05F480078C0F30010002860
:102E100059D100215A48806861F3CC005849886034
:102E20000846007A20F0020008725B4890F8F10032
:102E300003280DDD5848401CFDF76DFB85B2564850
:102E4000401C2B46022203210090012001F074FC5B
:102E5000002429E000214A48806861F3CC004849F9
:102E600088600846007A20F002000872012001F014
:102E700083FD641CB4F5FA7F0DD14748401CFDF773
:102E80004AFB85B24448401C2B4602220321009095
:102E9000012001F051FC01F039FD3E4890F8F400AA
:102EA00000F0010000B102E0B4F57A7FD2DD00BF8E
:102EB00000F0D0FD384890F8F20020F001003649CB
:102EC00081F8F20000BF344890F8F20000F00100F1
:102ED00048B12C480078C0F3001020B100F0BAFDD2
:102EE00000202D49087001F011FD2A4890F8F400E7
:102EF00000F00100E8B30020264981F8F400002129
:102F00001F48406861F3CC001D4948601D480078A7
:102F1000C0F3001048B11E4890F8F20020F0020003
:102F2000801C1B4981F8F2000BE01748407840B143
:102F3000194890F8F20020F00200801C164981F830
:102F4000F20002F0E9FA4FF496721249891C134814
:102F5000FDF7C8FB0020114981F82C0110A10F4892
:102F600000F0CEFE012804D11048FDF791FA034984
:102F7000088038BD000C014000100140A000002076
:102F8000A4210020A7000020B80000200008014074
:102F9000E42500205E200020D72600204C240020BD
:102FA0002273657269616C223A0000007925002065
:102FB00010B51148407838B90F480078012803D17E
:102FC00081030E48FEF742FF0B480078012805D028
:102FD00000224FF480410948FEF73FFF0648407841
:102FE000012808D104480078012804D10122810376
:102FF0000248FEF732FF10BDB8000020001001406B
:1030000000B58FB000200B900C900D900E9000BF7B
:103010003C48C06940F000703A49C8610846C06940
:1030200000F00070009000BF00BF00BF084680693C
:1030300040F0080088610846806900F008000090B0
:1030400000BF00BF88150B9000200C900D900BA9BD
:103050002D48FEF763FD4FF400700B9002200C909A
:1030600003200E900BA92848FEF758FD00BF274902
:10307000486820F4C04040F0E06040F48040486080
:1030800000BF23482349086064204860002121488C
:103090008160C1604FF4402101614FF480114161B2
:1030A0000021017641768176C17601774177FEF77E
:1030B00070FA08B1FDF74EFF042203211420FEF739
:1030C0006DFF1420FEF75AFF042203211520FEF79E
:1030D00065FF1520FEF752FF012009900A20069097
:1030E0000020059001900290039004900790012029
:1030F000089000200A9001A90648FDF7E0FF0FB0F4
:1031000000BD000000100240000C01400000014022
:1031100000640040CC21002000BFFEE700BFFEE7B6
:10312000F0B503460C4603F00701C1F1070004287F
:1031300001D9042001E0C1F107000646081D072857
:1031400001D2002000E0C81E05460120B040401E0C
:103150002040A8400127AF407F1E17403843F0BDF4
:1031600008B508490968C9084FF47A72B1FBF2F151
:103170004143009100BF00BF00994A1E0092002900
:10318000F9D108BD1400002010B500F02DFD10BDD0
:1031900010B502F04BFA1248007920F00200801CB2
:1031A0000F4908714FF47A710D48406861F315308A
:1031B0000B4948600846007900F0010030B108462C
:1031C000007920F00100087102F0BAFAFEF752FE11
:1031D00003F056FA012801D002F0A4FE10BD000051
:1031E0005421002000B58FB0282105A8FDF753FA1F
:1031F00014216846FDF74FFA02200590012009903E
:1032000010200A9002200C9000210D914FF4C01163
:103210000E9105A8FFF74AF808B1FDF79BFE0F20B5
:103220000090022001900020029003900490012160
:103230006846FEF705FF08B1FDF78CFE0FB000BD34
:103240001148006840F001000F49086008464068D6
:103250000E4908400C494860084600680C4908407F
:10326000094908600846006820F480200860084684
:10327000406820F4FE0048604FF41F008860C803D7
:103280000449086070470000001002400000FFF889
:10329000FFFFF6FE08ED00E070B514481449086021
:1032A0004FF416504860002111488160C1600161EF
:1032B0000C21416100218161C161FFF7EBFA08B186
:1032C000FDF748FE0948FFF7AFFC00F035FB054667
:1032D00001221146FFF724FF04462146252000F075
:1032E00047FB252000F012FB70BD000000380140B4
:1032F000F421002070B51448144908604FF41650AA
:103300004860002111488160C16001610C21416168
:1033100000218161C161FFF7BDFA08B1FDF71AFE16
:103320000948FFF781FC00F007FB05460122114622
:10333000FFF7F6FE04462146262000F019FB262062
:1033400000F0E4FA70BD0000004400403422002088
:1033500070B51448144908604FF4E130486000210A
:1033600011488160C16001610C21416100218161CE
:10337000C161FFF78FFA08B1FDF7ECFD0948FFF7CF
:1033800053FC00F0D9FA054601221146FFF7C8FEAA
:1033900004462146272000F0EBFA272000F0B6FA79
:1033A00070BD0000004800407422002070B5054642
:1033B0006C6A0020E085E0842046FFF7C3F970BD09
:1033C0000168C96821F490710268D1600168496997
:1033D00021F0010102685161202180F83A10704704
:1033E00010B504462068C06820F040002168C8601D
:1033F000202084F839002046FFF7F9FB002010BD9B
:1034000070B505460E462846FDF785F81749086051
:10341000002400BF24E0032E09D1295D1448FFF7E2
:103420001CFC00BF1248FFF709FC0028FAD0022E4E
:1034300009D1295D0F48FFF710FC00BF0D48FFF7C9
:10344000FDFB0028FAD0012E09D1295D0A48FFF7BB
:1034500004FC00BF0848FFF7F1FB0028FAD0641C09
:10346000024800688442D6DB012070BD9C00002029
:1034700000480040004400400038014070B5054657
:103480000C46032C09D129461048FFF7E6FB00BF84
:103490000E48FFF7D3FB0028FAD0022C09D12946A9
:1034A0000B48FFF7DAFB00BF0948FFF7C7FB00280E
:1034B000FAD0012C09D129460648FFF7CEFB00BF00
:1034C0000448FFF7BBFB0028FAD070BD004800405D
:1034D000004400400038014070B5044694F83A00BA
:1034E00022284AD1A068B0F5805F13D1A56A20696F
:1034F00040B920684068C0F308002880A06A801C9A
:10350000A06219E020684068C0B22880A06A401C10
:10351000A06211E0206938B920684068C1B2A26A8F
:10352000501CA062117007E02068406800F07F0125
:10353000A26A501CA0621170E08D401E80B2E0852E
:10354000C8B92068C06820F020002168C8602068E1
:10355000C06820F480702168C8602068406920F04D
:10356000010021684861202084F83A002046FFF7D6
:103570003DFB002070BD0020FCE70220FAE70000C0
:1035800070B504462168096921F44051E26811438D
:10359000226811612269A1681143626941EA02054A
:1035A0002168C96841F20C62914329432268D160C5
:1035B0002168496921F44071A2691143226851616F
:1035C000564A2168914254D1FEF716FE00EBC00125
:1035D00001EB001162689200B1FBF2F100EBC00256
:1035E00002EB001263689B00B2FBF3F26423B2FBB0
:1035F000F3F202EBC20303EB0212A1EB82013222CF
:1036000002EB01116422B1FBF2F101F0F00100EBD9
:10361000C00202EB001263689B00B2FBF3F264236A
:10362000B2FBF3F201EB021200EBC00101EB00115F
:1036300063689B00B1FBF3F100EBC00303EB0013E5
:103640006668B600B3FBF6F36426B3FBF6F303EB50
:10365000C30606EB0313A1EB8301322303EB011135
:103660006423B1FBF3F101F00F0111442268916072
:1036700053E0FEF7B1FD00EBC00101EB0011626801
:103680009200B1FBF2F100EBC00202EB00126368A2
:103690009B00B2FBF3F26423B2FBF3F202EBC20332
:1036A00003EB0212A1EB8201322202EB0111642230
:1036B000B1FBF2F101F0F00100EBC00202EB0012ED
:1036C00063689B00B2FBF3F26423B2FBF3F201EBFD
:1036D000021200EBC00101EB001163689B00B1FB1B
:1036E000F3F100EBC00303EB00136668B600B3FB15
:1036F000F6F36426B3FBF6F303EBC30606EB031302
:10370000A1EB8301322303EB01116423B1FBF3F13D
:1037100001F00F0111442268916070BD0038014032
:10372000014691F8390021282CD18868B0F5805FD6
:103730000FD10A6A1088C0F308000B685860086946
:1037400018B9086A801C086209E0086A401C08620F
:1037500005E00B6A581C086218780B685860C88C22
:10376000401E80B2C88458B90868C06820F0800044
:103770000B68D8600868C06840F040000B68D860EB
:10378000002070470220FCE710B50B48FFF751FA04
:1037900068B10948FFF75CFA48B100BF06484068C5
:1037A000C0B2064908700846007800F0A5FF04483A
:1037B000FEF7CAFF10BD00000038014001000020E4
:1037C000F421002010B50B48FFF733FA68B109481F
:1037D000FFF73EFA48B100BF06484068C0B206494C
:1037E00008700846007801F0AFFE0448FEF7ACFF11
:1037F00010BD0000004400400200002034220020E0
:1038000010B50B48FFF715FA68B10948FFF720FA21
:1038100048B100BF06484068C0B206490870084673
:10382000007800F0B5F90448FEF78EFF10BD0000E7
:1038300000480040030000207422002010B5034817
:10384000FDF780FD01200249087010BDCC21002049
:103850000000002000BFFEE700BF1748007820F0FE
:103860000200801C144908704FF4967112480068D9
:1038700061F31530104908600846007800F0010037
:1038800088B10846007820F001000870FDF73CFA86
:10389000FDF7C4F9FFF78CFB012211460748FEF73C
:1038A000DCFA00F02BF800F09FF8FFF7DBF90120BD
:1038B00001F062F8D1E7000054210020001401401B
:1038C00000BF00F0DFFB012001F056F8F9E700BF70
:1038D000FDF74AFA012001F04FF8F9E745F255509B
:1038E00005490860042048604FF47A6088604CF60F
:1038F000CC40086070470000003000404AF6AA2023
:10390000014908607047000000300040002809DBD2
:1039100000F01F02012191404209920002F1E022D1
:10392000C2F800117047000002480068C0F302208E
:10393000704700000CED00E002480068C0F3022070
:10394000704700000CED00E010B5002804DB0A070A
:10395000130E054A135406E00A07140E034A00F03A
:103960000F031B1FD45410BD00E400E018ED00E06D
:1039700010B5002804DB0A07130E054A135406E0AD
:103980000A07140E034A00F00F031B1FD45410BD86
:1039900000E400E018ED00E0EFF311807047EFF372
:1039A00005807047EFF310807047000010B596B0A7
:1039B00009A102A8FCF7BEFC02A8FCF7ACFD84B28A
:1039C00002A82346022203210090012000F0B4FE49
:1039D00000F034FA16B010BD7B2273657269616C19
:1039E000223A223F222C7D0010B51048007920F0A9
:1039F0000400001D0D4908710846007920F00100FF
:103A0000401C087101210948406861F3563007499C
:103A1000486008460079C0F3400030B1084600799C
:103A200020F002000871FFF7C1FF10BDA4210020A3
:103A300010B5F0210548FCF70CFE00200449087081
:103A40000249491E087081F8F10010BDE5250020EB
:103A5000A600002010B5F0210548FCF7FAFD002073
:103A6000044908700249491E087081F8F10010BD30
:103A7000D8260020B000002010B5F0210348FCF744
:103A8000E8FD0020014981F8F00010BDCA270020A0
:103A900000B595B0FFF7CCFF064807A1426801A822
:103AA000FCF748FC032101A8FFF7AAFC00F01EFA6E
:103AB00015B000BDA80000207B2273657269616C9F
:103AC000223A222564227D0000B595B0FFF7B0FFB1
:103AD000064807A1426801A8FCF72CFC032101A8B5
:103AE000FFF78EFC00F002FA15B000BDA800002020
:103AF0007B2273657269616C223A222564222C2232
:103B0000656E5F75736572223A2231227D00000076
:103B100000B595B0FFF78CFF064807A1426801A8E1
:103B2000FCF708FC032101A8FFF76AFC00F0DEF9AE
:103B300015B000BDA80000207B2273657269616C1E
:103B4000223A222564222C2254455354223A22310F
:103B5000227D000010B564200A4908800A4890F8C8
:103B6000F200C0F3400058B1074890F8F20020F08E
:103B70000200054981F8F20003210448FFF740FCE8
:103B800010BD0000A0000020E425002060200020DF
:103B900010B504467B2C02D1012011490870104851
:103BA0000078012813D10F4890F8F110401C4454BC
:103BB000401E90F8F100401C0A4981F8F1007D2C6C
:103BC00005D1022006490870012006490870054801
:103BD00090F8F100F02801DBFFF72AFF10BD00008C
:103BE000A6000020E4250020002000BF21E00022E4
:103BF000374951F8201062F31531354A42F8201048
:103C0000114611F8201021F0020102F8201011468F
:103C100011F8201021F0010102F8201000222C4997
:103C200051F8201062F38B01294A42F82010411C00
:103C300088B20A28DBDB002019E0264911F82010A1
:103C400021F00201234A02F82010114611F8201039
:103C500021F0010102F8201000221E4951F8201025
:103C600062F38B011B4A42F82010411C88B20A28DB
:103C7000E3DB002029E0184911F8201021F00401AD
:103C8000154A02F820100022134951F8201062F35F
:103C90005631114A42F82010114611F8201021F037
:103CA000010102F82010114611F8201021F0020144
:103CB00002F820100022084951F8201062F3CC01CC
:103CC000054A42F82010411C88B20A28D3DB70470D
:103CD000542100207C210020A421002070B506463C
:103CE0000C462146304601F093FC0546002D04DBCE
:103CF0002046FCF710FC284470BD4FF0FF30FBE776
:103D0000FEB505460F4664212248FCF7A2FC394661
:103D10002846FFF7E3FF0646701C08B90020FEBDE9
:103D20000024A85D222818D106E03019401C295C27
:103D300018480155601CC4B2701C2044285C2C2813
:103D400006D0701C2044285C222801D0632CECD3C0
:103D50000021104801550120E1E70020009001906A
:103D6000029005E03019285C0DF80400601CC4B214
:103D70003019285C2C2805D03019285C7D2801D00A
:103D8000092CEFD36846FCF783FB0349C1F8940183
:103D90000220C4E7792500204C2400201CB5FEF742
:103DA00075F8FEF727FFFFF7EFF90022022115480B
:103DB000FEF753F80020012103466422CDE90010EC
:103DC00011A1144802F0CEFB002001210346642219
:103DD000CDE9001010A1134802F0C4FB002001211E
:103DE00003466422CDE900100FA1134802F0BAFB8C
:103DF00001F0F4FE00224FF480710248FEF72DF826
:103E000000201CBD000801407461736B5F77696618
:103E100069000000CF3800087461736B5F73696DCF
:103E200000000000C13800087461736B5F61647644
:103E3000616E6365000000005938000810B54FF44A
:103E4000FA6001F077FF38B92148007820F00200CD
:103E5000801C1F4908702AE01D48007820F00200ED
:103E60001B49087001F058FBF0221A491A48FCF768
:103E70002EFB1AA11848FFF743FF012810D11A485A
:103E8000FCF706FB124948600846007820F0020063
:103E900008700846007820F00100401C087006E019
:103EA0000B48007820F00200801C0949087008487F
:103EB0000078C0F3400028B10548007820F00100E8
:103EC0000349087000200349891E81F8F40010BDE1
:103ED000A8000020602000204C240020227365727E
:103EE00069616C223A0000007925002010B54FF47A
:103EF000FA5001F039FF38B94F48007820F001003E
:103F0000401C4D49087045E04B48007820F0010006
:103F10004949087001F000FBF02248494848FCF785
:103F2000D6FA48A14648FFF7EBFE012821D148A167
:103F30004948FCF703FC38B93F48007820F00200FC
:103F4000801C3D49087005E03B48007820F00200E5
:103F50003949087041A14048FCF7F0FB30B93648B8
:103F6000007820F00800083033490870FFF760FD42
:103F700010E03148007820F002002F490870084610
:103F8000007820F0080008700846007820F0100043
:103F90001030087028480078C0F3C00048B926489F
:103FA000007800F0010020B923480078C0F34000F9
:103FB00030B12148007820F010001F49087039E026
:103FC0001D48007820F0100010301B49087025A112
:103FD0001B48FFF795FE012802D1FFF729FD29E0D4
:103FE00023A11748FFF78CFE002818DD1348401E58
:103FF00090F8F20020F004001049491E81F8F20008
:1040000000211F48006961F3CC001D490861084682
:10401000007C20F002000874FFF70AFD0AE0074860
:10402000401E90F8F20020F00100401C0349491E98
:1040300081F8F20010BD0000A7000020E525002057
:104040004C240020226572726F72223A0000000038
:104050007769666900000000792500206D7174742D
:10406000000000002240656D707479223A00000063
:10407000225345525645525F54455354223A00004C
:10408000A421002010B5A6B0F4480078082806DA6C
:10409000F34890F8F200C0F38000002837D00020E9
:1040A000EE490870EE4890F8F20020F00400EC4968
:1040B00081F8F20000220221EA48FDF7CEFE4FF41B
:1040C0007A7000F059FC01220221E648FDF7C5FE96
:1040D0004FF47A7000F050FC01221146E148FDF7E0
:1040E000BCFE4FF47A7000F047FC00220121DD484D
:1040F000FDF7B3FE0020DC494870087044F62061EB
:10410000DAA001F047FE4FF4FA6000F035FCD8A0C9
:1041100001F00CFA642000F02FFCD6A001F006FAA2
:10412000642000F029FCD5A001F000FA41F28831AA
:10413000D5A001F02FFECC490870642000F01CFCD3
:10414000C948007801287DD1D148007800F00100ED
:10415000002877D0CF480078C0F300100028F2D1B3
:10416000CDA001F0E3F941F28831D5A001F012FEB3
:10417000BD494870D5A001F0D9F941F28831D7A0E6
:1041800001F008FEB84948704FF4FA7000F0F4FBF3
:10419000B5484078002827D0D4480288D4A10DA87B
:1041A000FCF7C8F80DA801F0C1F941F28831D8A098
:1041B00001F0F0FDAC4948704FF47A7000F0DCFB80
:1041C000D7A001F0B3F9642000F0D6FB4FF4FA70E9
:1041D00000F0D2FBAE48D4A142680DA8FCF7AAF8C3
:1041E0000DA800F05BFA00BF0024F5E09C4890F8B1
:1041F000F200C0F34000E0B1994890F8F20020F0DE
:104200000200974981F8F200A148CAA1426819A8A2
:10421000FCF790F8C94919A800F0C4F90021C84872
:10422000806861F3CC00C6498860642000F0A4FB7C
:1042300000BF012000F0A0FB8948007800F00100D9
:1042400050B300E0DAE00021BD48806861F3CC00A3
:10425000BB4988600846007A20F002000872B9A1C4
:104260007F48401CFFF74CFD002816DD7C4890F885
:10427000F20020F004007A4981F8F2000021B048F1
:10428000C06961F3CC00AE49C8610846007F20F0E8
:1042900002000877FFF7DEFB08E0714890F8F200B3
:1042A00020F00100401C6E4981F8F200A448007A19
:1042B00020F00400001DA24908720846007A20F090
:1042C0000100401C087204219D48806861F356304B
:1042D0009B4988600846007AC0F34000A8B10846B0
:1042E000007A20F002000872694892A1426819A879
:1042F000FCF720F8664897A142686846FCF71AF870
:10430000694619A800F04EF900BF8D48007E20F0E4
:104310000400001D8A4908760846007E20F001004E
:10432000401C087664218648806961F356308449D0
:1043300088610846007EC0F3400078B10846007EE0
:1043400020F002000876524886A142680DA8FBF7CB
:10435000F1FF0DA98AA000F025F900BF634840884D
:1043600090B14C480078C0F3001068B900205F4954
:104370004880474883A1426812A8FBF7DBFF12A9D7
:104380007FA000F00FF900BF6D48007F20F004000F
:10439000001D6B4908770846007F20F00100401C93
:1043A00008774FF4AF716648C06961F356306449CD
:1043B000C8610846007FC0F3400068B10846007F2E
:1043C00020F002000877264890F8F20020F0040060
:1043D000001D234981F8F2002348407801280CD1C0
:1043E0001F4890F8F200C0F3800030B929480078E7
:1043F000C0F3001000283FF4F9AE00BF0BE000222C
:1044000002211848FDF729FD00201749487008705F
:104410000820124908701F480078C0F300100028D7
:10442000EDD11148407890B94548007F20F0040054
:10443000001D4349087700214148C06961F3CC0061
:104440003F49C8610846007F20F002000877034812
:104450000078401C0149087026B010BDBA00002049
:10446000D726002000080140B8000020534D53001B
:1044700041540A00415445310A00000041542B4385
:1044800050494E3F0A000000524541445900000087
:10449000A8000020A700002041542B514D544F503C
:1044A000454E3D302C2272617669732D67736D2EF7
:1044B0006972222C2231383833220A0D00000000A4
:1044C0002B514D544F50454E0000000041542B518C
:1044D0004D544F50454E3F200A0000002B2B514DAC
:1044E000544F50454E3A20302C300000A0000020A0
:1044F00041542B514D54434F4E4E3D302C22636C52
:1045000069656E744578616D706C652564220A007A
:104510002B514D54434F4E4E3A20302C302C30000E
:10452000415445300A0000007365727665722F258C
:104530006400000067736D2F256400006020002078
:10454000A4210020225345525645525F54455354EE
:10455000223A00007B2273657269616C223A22253F
:1045600064227D007B2273657269616C223A222588
:1045700064222C2254455354223A2231227D0000D9
:1045800067736D007B2273657269616C223A222524
:1045900064222C22656E5F75736572223A22312285
:1045A0007D000000F0B58DB006460D46324630A1C4
:1045B0006846FBF7BFFE684600F0B8FF642000F0D5
:1045C000DBF92846FBF7A7FF0746002400BF0AE0F7
:1045D000295D2E48FEF743FB00BF2C48FEF733FB56
:1045E0000028FAD0641CBC42F2DB02211A20FEF73C
:1045F00045FF4FF47A6001F0F9FB41F2883124A0C5
:1046000001F0C8FB012802D1234948702DE0324651
:1046100017A16846FBF78EFE684600F087FF64200E
:1046200000F0AAF92846FBF776FF0746002400BFF2
:104630000AE0295D1548FEF712FB00BF1348FEF79C
:1046400002FB0028FAD0641CBC42F2DB02211A20D3
:10465000FEF714FF4FF47A6001F0C8FB41F2883195
:104660000BA001F097FB0C4948700DB0F0BD0000A5
:1046700041542B514D545055423D302C302C302C50
:10468000302C222573220A0D000000000044004057
:10469000514D545055420000B800002010B59AB05A
:1046A000044622460BA101A8FBF744FE01A800F036
:1046B0003DFF052000F060F94FF47A6001F096FBB1
:1046C00041F2883109A001F065FB0A4948701AB02F
:1046D00010BD000041542B514D545355423D302CD8
:1046E000312C222573222C320A000000514D5453E4
:1046F00055420000B80000200D4991F8F120491CF6
:104700008854491E91F8F110491C094A82F8F110A9
:10471000114691F8F110C82902DD002182F8F1104C
:1047200000220449096962F38B01024A1161704752
:10473000581F0020542100202DE9F05F8046894653
:1047400017461D46DDF828A005F1140B5846FBF767
:104750009BFD0446002684F8008084F801903812FE
:10476000A070E77028122071657100BF04E01AF88C
:104770000610B01D2154761CAE42F8DBA91D204660
:10478000FCF772FA1249088008460178A81D2154E6
:104790000F4800880112E81D215400260FE0012275
:1047A00011020C48FDF759FBA05D0121FEF766FEE2
:1047B00000224FF480710748FDF74FFB761C05F18E
:1047C00009008642EBDB2046FBF78DFDBDE8F09F3C
:1047D000900000200008014010B5454840780128AD
:1047E0002DD143488078022829D141480179C078E9
:1047F00001EB00203F4908803D4840793E49087060
:104800003B488179C07901EB00203C4908800521B3
:104810003748401CFCF728FA3949088008460088C8
:1048200036490988884208D13248007835490870ED
:10483000314800784870012010BDFF20FCE72C486B
:104840004078012850D12A48807803284CD1284844
:104850000179C07801EB002026490880244881793D
:10486000407901EB0020284908802148401C098834
:10487000891D425C24490988C91D405C02EB002067
:104880001E49088020480088811D1948401CFCF7FB
:10489000EBF91B49088008460088184909888842B6
:1048A00024D119480088C82820DAF0211548801C36
:1048B000FBF7CFFE002007E00D49491C821D8A5CF2
:1048C0001049891C0A54401C0F4909888842F3DBAF
:1048D0000D4800880B49A1F8F200064800780870DE
:1048E000012081F8F40001E00020A5E700BFA3E764
:1048F000581F002092000020940000209600002005
:10490000980000205E2000209A00002010B5184872
:1049100090F8F100002807DD1648007C20F0020026
:10492000801C1449087405E01248007C20F0020045
:104930001049087432210F48006961F315300D49A0
:1049400008610846007C00F0010078B10846007C50
:1049500020F001000874FFF73FFFF0210448401CDD
:10496000FBF777FE0020024981F8F10010BD00003E
:10497000581F00205421002070B50546FFF70FF89E
:1049800048B9FFF70FF830B908480068022805D188
:10499000FFF702F810B16FF0050404E0002415B130
:1049A000284601F09FF8204670BD000068000020F6
:1049B0002DE9F04105460E4616480768164800687E
:1049C000001D00F00FFF681C38B936B112480168AD
:1049D000091D124800F05CFF1AE07C190E480068BF
:1049E0004460BC4207D20C480168091D0C480068AD
:1049F00000F034FF0CE008480168091D0948006810
:104A000000F02CFF08480068844201D20648046088
:104A1000BDE8F0812C00002018000020D405002003
:104A2000200000201C0000204800002010B5044693
:104A300000F03AFF24480068401C234908602348DE
:104A4000006840B9214804600846006801280DD17B
:104A500000F0F8F90AE01E48006838B91B48006801
:104A6000C06AE16A884201D81848046019480068A1
:104A7000401C184908600846006860641649E06AEE
:104A80000968884202D91449E06A0860E16A01EBCA
:104A90008101124A02EB8100211D00F0F9FE00F0B5
:104AA0002DFF0B48006868B108480068C06AE16AD9
:104AB000884207D24FF0805009490860BFF34F8FFA
:104AC000BFF36F8F10BD00002800002018000020E9
:104AD0003400002044000020300000202401002089
:104AE00004ED00E008B500F0DFFE12480068E8B908
:104AF000114800F0A3FE114800F0A0FE0E48104936
:104B000008600E480F49086000200F4B0F4A102123
:104B100000900A2001F020FA064908600846006863
:104B200020B10BA10348006800F0A0FF00F0E6FEF2
:104B300008BD00005C000020E8050020FC05002006
:104B400054000020580000201006002060060020BD
:104B5000546D72510000000010B516E000F0A4FE84
:104B60000C48C068C468201D00F03CFE0A4800687C
:104B7000401E0949086009480068401E074908604E
:104B800000F0BCFE204600F05EF8044800680028F3
:104B9000E4D110BDC0050020280000202400002022
:104BA00070B504460D46206C70B1216CE068084475
:104BB000E0606168E068884201D32068E0602846D0
:104BC000226CE168FBF7C6FC70BD2DE9F04104469C
:104BD0000F4615464FF00008A66B206C40B92068C0
:104BE00060BB606801F004FE80460020606025E044
:104BF0007DB93946226CA068FBF7ACFC216CA0683B
:104C00000844A060D4E90110884217D32068A0604E
:104C100014E03946226CE068FBF79CFC216CE068EC
:104C2000401AE0602168E068884203D2216C606825
:104C3000401AE060022D01D106B1761E701CA063FF
:104C40004046BDE8F08110B5044694F8590030B9EB
:104C5000206B00F071FE204600F06EFE1AE094F822
:104C60005900012803D1204600F066FE12E094F8B6
:104C70005900022801D1012000E0002050B900BFF6
:104C8000502080F31188BFF34F8FBFF36F8F00BFA9
:104C900000BFFEE710BD00000146084A1268126816
:104CA0000AB9012200E000220A600A6822B9034A18
:104CB0001268D268106800E000207047540000209D
:104CC00030B54FF47A63174800F007042CB1C01DCB
:104CD00020F00700134C041B1B1B0246124C2260E1
:104CE0000024114D6C60D018083820F007000F4CDC
:104CF000206000240D4D2D686C600C4D2D682C60DB
:104D00001146441A4C60094C24680C60084D4C68EC
:104D10002C60084D4C682C604FF00044064D2C6010
:104D200030BD0000B80F00206C000020740000208F
:104D30007C000020780000208000002000BFFFF7EA
:104D40000BFF064800680128F9D94FF0805004494C
:104D50000860BFF34F8FBFF36F8FF0E7240100208F
:104D600004ED00E02DE9F04106460D461746984651
:104D7000069C0DB9246000E02760E66325640121EC
:104D8000204601F059F984F84C80BDE8F0812DE906
:104D9000F05F82460F4690469B460A9E0C9C4FEA67
:104DA0008801A522206BFBF74CFCA8F10100216BC8
:104DB00001EB800929F0070909F0070008B9012073
:104DC00000E0002050B900BF502080F31188BFF3ED
:104DD0004F8FBFF36F8F00BF00BFFEE7002507E0D6
:104DE000795D04F134004155785D00B902E06D1C35
:104DF000102DF5D300BF002143200155382E00D3DC
:104E00003726E662E66400202065201D00F023FDC1
:104E100004F1180000F01FFD2461C6F13800A06104
:104E200064620020606584F858005A46514648463E
:104E300000F042FB20600B9808B10B980460BDE8BD
:104E4000F09F000010B5002407E004EB84010F4A36
:104E500002EB810000F0F2FC641C382CF5D30C4806
:104E600000F0ECFC0B4800F0E9FC0B4800F0E6FC1D
:104E70000A4800F0E3FC0A4800F0E0FC0448094955
:104E8000086004480849086010BD000024010020A3
:104E90008405002098050020AC050020C0050020F6
:104EA000D40500201C0000202000002010B5014681
:104EB000164800E0006803688B42FBD30246436853
:104EC00013448B4204D143684C6823444360014639
:104ED0000A464B6813440468A34211D10C4C036882
:104EE0002468A34208D04B680468646823444B607C
:104EF00003681B680B6005E0054B1B680B6001E055
:104F000003680B60884200D0016010BD6C00002077
:104F1000740000202DE9F04104460D4616461F4658
:104F20004FF0000865602461B5420CD8F01BA16900
:104F3000884202D34FF0010811E0211D09480068A2
:104F400000F08CFC0BE0BE4204D2BD4202D34FF015
:104F5000010804E0211D0448006800F07FFC404681
:104F6000BDE8F081580000205400002070B50546CF
:104F700000F09AFCA86B08B9012400E0002400F0BE
:104F8000BDFC204670BD70B5054600F08DFCA86BD9
:104F9000E96B884201D1012400E0002400F0AEFC5E
:104FA000204670BDF8B505460F4616480068C06833
:104FB000C468201D00F016FCE06901281DD1A0691D
:104FC00041192B463A462046FFF7A4FFA8B100201E
:104FD00003462A4601460090204601F065FD06463C
:104FE00056B900BF502080F31188BFF34F8FBFF335
:104FF0006F8F00BF00BFFEE700BF2046616A884791
:10500000F8BD000054000020F0B587B082E003989E
:10501000002811DA04AE56B900BF502080F3118881
:10502000BFF34F8FBFF36F8F00BF00BFFEE7D6E91E
:105030000020B168904700BF039800286ADB059CF8
:10504000606908B9012000E0002010B9201D00F0BF
:10505000C9FB02A800F0C0F8054603980A2857D2F9
:10506000DFE800F009050731334F0608323400BF8E
:1050700000BF00BF00BF0498A269811803462A46FA
:105080002046FFF747FFE8B12046616A8847E0699C
:10509000012817D1002000900498A169421800232C
:1050A0001946204601F000FD074657B900BF5020C1
:1050B00080F31188BFF34F8FBFF36F8F00BF00BF26
:1050C000FEE700BF25E000BF23E000BF0498A06119
:1050D000A06908B1012000E0002050B900BF5020B5
:1050E00080F31188BFF34F8FBFF36F8F00BF00BFF6
:1050F000FEE7A06941192B462A462046FFF70AFF22
:1051000007E094F82C0010B9204600F015FC00E0F0
:1051100000BF00BF002203A90448006801F028F97D
:1051200000287FF474AF07B0F0BD00005C000020E1
:10513000F8B505460C4600F0ADFD684600F04CF8A9
:105140000646009820BB44B9B54206D801F0EEFBF4
:1051500031462846FFF726FF1CE03CB10E480068A8
:10516000006808B9012000E000200446A91B22467F
:105170000A48006800F090FC01F0D8FB50B94FF0ED
:10518000805007490860BFF34F8FBFF36F8F01E076
:1051900001F0CCFBF8BD0000580000205C000020AE
:1051A00004ED00E00A490968096809B9012100E035
:1051B000002121B14FF0FF31064A116006E0044999
:1051C0000968C968C868034A4168116070470000EF
:1051D0001C0000204800002070B5044601F060FA71
:1051E000054607480068854204D200F00BF801200C
:1051F000206001E00020206001480560284670BD65
:10520000640000202DE9F84332E024480068C068BB
:10521000056822480068C068C468201D00F0E2FAF2
:105220002046616A8847E069012821D1A0694619B2
:10523000AE4207D966602461211D1848006800F05D
:105240000DFB15E0002003462A460146009020464B
:1052500001F02AFC074657B900BF502080F311889F
:10526000BFF34F8FBFF36F8F00BF00BFFEE700BFDC
:105270000A480068006808B9012000E00020002802
:10528000C3D00648D0F8008005480068034908608C
:105290000348C0F80080BDE8F883000054000020F7
:1052A000580000200E480068401C08B9012000E0AA
:1052B000002050B900BF502080F31188BFF34F8FFA
:1052C000BFF36F8F00BF00BFFEE700BF502080F329
:1052D0001188BFF34F8FBFF36F8F00BF00BFFEE792
:1052E0008400002008B500BF6846FFF7D5FC0446DF
:1052F00020460099FFF71CFFFFF786FEF4E770B524
:10530000044600F0D1FA94F9455010E0606A08B9FB
:10531000012000E0002038B904F1240001F0BAFABD
:1053200018B100F019FC00E003E0681E45B2002D42
:10533000ECDC00BFFF2084F8450000F0DFFA00F04D
:10534000B3FA94F9445010E0206908B9012000E054
:10535000002048B904F1100001F09CFA08B100F0F7
:10536000FBFB681E45B200E001E0002DECDC00BF55
:10537000FF2084F8440000F0C1FA70BD2DE9F0412F
:1053800004464FF0000800F085FC4648006808B964
:10539000FFF796FC44480068204000286BD1D4B148
:1053A000083404F00700B0B104F00700C0F10800B1
:1053B000044404F0070008B9012000E0002050B9BF
:1053C00000BF502080F31188BFF34F8FBFF36F8F62
:1053D00000BF00BFFEE7002C4DD034480068844277
:1053E00049D8334E3046056801E02E462D6868687E
:1053F000A04202D228680028F7D12A4800688542D6
:1054000039D0306800F10808286830606868001BEF
:10541000102819D92F1907F0070008B9012000E05A
:10542000002050B900BF502080F31188BFF34F8F88
:10543000BFF36F8F00BF00BFFEE76868001B786096
:105440006C603846FFF732FD184968680968081A29
:10545000164908600846006816490968884203D260
:1054600012480068134908600F49686809680843D2
:1054700068600020286001F059FA08F0070008B9B8
:10548000012000E0002050B900BF502080F31188B7
:10549000BFF34F8FBFF36F8F00BF00BFFEE74046E3
:1054A000BDE8F0817400002080000020780000201A
:1054B0006C0000207C000020001F4FF08073036010
:1054C000001F21F001030360001F034B0360143829
:1054D0000260203870470000A55200080D4800788F
:1054E00020F004000B4908700846007820F00800FE
:1054F00008700846007820F001000870084600781F
:1055000020F0020008700846007820F010000870B3
:1055100070470000A700002010B540F22D1102488E
:10552000FBF7B9F810BD00004C24002010B504466C
:10553000FEF7A2FA02212046FDF762FF4FF47A60DF
:1055400000F054FC10BD00007B2802D101212C4A40
:1055500011702B49097801291FD12A4991F8F120AE
:10556000491C8854491E91F8F110491C254A82F8BB
:10557000F1107D2811D10221214A1170214991F8A1
:10558000F110032903DD01211E4A117005E00021FD
:105590001C4A82F8F1101A4A11701A4991F8F11058
:1055A000F02903DB0021174A82F8F1101649097E21
:1055B00021F00201891C144A1176002212498969DE
:1055C00062F38B01104A916105220F49896962F3E8
:1055D00015310D4A91610D4991F8F0100B4A505464
:1055E000114691F8F010491C82F8F010114691F81C
:1055F000F010F02902DB002182F8F0107047000063
:10560000B0000020D726002054210020CA27002007
:1056100070B504460E4631462046FAF746FF054669
:105620000DB1281B70BD4FF0FF30FBE708B500201F
:1056300000903EE04048009910F82100C0F340007F
:1056400058B33D49009A01EB820001688908491C62
:10565000026861F38B0202603748009950F821001C
:10566000C0F389003449009A51F82210C1F309317E
:1056700088421BDD3049009A01EB8200002201685C
:1056800062F38B0101602C49009A01EB82000178E2
:1056900021F00101491C017008E02749009A01EB43
:1056A00082000022016862F38B0101600098401CB7
:1056B000009000980A28BDDB0020009038E01F48C9
:1056C000009910F82100C0F3400028B31B4800994E
:1056D00050F82100C0F3890000280BDD1749009A1B
:1056E00001EB820001688908491E026861F38B02A0
:1056F00002601AE01149009A01EB8200017821F062
:10570000020101700D49009A01EB8200017821F03D
:105710000101491C017008E00849009A01EB820070
:105720000022016862F38B0101600098401C009028
:1057300000980A28C3DB08BD542100207C210020EA
:10574000002000BF49E0264911F82010C1F3800174
:10575000B9B3234951F82010C908491C204A52F80E
:10576000202061F3CC021E4941F8202051F820107E
:10577000C1F3C9011A4A52F82020C2F349329142BA
:1057800029DD174911F8201001F0010139B9144938
:1057900011F8201021F00401114A02F82010002213
:1057A0000F4951F8201062F3CC010D4A42F8201045
:1057B000114611F8201021F00201891C02F8201076
:1057C00009E0FFE70022064951F8201062F3CC01FE
:1057D000034A42F82010411C88B20A28B3DB704704
:1057E000A421002001460A69D1E901309860D1E97D
:1057F000010358605068884201D1886850600020D9
:1058000008611068401E106010687047034B036009
:10581000034B0B604FF48073136070470007002048
:105820005C070020034B0360034B0B604FF4807355
:10583000136070475C0B0020B80B002000F10801DA
:1058400041604FF0FF31816000F10801C1600161EA
:1058500000210160704700210161704710B50246C8
:105860000B685C1C0CB9106907E002F1080000E04D
:105870004068446824689C42FAD944684C604C688B
:10588000A160886041600A611468641C146010BDE6
:1058900042684A6093688B609368596091600861C0
:1058A00003685B1C0360704700BF502080F31188C1
:1058B000BFF34F8FBFF36F8F00BF0E480068401CCF
:1058C0000C49086008460068012812D10A4800689F
:1058D000C0B208B9012000E0002050B900BF50203C
:1058E00080F31188BFF34F8FBFF36F8F00BF00BFEE
:1058F000FEE770478400002004ED00E00D480068DA
:1059000050B900BF502080F31188BFF34F8FBFF311
:105910006F8F00BF00BFFEE706480068401E0549C4
:1059200008600846006820B9002080F3118800BF95
:1059300000BF70478400002070B506463546002E33
:105940003FD0083D2C461F4960680968084008B1EF
:10595000012000E0002050B900BF502080F31188E2
:10596000BFF34F8FBFF36F8F00BF00BFFEE720680C
:1059700008B9012000E0002050B900BF502080F39A
:105980001188BFF34F8FBFF36F8F00BF00BFFEE7DB
:105990000C4960680968084098B1206888B90949CD
:1059A000606809688843606000F074F906496068BF
:1059B00009680844044908602046FFF777FA00F0B8
:1059C000B5FF70BD800000207800002000204FF05F
:1059D000E02108618861064800684FF47A71B0FBE5
:1059E000F1F0401E4FF0E021486107200861704748
:1059F0001400002070B5FAF723FC0446102C16D3CF
:105A000004F1E02090F8F05315480078854201DB5E
:105A1000012000E0002050B900BF502080F3118821
:105A2000BFF34F8FBFF36F8F00BF00BFFEE70D487E
:105A3000006800F4E0600C490968884201D8012040
:105A400000E0002050B900BF502080F31188BFF360
:105A50004F8FBFF36F8F00BF00BFFEE770BD000028
:105A6000880000200CED00E08C00002002460020A1
:105A70000BE0084B53F8303033B9064B43F8301085
:105A800003EBC0035A6002E0401C0828F1D300BFBA
:105A900070470000E40000202DE9F04105460E4665
:105AA00017462C46FFF700FF94F94400401C10B93C
:105AB000002084F8440094F94500401C10B90020EF
:105AC00084F84500FFF71AFFA06B28B93A46314623
:105AD00004F1240000F062F82046FFF710FCBDE856
