:020000040800F2
:100000000830002045020008D92D0008E129000829
:10001000D52D0008710B0008113500080000000004
:10002000000000000000000000000000AD0100081A
:10003000290C000800000000F10100084D2E000806
:100040005F0200085F0200085F0200085F0200080C
:100050005F0200085F0200085F0200085F020008FC
:100060005F0200085F0200085F0200085F020008EC
:10007000C90B0008D90B0008E90B0008F90B0008B0
:10008000090C0008190C00085F0200085F02000854
:10009000F9340008750B00085F0200085F020008D1
:1000A0005F0200085F0200085F0200085F020008AC
:1000B0005F0200085F0200085F0200085F0200089C
:1000C0005F0200085F0200085F0200085F0200088C
:1000D0005F0200084534000881340008BD34000880
:1000E0005F0200085F0200085F02000800F002F8EB
:1000F00000F04CF80AA090E8000C82448344AAF176
:100100000107DA4501D100F041F8AFF2090EBAE873
:100110000F0013F0010F18BFFB1A43F0010318473B
:100120001C5F00003C5F0000103A24BF78C878C113
:10013000FAD8520724BF30C830C144BF04680C60ED
:10014000704700000023002400250026103A28BF35
:1001500078C1FBD8520728BF30C148BF0B60704739
:10016000642900F02D81002070471FB59DE8030031
:1001700000F0F0FA00F076FC04000020002105F009
:100180003BFF401C60601FBD10B510BD00F045FC7A
:100190001146FFF7EAFF03F00FFC00F075FC03B413
:1001A000FFF7F2FF03BC00F0A5FC0000224B19682A
:1001B0000868B0E8F00F80F30988BFF36F8F4FF045
:1001C000000080F311884EF00D0E70470000000013
:1001D00006480068006880F3088862B661B6BFF31D
:1001E0004F8FBFF36F8F00DF00BF00BF08ED00E04F
:1001F000EFF30980BFF36F8F0F4B1A6820E9F00F00
:10020000106008B54FF0500080F31188BFF34F8F96
:10021000BFF36F8F04F0F8FF4FF0000080F31188F8
:10022000BDE8084019680868B0E8F00F80F3098855
:10023000BFF36F8F704700BF18000020EFF30580F9
:10024000704700000948804709480047FEE7FEE77D
:10025000FEE7FEE7FEE7FEE7FEE7FEE7FEE7FEE776
:1002600004480549054A064B70470000FD2E00086A
:10027000ED000008082A002008300020082C00208B
:10028000082C002070B5064600F044FA056806F117
:100290000B0020F00704B4429CBF002070BD2B4629
:1002A0006A68BAB11068A04210D304F1080188420C
:1002B0003CBF5068586007D35168101941601168FD
:1002C000091B016058601460101D70BD1346526810
:1002D000002AE7D12146284600F028FA0028DED17E
:1002E00070BD70B50446051F00F014FA0068002CBC
:1002F00014BF446870BD002C18BFAC423CBF204600
:100300006468F8D301680A18AA4218BF456003D18F
:100310002A6805461144016028684119A1421CBFA2
:100320006C6070BD6168696021680844286070BDB8
:100330000FB41CB5074B06AA7B446946009005988C
:1003400000F09DFA0020694600F0ACFA1CBC5DF894
:1003500014FB0000690500002DE9F0410E4604463B
:10036000002020622046E168884730B3252805D068
:10037000D4E901219047206A401CF2E7E168204659
:1003800000278847050018D0A5F14100192802D898
:1003900020354FF400673246294620462760FFF794
:1003A000DFFE40B1012804D0F61D26F0070608360E
:1003B000D8E7361DD6E72846DAE7206ABDE8F0819F
:1003C0002DE9F0410646002410687529314616A52E
:1003D00010D0AFF30080002802DA404213A507E0F6
:1003E00031688A0701D512A502E0490704D511A595
:1003F000012401E0AFF3008000210A2206F1240766
:1004000009E0B0FBF2FCB0FBF2F302FB1C00303061
:1004100078541846491C0028F3D123462A46304612
:10042000BDE8F04100F0CCB9000000002D00000054
:100430002B0000002000000070B5064600F06EF9A9
:100440000468054630460A22002100F030FA2C608C
:1004500070BD30B505460B462A4613F8014B12F81D
:10046000010B08B1A042F8D01CB1002802D06D1CCD
:10047000F1E7284630BD40EA0103024630B59B074C
:1004800010D14FF0013400E008C208C91D1B9D4384
:1004900015EAC41FF8D013F0FF0102F8011B0DD0BC
:1004A0001B0AF8E711F8013B002B02F8013B05D0CD
:1004B00011F8013B002B02F8013BF3D130BD10B520
:1004C000431C02E010F8011B71B18107FAD14FF013
:1004D000013202C88C1A8C4314EAC211F9D0C01A36
:1004E0000A0603D0C01E10BDC01A10BD0A0401D0F8
:1004F000801E10BD0902FCD0401E10BD032A40F230
:10050000308010F0030C00F0158011F8013BBCF1B5
:10051000020F624498BF11F801CB00F8013B38BFCD
:1005200011F8013BA2F1040298BF00F801CB38BFDB
:1005300000F8013B11F0030300F02580083AC0F0F9
:10054000088051F8043B083A51F804CBA0E80810A1
:10055000F5E7121D5CBF51F8043B40F8043BAFF3D4
:100560000080D20724BF11F8013B11F801CB48BF2E
:1005700011F8012B24BF00F8013B00F801CB48BF64
:1005800000F8012B704710B5203AC0F00B80B1E89D
:100590001850203AA0E81850B1E81850A0E81850B8
:1005A000BFF4F5AF5FEA027C24BFB1E81850A0E8C1
:1005B000185044BF18C918C0BDE810405FEA827CDB
:1005C00024BF51F8043B40F8043B08BF7047D207F2
:1005D00028BF31F8023B48BF11F8012B28BF20F893
:1005E000023B48BF00F8012B704702F0FF0343EACB
:1005F000032242EA024200F002B84FF0000204294E
:10060000C0F0128010F0030C00F01B80CCF1040C41
:10061000BCF1020F18BF00F8012BA8BF20F8022B75
:10062000A1EB0C0100F00DB85FEAC17C24BF00F81B
:10063000012B00F8012B48BF00F8012B70474FF049
:10064000000200B5134694469646203922BFA0E822
:100650000C50A0E80C50B1F12001BFF4F7AF09072E
:1006600028BFA0E80C5048BF0CC05DF804EB89001F
:1006700028BF40F8042B08BF704748BF20F8022B62
:1006800011F0804F18BF00F8012B70474FF0013C6C
:1006900050F8042B51F8043B9A4221D1A2EB0C03F1
:1006A000934313EACC1317D150F8042B51F8043BB1
:1006B0009A4215D1A2EB0C03934313EACC130BD14E
:1006C00050F8042B51F8043B9A4209D1A2EB0C03D9
:1006D000934313EACC13DBD04FF00000704700BF08
:1006E000D01A01BAB1FA81F101F0180122FA01F031
:1006F000CB40C1F12001DBB2C0B2C01A2CFA01F329
:10070000D11A914311EAC311E6D17047704770477F
:100710007047000000487047AC290020004870472F
:10072000A4290020704770477047704738B50446C9
:100730000A4600206946AFF30080002808BF38BD94
:1007400002460099204600F0F7F8012038BD01204C
:1007500000F05BB9F8B5AFF30080054600200C4609
:10076000102000BF0646A819A0420DD9324669469E
:100770000020AFF30080070008BF00F046F90098A2
:10078000A04218BF0546C419FFF7C4FF056007461D
:10079000F01D20F007004619284600F00AF8B44280
:1007A00008BFF8BDA21B31463868BDE8F84000F02C
:1007B000C3B800210160C0E90110704710207047E4
:1007C0002DE9F0470D4699469246044600F124086B
:1007D0000168880604D5E06921F01001216000E07D
:1007E0000120A84201DD471B00E00027A1697A191A
:1007F00002EB0900081AA0612078C00602D4204646
:10080000AFF30080002608E0D4E901211AF80600C1
:100810009047206A401C761C20624E45F4DB20780D
:10082000C0060AD52046AFF3008006E0D4E90121D6
:1008300030209047206A401C2062381EA7F1010733
:10084000F4DC07E0D4E9012118F805009047206A9C
:10085000401C2062281EA5F10105F3DC2046AFF301
:1008600000802078000602D50220BDE8F087012034
:10087000FBE7000001694A1C02610878704700B577
:100880008FB0CDE901310021059105497944CDE9C9
:10089000031011466846FFF75FFD0FB000BD000072
:1008A000E5FFFFFF0A6802F8010B0A6070472DE9B7
:1008B000F04791460F4680460446002614F8015B37
:1008C0002DB100F031F80068405DC007F6D12B2D46
:1008D00002D02D2D18D0641E4A463946204600F01D
:1008E00045F827B13968A14201D1C7F800804FF01F
:1008F000020471050BD54042002803DDFFF70EFF0F
:100900000460A007BDE8F08746F48066E4E70028AD
:10091000F8DAFFF703FF04606FF00040F2E7000031
:1009200000487047A429002010B500F09BF8001D76
:1009300010BD00BFC5560000034640688C46002825
:1009400018BF88423CBF03464068F8D31868184473
:10095000884207D00CF1030020F00700001D411A67
:10096000521A0146081D0A60FFF7BBBC2DE9F05F73
:10097000824615468B4600270AF10104B9460078E5
:10098000302801D09DB113E014F8010B012778281D
:1009900003D0582801D045B10AE00DB1102D07D180
:1009A000002714F8010B102502E0082500E00A25B5
:1009B0000026B0460EE005FB080005FB06F1012706
:1009C0001FFA80F801EB1046B6F5803F00D3B94618
:1009D00014F8010B294600F049F80028EBDABBF1C6
:1009E000000F05D00FB1641E00E05446CBF8004064
:1009F000B9F1000F06D0FFF791FE02210160C81E79
:100A0000BDE8F09F48EA0640FAE710B500F04AF862
:100A1000BDE8104000F041B870477546FFF780FF11
:100A2000AE4605006946534620F00700854618B0DB
:100A300020B5FFF715FCBDE820404FF000064FF051
:100A400000074FF000084FF0000B21F00701AC4603
:100A5000ACE8C009ACE8C009ACE8C009ACE8C00922
:100A60008D46704700487047C42900203A2800D2BC
:100A7000303820F02002412A01D3A2F13700884209
:100A800001D34FF0FF30704710B50446AFF300803C
:100A90002046BDE81040FFF782BB002801D000F0DF
:100AA00029B8704710B5012805D0002103A000F037
:100AB00027F8012010BD09A1F8E70000534947526B
:100AC000544D454D3A204F7574206F66206865611E
:100AD00070206D656D6F7279000000003A204865E6
:100AE0006170206D656D6F727920636F72727570C1
:100AF0007465640001491820ABBEFEE726000200C1
:100B000070B505460C460A2000E06D1C00F011F897
:100B100035B128780028F8D102E0641C00F009F80B
:100B200014B120780028F8D1BDE870400A20AFF356
:100B3000008008B569468DF800000320ABBE08BDF3
:100B400010B50948007800F0010028B10122D10356
:100B5000064801F07AF805E000224FF4004103480E
:100B600001F073F810BD0000A80000200010014043
:100B700000BFFEE710B5034800F0DCFA012002498F
:100B8000087010BDCC2100200000002030B50246C6
:100B90000B464FF6FF700021002400BF10E0555CAB
:100BA0006840082409E000F0010525B140084AF238
:100BB0000105684000E04008641E002CF3D1491C88
:100BC0009942ECDB30BD000010B5024800F09CFDFE
:100BD00010BD00000824002010B5024800F094FD6C
:100BE00010BD0000C423002010B5024800F08CFDA9
:100BF00010BD0000F822002010B5024800F084FD6E
:100C000010BD0000B422002010B5024800F07CFDA9
:100C100010BD00003C23002010B5024800F074FD18
:100C200010BD0000802300207047000010B515485B
:100C30000078C0F3400048B912480078C0F3C00003
:100C400020B14FF40051104800F0F8FF0D48007833
:100C500000F0010020B90B480078C0F3400028B133
:100C600000224FF40051084800F0EFFF05480078DB
:100C7000C0F3001020B101225103034800F0E5FF4A
:100C800010BD0000A50000200010014010B500229A
:100C90004FF40041324800F0D8FF32480078C0F3EA
:100CA000001000284FD03048408840B100202E4925
:100CB000488002F037FD4FF47A7003F007F92B48B3
:100CC00090F8F200C0F3400040B102F04FFD002167
:100CD0002748006861F3CC0025490860234890F854
:100CE000F20000F0010068B92048007800F001002F
:100CF00040B100211E48006861F3CC001C49086027
:100D000002F002FF1A48007820F00400001D184984
:100D100008700846007820F00100401C087003218C
:100D20001348006861F3563011490860084600789E
:100D3000C0F3400090B10846007820F0020008702F
:100D400002F0D4FC0AE00B48007800F0010028B162
:100D500002F0CCFC4FF47A7003F0B8F810BD00003C
:100D6000000C0140A5000020A000002088260020E3
:100D7000A4210020A800002072B600BFFEE70000FA
:100D800000B585B00020019002900390049000BF50
:100D90003848806940F00400364988610846806917
:100DA00000F00400009000BF00BF00BF084680694B
:100DB00040F0080088610846806900F00800009053
:100DC00000BF00BF00BF0846806940F01000886186
:100DD0000846806900F01000009000BF00BF0420AA
:100DE0000190002002900120039001A9224800F008
:100DF0008DFD4FF46040019001200290002003908F
:100E00000220049001A91D4800F080FD02200190FD
:100E100001200290002003900220049001A91848AC
:100E200000F074FD01200190029000200390022048
:100E3000049001A9124800F069FD4FF400400190B0
:100E400001200290002003900220049001A90A488A
:100E500000F05CFD4FF480700190012002900020B2
:100E600003900220049001A9054800F04FFD05B051
:100E700000BD000000100240000C014000100140C5
:100E80000008014010B5024692F82030012B01D035
:100E9000022B06D110684069084314686061002085
:100EA00010BD506A40F4802050620120F8E7F0B590
:100EB00004460A46216894F82050012D01D0022DE5
:100EC00074D1D1F8000240F00100C1F80002107D99
:100ED00000F01F06012000FA06F3D1F81C02984327
:100EE000C1F81C02D069C8B9D1F80C029843C1F806
:100EF0000C02908880B2968940EA064601F510708F
:100F0000576940F83760108880B2168940EA064673
:100F100001F51070576900EBC7004660D0690128E1
:100F200019D1D1F80C021843C1F80C02908880B294
:100F3000168840EA064601F51070576940F8376098
:100F4000908980B2168940EA064601F5107057690B
:100F500000EBC7004660906928B9D1F804029843B5
:100F6000C1F8040204E0D1F804021843C1F80402F5
:100F7000106928B9D1F814029843C1F8140204E0AA
:100F8000D1F814021843C1F81402106A012804D1E0
:100F9000D1F81C021843C1F81C02D1F8000220F05D
:100FA0000100C1F800020020F0BDFFE7606A40F4D4
:100FB000802060620120F7E7704770B5044694F81E
:100FC0002050012D01D0022D7DD151B92068C0687B
:100FD00000F0030080B9606A40F4001060620120F4
:100FE00070BD2068006900F0030028B9606A40F411
:100FF000001060620120F3E7206800F5D87000EB74
:101000000110006800F004009060906840B920680A
:1010100000F5D87000EB01100068400D106007E08B
:10102000206800F5D87000EB01100068C00850601F
:10103000206800F5D87000EB0110006800F0020095
:10104000D060206800F5D87000EB0110406800F017
:101050000F001061206800F5D87000EB01104068A7
:1010600000F47F40000A9061206800F5D87000EB22
:1010700001104068000C5061206800F5D87000EB4A
:10108000011080681870206800F5D87000EB01101E
:10109000806800F47F40000A5870206800F5D8701E
:1010A00000EB0110806800F47F00000C987020684D
:1010B00000F5D87000EB01108068000ED870206831
:1010C00000F5D87000E02FE000EB0110C068187147
:1010D000206800F5D87000EB0110C06800F47F4074
:1010E000000A5871206800F5D87000EB0110C06844
:1010F00000F47F00000C9871206800F5D87000EBB8
:101100000110C068000ED87131B92068C06840F085
:1011100020002668F06005E02068006940F02000AB
:101120002668306100205BE7606A40F480206062DE
:10113000012055E72DE9F05F044600252068466947
:101140002068D0F80490206887682068D0F80CA048
:101150002068D0F810B02068D0F8188006F00100A0
:10116000002855D007F00100C0B101202168886037
:1011700007F0020018B1204600F067FA0EE007F011
:10118000040010B145F4006508E007F0080010B154
:1011900045F4805502E0204600F056FA07F48070CE
:1011A000C8B14FF480702168886007F4007018B1EE
:1011B000204600F04CFA0EE007F4806010B145F4D0
:1011C000005508E007F4006010B145F4804502E0E6
:1011D000204600F03BFA07F48030C8B14FF480306D
:1011E0002168886007F4003018B1204600F031FA19
:1011F0000EE007F4802010B145F4004508E007F444
:10120000002010B145F4803502E0204600F020FABD
:1012100006F0080038B10AF0100020B145F400755E
:1012200010202168C86006F0040040B10AF00800F0
:1012300028B108202168C860204600F0ADF906F00A
:10124000020038B12068C06800F0030010B12046E9
:1012500000F0A4F906F0400038B10BF0100020B106
:1012600045F4806510202168086106F0200040B137
:101270000BF0080028B1082021680861204600F022
:10128000B1F906F0100038B12068006900F00300E1
:1012900010B1204600F0A7F906F4003040B109F083
:1012A000100028B1102021684860204600F09CF909
:1012B00006F4803040B109F0080028B10820216808
:1012C0004860204600F0C6F906F4004088B309F0F3
:1012D000040078B306F4807020B108F0010008B172
:1012E00045F0010506F4007020B108F0020008B1D5
:1012F00045F0020506F4806020B108F0040008B152
:1013000045F0040506F40060A0B108F0700088B153
:1013100008F07000402817D006DC10280BD02028D9
:101320000CD0302819D10CE0502810D0602814D1EE
:1013300010E01DE019E045F008050FE045F010054C
:101340000CE045F0200509E045F0400506E045F0D9
:10135000800503E045F4807500E000BF00BF206811
:10136000806920F07000216888610420216848604D
:101370002DB1606A284360622046FFF71DFEBDE87C
:10138000F09F70B504460CB9012070BD94F82000A0
:1013900010B9204600F0B0F82068006820F0020084
:1013A0002168086000F058FC05460DE000F054FC90
:1013B000401B0A2808D9606A40F4003060620520AA
:1013C00084F820000120E0E72068406800F0020077
:1013D0000028EBD12068006840F001002168086017
:1013E00000F03AFC05460DE000F036FC401B0A28F0
:1013F00008D9606A40F400306062052084F820005B
:101400000120C2E72068406800F001000028EBD00E
:10141000207E012806D12068006840F08000216805
:10142000086005E02068006820F0800021680860FE
:10143000607E012806D12068006840F040002168E5
:10144000086005E02068006820F04000216808601E
:10145000A07E012806D12068006840F020002168A5
:10146000086005E02068006820F02000216808601E
:10147000E07E012806D12068006820F01000216875
:10148000086005E02068006840F0100021680860EE
:10149000207F012806D12068006840F008002168FC
:1014A000086005E02068006820F0080021680860F6
:1014B000607F012806D12068006840F004002168A0
:1014C000086005E02068006820F0040021680860DA
:1014D000D4E902010843216908436169084361684E
:1014E000491E08432168C86100206062012084F819
:1014F0002000002049E7000010B586B00446002017
:1015000002900390049005901F492068884239D1C9
:1015100000BF1E48C06940F000701C49C861084601
:10152000C06900F00070019000BF00BF00BF084616
:10153000806940F0080088610846806900F0080072
:10154000019000BF00BF8815029000200390049016
:1015500002A90F4800F0DAF94FF40070029002205F
:1015600003900320059002A9094800F0CFF900BFBD
:101570000849486820F4C04040F0E06040F48040F2
:10158000486000BF06B010BD00640040001002407B
:10159000000C0140000001407047000010B50446F7
:1015A00001200A4908700A4908700A4B0A4A0021BA
:1015B0002046FFF702FD09480068401C0749086003
:1015C000054800680649086010BD0000BC00002006
:1015D000BD000020D000002078290020C00000209D
:1015E000C400002070477047704770B5044694F8F7
:1015F0002000012822D1022084F820002068006801
:1016000020F001002168086000F026FB05460DE08F
:1016100000F022FB401B0A2808D9606A40F4003021
:101620006062052084F82000012070BD20684068B9
:1016300000F001000028EBD16062F6E7606A40F438
:10164000002060620120F0E77047704770477047E4
:10165000704770477047000070B50446002594F845
:101660002100022803D00420A063012548E020685F
:10167000006820F00E00216808602068006820F0F3
:101680000100216808601F492068884201D10120BB
:1016900026E01C4914312068884201D110201FE047
:1016A000184928312068884201D1801518E0154971
:1016B0003C312068884201D1801411E01149503139
:1016C0002068884202D14FF4803009E00D4964312E
:1016D0002068884202D14FF4801001E04FF0807002
:1016E000084908394860012084F8210000BF002023
:1016F00084F8200000BF606B10B12046616B884702
:10170000284670BD0800024070B50446E06B0568CD
:101710002068066894F8401004208840284000287B
:1017200046D006F00400002842D02068006800F08F
:10173000200028B92068006820F0040021680860B3
:1017400057492068884201D1042027E054491431C8
:101750002068884201D1402020E05149283120688A
:10176000884201D1001519E04D493C31206888427A
:1017700002D14FF4804011E049495031206888423D
:1017800002D14FF4802009E0454964312068884245
:1017900002D14FF4800001E04FF0806040490839E9
:1017A0004860E06A00287AD02046E16A884776E0FF
:1017B00094F84010022088402840A0B306F00200B0
:1017C00088B32068006800F0200040B920680068F5
:1017D00020F00A0021680860012084F821003049C7
:1017E0002068884201D1022028E02D491431206868
:1017F000884201D1202021E02949283120688842EF
:1018000001D140151AE026493C312068884202D1B6
:101810004FF4005012E0224950312068884203D131
:101820004FF400300AE017E01D4964312068884217
:1018300002D14FF4001001E04FF000701849083950
:10184000486000BF002084F8200000BFA06A30B3C9
:101850002046A16A884722E094F84010082088407A
:101860002840E0B106F00800C8B12068006820F008
:101870000E002168086094F8401001208840E16B58
:1018800048600120A06384F8210000BF002084F894
:10189000200000BF206B10B12046216B884770BD2F
:1018A000080002400146002209B901207047164B8A
:1018B0000868C01A1423B0FBF3F0800008641248D3
:1018C0000838C863022081F821000868026843F6DE
:1018D000F0708243D1E901031843CB6818430B69C8
:1018E00018434B6918438B691843CB69184302436B
:1018F0000868026000208863012081F82100002030
:1019000081F8200000BFD1E7080002402DE9F84728
:101910000346002294466EE14FF0010808FA02F4F3
:10192000D1F8008008EA0400A0427DD1DFF8DCA2F3
:10193000D1F80480A8EB0A09D0453AD014DCB8F1FC
:10194000030F50D009DCB8F1000F31D0B8F1010F0E
:101950001CD0B8F1020F49D120E0B8F1110F18D016
:10196000B8F1120F42D11EE0B9F5881F25D006DC70
:10197000B9F5803F20D0B9F5801F37D11AE0B9F50D
:10198000001F18D0B9F5041F30D117E0D1F80CC0F2
:101990002DE0D1F80C8008F1040C28E0D1F80C807F
:1019A00008F1080C23E0D1F80C8008F10C0C1EE0C3
:1019B00000BF00BF00BF00BF00BF00BFD1F808805C
:1019C000B8F1000F02D14FF0040C0BE0D1F8088001
:1019D000B8F1010F03D14FF0080C1C6102E04FF089
:1019E000080C5C6103E04FF0000C00E000BF00BF9A
:1019F000FF2801D8984601E003F104084646FF2875
:101A000002D84FEA820803E0A2F108084FEA8808EA
:101A10004746D6F800804FF00F0909FA07F928EA7F
:101A200009080CFA07F900E088E048EA0908C6F856
:101A30000080D1F8048008F08058B8F1805F7DD133
:101A400000BFDFF8CC81D8F8188048F00108DFF833
:101A5000C091C9F81880C846D8F8188008F0010865
:101A6000CDF8008000BF00BF4FEAB9384FEA9209B5
:101A700058F829504FEA82784FEA18794FF00F084A
:101A800008FA09F825EA0805DFF88881434502D1FC
:101A90004FF0000816E0DFF88081434502D14FF097
:101AA00001080FE0DFF87481434502D14FF00208CE
:101AB00008E0DFF86C81434502D14FF0030801E0F4
:101AC0004FF004084FEA82794FEA197908FA09F8C9
:101AD00048EA0505DFF84C814FEA920948F8295099
:101AE000D1F8048008F48038B8F5803F0AD1DFF8D7
:101AF0003881D8F8008048EA0008DFF82C91C9F84E
:101B0000008009E0DFF82081D8F8008028EA00088A
:101B1000DFF81491C9F80080D1F8048008F4003887
:101B2000B8F5003F10D1DFF8008108F10408D8F8BB
:101B3000008048EA0008DFF8F09000E05AE009F180
:101B40000409C9F800800DE0DFF8DC8008F1040822
:101B5000D8F8008028EA0008DFF8CC9009F10409E1
:101B6000C9F80080D1F8048008F48018B8F5801F07
:101B70000ED1DFF8B48008F10808D8F8008048EAF0
:101B80000008DFF8A49009F10809C9F800800DE009
:101B9000DFF8948008F10808D8F8008028EA0008E7
:101BA000DFF8849009F10809C9F80080D1F80480B1
:101BB00008F40018B8F5001F0ED1DFF86C8008F1AA
:101BC0000C08D8F8008048EA0008DFF85C9009F1BA
:101BD0000C09C9F800800DE0DFF84C8008F10C0812
:101BE000D8F8008028EA0008DFF83C9009F10C09D9
:101BF000C9F80080521CD1F8008028FA02F8B8F128
:101C0000000F7FF489AEBDE8F887000000001110D6
:101C10000010024000080140000C0140001001408B
:101C2000001401400800014000040140024693688E
:101C30000B400BB1012000E000207047C2680A4051
:101C40000AB1416100E0016170470AB1016101E040
:101C50000B040361704700000148006870470000F2
:101C60000800002003480068034909780844014936
:101C700008607047080000201000002010B50848D8
:101C8000006840F0100006490860032000F0BCF82E
:101C90000F2000F007F800F02BF8002010BD000026
:101CA0000020024070B504460E4800784FF47A7167
:101CB000B1FBF0F00C490968B1FBF0F5284600F0E3
:101CC0001FFC08B1012070BD102C07D20022214654
:101CD000501E00F05BF80548046001E00120F2E7C7
:101CE0000020F0E710000020140000200C0000206D
:101CF00008B500BF1848806940F0010016498861A6
:101D00000846806900F00100009000BF00BF00BFDE
:101D10000846C06940F08050C8610846C06900F0BC
:101D20008050009000BF00BF00220F21901E00F0E5
:101D30002DF800BF0949486820F0E06040F00070CD
:101D4000486000BF064800F0D7FC064800F0D4FC0D
:101D5000054800F0D1FC08BD001002400000014021
:101D6000F42100203422002074220020014608467D
:101D7000002809DB00F01F0301229A4043099B0061
:101D800003F1E023C3F8002100BF70472DE9F05FA5
:101D900080460D461646002701F000FC07463946EE
:101DA0002A46334601F00700C0F1070ABAF1040FD2
:101DB00002D94FF0040A01E0C0F1070AD14600F150
:101DC000040ABAF1070F02D24FF0000A01E0A0F1B5
:101DD000030AD4464FF0010A0AFA09FAAAF1010AE5
:101DE0000AEA020A0AFA0CFA4FF0010B0BFA0CFB92
:101DF000ABF1010B0BEA030B4AEA0B042146404608
:101E000001F0DCFBBDE8F09F00BF00F00702064BCD
:101E100019684FF6FF031940044B0B4343EA0221B4
:101E2000014B196000BF70470CED00E00000FA059F
:101E300070B504460D460CB9012070BD5A480068C3
:101E400000F00700A8420ED25748006820F00700B3
:101E50002843554908600846006800F00700A8427A
:101E600001D00120E9E7207800F0020002281DD10E
:101E7000207800F00400042805D14C48406840F464
:101E8000E0604A494860207800F00800082805D141
:101E90004648406840F460504449486043484068C0
:101EA00020F0F000A168084340494860207800F025
:101EB000010078B36068012806D13C48006800F44E
:101EC000003090B90120B8E76068022806D1374891
:101ED000006800F0007040B90120AEE733480068A8
:101EE00000F0020008B90120A7E73048406820F060
:101EF0000300616808432D494860FFF7ADFE0646C0
:101F000009E0FFF7A9FE801B41F28831884202D91F
:101F1000032092E707E02548406800F00C00616864
:101F2000B0EB810FEDD12048006800F00700A84217
:101F30000ED91D48006820F0070028431A490860A0
:101F40000846006800F00700A84201D0012074E7AD
:101F5000207800F00400042807D11448406820F4D9
:101F6000E060E168084311494860207800F008000B
:101F7000082808D10D48406820F46050216940EAE3
:101F8000C1000A49486000F03FF808494968C1F3B8
:101F90000311074A515CC8400649086006480068BA
:101FA000FFF780FE002048E70020024000100240BA
:101FB00024600008140000200C0000200148006884
:101FC000704700001400002000B5FFF7F7FF044938
:101FD0004968C1F30221034A515CC84000BD0000BA
:101FE000001002403460000800B5FFF7E7FF044925
:101FF0004968C1F3C221034A515CC84000BD0000DA
:102000000010024034600008F0B585B00FF26C0C8F
:102010009CE8E01001A8A0E8E0101CA52D68009540
:1020200000210022002300240020194D696801F0DE
:102030000C05F5B1042D02D0082D19D101E0154889
:1020400019E001ADC1F38346AC5D01F4803555B1B3
:102050000F4D6D68C5F340451DF805200D4D6543D6
:10206000B5FBF2F302E00C4D04FB05F3184602E069
:1020700000BF084800BF00BF05B0F0BD0203040563
:10208000060708090A0B0C0D0E0F101001020000C4
:102090000010024000127A0000093D00F8B5044625
:1020A0000CB90120F8BD207800F00100002878D09C
:1020B000F848406800F00C0004280CD0F54840684F
:1020C00000F00C00082811D1F248406800F480307C
:1020D000B0F5803F0AD1EF48006800F400300028D6
:1020E0005FD0606800285CD10120DBE700BF60683A
:1020F000B0F5803F06D1E748006840F48030E549FC
:10210000086028E0606858B9E248006820F4803030
:10211000E04908600846006820F4802008601AE062
:102120006068B0F5A02F0BD1DA48006840F4802039
:10213000D84908600846006840F4803008600AE02A
:10214000D448006820F48030D2490860084600680E
:1021500020F48020086000BF606888B1FFF77CFD34
:10216000054606E0FFF778FD401B642801D90320EF
:1021700098E7C848006800F400300028F2D010E06A
:10218000FFF76AFD054606E0FFF766FD401B642881
:1021900001D9032086E7BF48006800F4003000281A
:1021A000F2D1207800F00200022857D1B9484068E7
:1021B00000F00C0050B1B748406800F00C0008284F
:1021C00018D1B448406800F4803098B9B14800682C
:1021D00000F0020020B12069012801D0012061E750
:1021E000AC48006820F0F800616940EAC100A949E4
:1021F000086033E02069E8B10120A7490860FFF7D3
:102200002BFD054606E0FFF727FD401B022801D9FC
:10221000032047E79F48006800F002000028F2D042
:102220009C48006820F0F800616940EAC1009949C3
:10223000086013E0002098490860FFF70DFD05468F
:1022400006E0FFF709FD401B022801D9032029E71A
:102250009048006800F002000028F2D1207800F0D9
:10226000080008282DD1A069B8B101208B49086069
:10227000FFF7F2FC054606E0FFF7EEFC401B0228E4
:1022800001D903200EE78348406A00F002000028CD
:10229000F2D0012000F0C2FD13E000207F49086069
:1022A000FFF7DAFC054606E0FFF7D6FC401B0228E4
:1022B00001D90320F6E67748406A00F002000028C2
:1022C000F2D1207800F00400042873D1002771486F
:1022D000C06900F0805070B900BF6E48C06940F01E
:1022E00080506C49C8610846C06900F08050009079
:1022F00000BF00BF01276A48006800F48070B0B9D1
:102300006748006840F4807065490860FFF7A4FCE6
:10231000054606E0FFF7A0FC401B642801D9032016
:10232000C0E65F48006800F480700028F2D000BF6B
:10233000E068012806D15748006A40F0010055497D
:10234000086227E0E06858B95248006A20F00100AE
:10235000504908620846006A20F00400086219E04B
:10236000E06805280BD14B48006A40F00400494959
:1023700008620846006A40F0010008620AE0454829
:10238000006A20F00100434908620846006A20F014
:102390000400086200BFE068A0B1FFF75DFC0546DD
:1023A00009E0FFF759FC401B41F28831884202D90D
:1023B000032077E622E03748006A00F00200002898
:1023C000EFD012E0FFF748FC054608E0FFF744FCB9
:1023D000401B41F28831884201D9032062E62D4832
:1023E000006A00F002000028F0D1012F05D1294831
:1023F000C06920F080502749C86100BFE069C8B3B8
:102400002448406800F00C00082860D0E0690228E9
:1024100048D1002020490866FFF71EFC054606E06B
:10242000FFF71AFC401B022801D903203AE619489D
:10243000006800F000700028F2D1206AB0F5803FFB
:1024400007D11448406820F40030A16808431149BE
:102450004860D4E9080108430E49496821F4741121
:1024600008430C49486001200B490866FFF7F4FB5C
:10247000054607E03DE0FFF7EFFB401B022801D9CE
:1024800003200FE60348006800F000700028F2D037
:102490002FE000000010024000004242800442424F
:1024A00000700040002014490866FFF7D5FB054680
:1024B00006E0FFF7D1FB401B022801D90320F1E51C
:1024C0000E48006800F000700028F2D111E0E069C9
:1024D000012800D1E6E50948466806F48031206A03
:1024E000814204D106F47011606A814201D001205A
:1024F000D8E50020D6E5000000004242001002406E
:1025000070B504462546681EB0F1807F01D30120D6
:102510000FE0681E4FF0E02148610F214FF0FF30BF
:1025200001F04CF800204FF0E0218861072008619D
:10253000002070BD704700002DE9F0470446206878
:1025400005682068C668206847694FF00008C146E2
:1025500005F00F08B8F1000F0AD105F0200038B1DE
:1025600006F0200020B1204600F014FEBDE8F08700
:10257000B8F1000F6DD007F0010018B906F49070A3
:10258000002866D005F0010030B106F4807018B163
:10259000E06B40F00100E06305F0040030B107F0AB
:1025A000010018B1E06B40F00200E06305F00200AA
:1025B00030B107F0010018B1E06B40F00400E063B7
:1025C00005F0080030B107F0010018B1E06B40F0F1
:1025D0000800E063E06B68B305F0200028B106F066
:1025E000200010B1204600F0D5FD20684069C0F3FE
:1025F0008019E06B00F0080010B9B9F1000F22D08B
:10260000204600F03BFD2068406900F04000B0B17A
:102610002068406920F0400021684861606B50B13B
:102620001748616B4863606BFFF716F810B1606B79
:10263000416B88470CE02046FFF77CFF08E020460E
:10264000FFF778FF04E02046FFF774FF0020E06307
:102650008CE705F0800030B106F0800018B120460C
:1026600000F0BCFE82E705F0400030B106F040000B
:1026700018B1204600F012FD78E700BF76E70000B1
:102680006930000810B504460CB9012010BDA069DE
:1026900000B100E000BF94F8390028B9002084F8A8
:1026A0003800204600F028F8242084F839002068FB
:1026B000C06820F400502168C860204600F0BEFDCC
:1026C0002068006920F49040216808612068406912
:1026D00020F02A00216848612068C06840F400505A
:1026E0002168C8600020E063202084F8390084F865
:1026F0003A000020CAE7000010B586B0044600206A
:102700000290039004900590A749206888426AD1FE
:1027100000BFA648806940F48040A449886108460B
:10272000806900F48040019000BF00BF00BF0846F0
:10273000806940F0040088610846806900F0040068
:10274000019000BF00BF48150290022003900320B3
:10275000059002A99648FFF7D9F84FF480600290DF
:1027600000200390049002A99148FFF7CFF8914808
:10277000914908600020486000218F4881608021D5
:10278000C1600021016141618161C161FFF78AF887
:1027900008B1FEF7F1FA00BF87486063446200BFEA
:1027A0008448143885490860102048600021834817
:1027B00081608021C1600021016141618161C1614D
:1027C000FFF770F808B1FEF7D7FA00BF7B48206327
:1027D000446200BF002205212520FFF7D7FA2520FB
:1027E000FFF7C4FADDE07649206888426AD100BF6D
:1027F0006E48C06940F400306C49C8610846C06941
:1028000000F40030019000BF00BF00BF084680699F
:1028100040F0040088610846806900F004000190DF
:1028200000BF00BF04200290022003900320059007
:1028300002A95F48FFF76AF8082002900020039081
:10284000049002A95A48FFF761F85A4814305D49CC
:1028500008600020486000215A4881608021C160E2
:102860000021016141618161C161FFF71BF808B17D
:10287000FEF782FA00BF53486063446200BF4D48D0
:102880002830514908601020486000214E4881607E
:102890008021C1600021016141618161C161FFF757
:1028A00001F808B1FEF768FA00BF474820634462A8
:1028B00000BF002205212620FFF768FA2620FFF737
:1028C00055FA6EE04149206888426AD100BF374816
:1028D000C06940F480203549C8610846C06900F4E9
:1028E0008020019000BF00BF00BF0846806940F013
:1028F000080088610846806900F00800019000BF68
:1029000000BF08150290022003900320059002A941
:102910002F48FEF7FBFF4FF4006002900020039069
:10292000049002A92A48FEF7F1FF224828382949D5
:102930000860002048600021264881608021C16035
:102940000021016141618161C161FEF7ABFF08B106
:10295000FEF712FA00BF1F486063446200BF1548CB
:102960003C381D4908601020486000211A488160E9
:102970008021C1600021016141618161C161FEF777
:1029800091FF08B1FEF7F8F900BF134820634462D5
:1029900000BF002205212720FFF7F8F92720FFF7C5
:1029A000E5F906B010BD00000038014000100240FB
:1029B0000008014058000240B4220020F822002004
:1029C000004400403C2300208023002000480040B9
:1029D000000C0140C42300200824002070477047E9
:1029E00000BFFEE710B500F05BFAFEF7C9F900F092
:1029F000B1FA00F0DDFA00F009FB00F05FF90448DD
:102A0000FEF7F3FD02210248FEF73CFA10BD00007C
:102A1000CC210020C16841F02001C160704701460F
:102A20000868C0F34010704701460868C0F3C01042
:102A300070470146C868C0F3401070474160704756
:102A400038B504218048FFF7F1F810B901207F491B
:102A5000488000224FF480717D48FFF7F6F87D48EA
:102A600090F8F20000F0010000284DD0794890F86D
:102A7000F10003280DDD7748401CFDF720FD85B2ED
:102A80007448401C2B46022203210090012001F0D3
:102A9000FDF8002429E000216F48006861F3CC00B4
:102AA0006D4908600846007820F002000870012097
:102AB00001F00CFA641CB4F5FA7F0DD16548401C96
:102AC000FDF7FDFC85B26348401C2B460222032122
:102AD0000090012001F0DAF801F0C2F95F4890F8A7
:102AE000F40000F0010000B102E0B4F57A7FD2DD1D
:102AF00000BF00F0D7FD574890F8F20020F0010029
:102B0000544981F8F20000BF5548007800F00100F8
:102B100000285AD053480078C0F30010002854D140
:102B200000214D48806861F3CC004B49886008461D
:102B3000007A20F002000872494890F8F10003285A
:102B40000DDD4748401CFDF7BAFC85B24448401CE7
:102B50002B46022203210090012001F097F8002467
:102B600029E000213C48806861F3CC003A49886044
:102B70000846007A20F002000872012001F0A6F950
:102B8000641CB4F5FA7F0DD13548401CFDF797FC65
:102B900085B23348401C2B460222032100900120BD
:102BA00001F074F801F05CF92C4890F8F40000F0A2
:102BB000010000B102E0B4F57A7FD2DD00BF00F081
:102BC00083FD00202649087000BF2548007800F0EA
:102BD000010048B123480078C0F3001020B100F094
:102BE00073FD00201E49087001F03AF91B4890F867
:102BF000F40000F0010028B30020184981F8F40027
:102C000000211548406861F3CC001349486015481D
:102C10000078C0F3001048B10E4890F8F20020F0A0
:102C20000200801C0B4981F8F2000BE00E4840784E
:102C300040B10B4890F8F20020F00200801C0849D7
:102C400081F8F20038BD0000000C0140A000002017
:102C50000008014088260020A42100205E200020DA
:102C60007B270020A5000020B800002010B51148E7
:102C7000407838B90F480078012803D181030E4805
:102C8000FEF7DCFF0B480078012805D000224FF446
:102C900080410948FEF7D9FF06484078012808D14D
:102CA00004480078012804D1012281030248FEF77C
:102CB000CCFF10BDB80000200010014000B58FB05F
:102CC00000200B900C900D900E9000BF3C48C06906
:102CD00040F000703A49C8610846C06900F00070D1
:102CE000009000BF00BF00BF0846806940F00800A8
:102CF00088610846806900F00800009000BF00BFAE
:102D000088150B9000200C900D900BA92D48FEF714
:102D1000FDFD4FF400700B9002200C9003200E90EC
:102D20000BA92848FEF7F2FD00BF2749486820F4A8
:102D3000C04040F0E06040F48040486000BF23485D
:102D40002349086064204860002121488160C160F7
:102D50004FF4402101614FF480114161002101765F
:102D600041768176C17601774177FEF70AFB08B19B
:102D7000FEF702F8042203211420FFF707F81420BD
:102D8000FEF7F4FF042203211520FEF7FFFF1520B4
:102D9000FEF7ECFF012009900A2006900020059024
:102DA0000190029003900490079001200890002069
:102DB0000A9001A90648FEF77AF80FB000BD00009E
:102DC00000100240000C014000000140006400407F
:102DD000CC21002000BFFEE700BFFEE7F0B50346B0
:102DE0000C4603F00701C1F10700042801D90420B3
:102DF00001E0C1F107000646081D072801D20020A6
:102E000000E0C81E05460120B040401E2040A840FA
:102E10000127AF407F1E17403843F0BD08B5084971
:102E20000968C9084FF47A72B1FBF2F1414300918D
:102E300000BF00BF00994A1E00920029F9D108BDC9
:102E40001400002010B500F0DBFC10BD10B501F03F
:102E50009FFE1248007920F00200801C0F49087183
:102E60004FF47A710D48406861F315300B494860A2
:102E70000846007900F0010030B10846007920F0E2
:102E80000100087101F00EFFFEF7ECFE02F05EFE9D
:102E9000012801D002F0ACFA10BD0000542100203E
:102EA00000B58FB0282105A8FDF7C9FB142168469D
:102EB000FDF7C5FB022005900120099010200A9023
:102EC00002200C9000210D914FF4C0110E9105A825
:102ED000FFF7E4F808B1FDF74FFF0F200090022044
:102EE0000190002002900390049001216846FEF7B3
:102EF0009FFF08B1FDF740FF0FB000BD114800680B
:102F000040F001000F490860084640680E4908403B
:102F10000C494860084600680C49084009490860A7
:102F20000846006820F4802008600846406820F4C5
:102F3000FE0048604FF41F008860C8030449086021
:102F400070470000001002400000FFF8FFFFF6FE8F
:102F500008ED00E070B51448144908604FF41650AD
:102F60004860002111488160C16001610C2141610C
:102F700000218161C161FFF785FB08B1FDF7FCFE0F
:102F80000948FFF747FD00F011FB054601221146F5
:102F9000FFF724FF04462146252000F023FB2520CF
:102FA00000F0EEFA70BD000000380140F42100206E
:102FB00070B51448144908604FF416504860002159
:102FC00011488160C16001610C2141610021816172
:102FD000C161FFF757FB08B1FDF7CEFE0948FFF7C7
:102FE00019FD00F0E3FA054601221146FFF7F6FE4F
:102FF00004462146262000F0F5FA262000F0C0FA0B
:1030000070BD0000004400403422002070B5144818
:10301000144908604FF4E130486000211148816094
:10302000C16001610C21416100218161C161FFF733
:1030300029FB08B1FDF7A0FE0948FFF7EBFC00F003
:10304000B5FA054601221146FFF7C8FE044621469F
:10305000272000F0C7FA272000F092FA70BD000088
:10306000004800407422002070B505466C6A0020BC
:10307000E085E0842046FFF75DFA70BD0168C9680D
:1030800021F490710268D1600168496921F0010161
:1030900002685161202180F83A10704710B504464B
:1030A0002068C06820F040002168C860202084F8B3
:1030B00039002046FFF793FC002010BD70B505468F
:1030C0000E462846FDF7FBF917490860002400BFAB
:1030D00024E0032E09D1295D1448FFF7AFFC00BF9F
:1030E0001248FFF7A1FC0028FAD0022E09D1295D71
:1030F0000F48FFF7A3FC00BF0D48FFF795FC002821
:10310000FAD0012E09D1295D0A48FFF797FC00BFCC
:103110000848FFF789FC0028FAD0641C02480068C0
:103120008442D6DB012070BD9C0000200048004096
:10313000004400400038014070B505460C46032CA1
:1031400009D129461048FFF779FC00BF0E48FFF768
:103150006BFC0028FAD0022C09D129460B48FFF756
:103160006DFC00BF0948FFF75FFC0028FAD0012C76
:1031700009D129460648FFF761FC00BF0448FFF764
:1031800053FC0028FAD070BD0048004000440040C5
:103190000038014070B5044694F83A0022284AD11C
:1031A000A068B0F5805F13D1A56A206940B9206896
:1031B0004068C0F308002880A06A801CA06219E063
:1031C00020684068C0B22880A06A401CA06211E05C
:1031D000206938B920684068C1B2A26A501CA06258
:1031E000117007E02068406800F07F01A26A501C5F
:1031F000A0621170E08D401E80B2E085C8B92068E1
:10320000C06820F020002168C8602068C06820F4F1
:1032100080702168C8602068406920F00100216842
:103220004861202084F83A002046FFF7D7FB0020B1
:1032300070BD0020FCE70220FAE7000070B50446EC
:103240002168096921F44051E26811432268116143
:103250002269A1681143626941EA02052168C968CF
:1032600041F20C62914329432268D1602168496987
:1032700021F44071A269114322685161564A2168C4
:10328000914254D1FEF7B0FE00EBC00101EB0011FA
:1032900062689200B1FBF2F100EBC00202EB001297
:1032A00063689B00B2FBF3F26423B2FBF3F202EB20
:1032B000C20303EB0212A1EB8201322202EB0111E5
:1032C0006422B1FBF2F101F0F00100EBC00202EB6D
:1032D000001263689B00B2FBF3F26423B2FBF3F2CB
:1032E00001EB021200EBC00101EB001163689B00CF
:1032F000B1FBF3F100EBC00303EB00136668B6000B
:10330000B3FBF6F36426B3FBF6F303EBC30606EB5D
:103310000313A1EB8301322303EB01116423B1FBFF
:10332000F3F101F00F0111442268916053E0FEF7C0
:103330004BFE00EBC00101EB001162689200B1FB93
:10334000F2F100EBC00202EB001263689B00B2FBDB
:10335000F3F26423B2FBF3F202EBC20303EB0212BB
:10336000A1EB8201322202EB01116422B1FBF2F1E6
:1033700001F0F00100EBC00202EB001263689B0059
:10338000B2FBF3F26423B2FBF3F201EB021200EBA7
:10339000C00101EB001163689B00B1FBF3F100EB8E
:1033A000C00303EB00136668B600B3FBF6F36426B4
:1033B000B3FBF6F303EBC30606EB0313A1EB8301A8
:1033C000322303EB01116423B1FBF3F101F00F0190
:1033D00011442268916070BD00380140014691F8A7
:1033E000390021282CD18868B0F5805F0FD10A6A96
:1033F0001088C0F308000B685860086918B9086A9B
:10340000801C086209E0086A401C086205E00B6A3B
:10341000581C086218780B685860C88C401E80B22F
:10342000C88458B90868C06820F080000B68D8606C
:103430000868C06840F040000B68D8600020704702
:103440000220FCE710B50B48FFF7E9FA68B109481C
:10345000FFF7EFFA48B100BF06484068C0B206491E
:1034600008700846007800F0F1FB0448FFF764F8A4
:1034700010BD00000038014001000020F4210020B0
:1034800010B50B48FFF7CBFA68B10948FFF7D1FA3E
:1034900048B100BF06484068C0B2064908700846F7
:1034A000007801F001FB0448FFF746F810BD00006A
:1034B00000440040020000203422002010B50B48D8
:1034C000FFF7ADFA68B10948FFF7B3FA48B100BF9A
:1034D00006484068C0B2064908700846007800F007
:1034E00063F90448FFF728F810BD000000480040C9
:1034F000030000207422002010B50348FDF71AFED7
:1035000001200249087010BDCC21002000000020DD
:1035100000BFFEE700BF1348007820F00200801CC7
:10352000104908704FF496710E48006861F3153029
:103530000C4908600846007800F0010050B10846C8
:10354000007820F001000870FDF770FBFDF7F8FA35
:10355000FFF78CFB00F082F8FFF772FA012000F011
:10356000B5FCD8E75421002000BF012000F0AEFCDC
:10357000FBE700BFFDF78AFB012000F0A7FCF9E79D
:10358000002809DB00F01F0201219140420992004E
:1035900002F1E022C2F80011704700000248006802
:1035A000C0F30220704700000CED00E00248006804
:1035B000C0F30220704700000CED00E010B50028B9
:1035C00004DB0A07130E054A135406E00A07140E1B
:1035D000034A00F00F031B1FD45410BD00E400E0A9
:1035E00018ED00E010B5002804DB0A07130E054AA9
:1035F000135406E00A07140E034A00F00F031B1FC2
:10360000D45410BD00E400E018ED00E0EFF31180A9
:103610007047EFF305807047EFF3108070470000AC
:1036200010B596B009A102A8FCF782FE02A8FCF72B
:1036300046FF84B202A82346022203210090012003
:1036400000F024FB00F008FA16B010BD7B22736571
:103650007269616C223A223F222C7D0010B510481D
:10366000007920F00400001D0D490871084600791A
:1036700020F00100401C087101210948406861F3F5
:1036800056300749486008460079C0F3400030B121
:103690000846007920F002000871FFF7C1FF10BD55
:1036A000A421002010B5F0210548FCF7A6FF00205A
:1036B000044908700249491E087081F8F10010BDE4
:1036C00089260020A400002010B5F0210548FCF751
:1036D00094FF0020044908700249491E087081F8CF
:1036E000F10010BD7C270020B000002000B595B08F
:1036F000FFF7D8FF064807A1426801A8FCF718FEAB
:10370000032101A8FFF7DAFC00F0FEF915B000BDB7
:10371000A80000207B2273657269616C223A222521
:1037200064227D0000B595B0FFF7BCFF064807A1F5
:10373000426801A8FCF7FCFD032101A8FFF7BEFCCD
:1037400000F0E2F915B000BDA80000207B227365EF
:103750007269616C223A222564222C22656E5F75A3
:10376000736572223A2231227D00000010B5642078
:103770000A4908800A4890F8F200C0F3400058B1A6
:10378000074890F8F20020F00200054981F8F200A5
:1037900003210448FFF792FC10BD0000A0000020A8
:1037A000882600206020002010B504467B2C02D122
:1037B00001201149087010480078012813D10F48E2
:1037C00090F8F110401C4454401E90F8F100401C49
:1037D0000A4981F8F1007D2C05D1022006490870C4
:1037E000012006490870054890F8F100F02801DB37
:1037F000FFF758FF10BD0000A4000020882600201D
:10380000002000BF21E00022374951F8201062F368
:103810001531354A42F82010114611F8201021F0D8
:10382000020102F82010114611F8201021F00101C8
:1038300002F8201000222C4951F8201062F38B016D
:10384000294A42F82010411C88B20A28DBDB0020FC
:1038500019E0264911F8201021F00201234A02F84C
:103860002010114611F8201021F0010102F820105B
:1038700000221E4951F8201062F38B011B4A42F8C6
:103880002010411C88B20A28E3DB002029E01849F7
:1038900011F8201021F00401154A02F8201000222E
:1038A000134951F8201062F35631114A42F82010A2
:1038B000114611F8201021F0010102F820101146E4
:1038C00011F8201021F0020102F82010002208490E
:1038D00051F8201062F3CC01054A42F82010411C37
:1038E00088B20A28D3DB7047542100207C210020B5
:1038F000A421002070B505460C462146284601F05B
:1039000037F9002809DB2146284601F031F906463F
:103910002046FCF7D4FD304470BD4FF0FF30FBE78C
:103920002DE9FE4305460F462248FCF7C8FD8046B8
:1039300041462048FCF783FE002639462846FFF71B
:10394000D9FF064616B90020BDE8FE830024A85D15
:10395000222813D106E03019401C295C1548015576
:10396000601CC4B2701C2044285C2C2804D0701C3D
:103970002044285C2228EED10120E5E709E0301937
:10398000285C0DF80400601CC4B2052C01DD002089
:10399000DAE73019285C2C2803D03019285C7D2800
:1039A000EDD16846FCF748FD0249F039C1F85401F1
:1039B0000220C9E73C2500201CB5FEF75FF9FFF7A0
:1039C00011F8FFF73FFA002202211548FEF73DF9F2
:1039D0000020012103466422CDE9001011A1144802
:1039E00002F026F80020012103466422CDE90010F0
:1039F00010A1134802F01CF80020012103466422A4
:103A0000CDE900100FA1134802F012F801F098FB65
:103A100000224FF480710248FEF717F900201CBD08
:103A2000000801407461736B5F776966690000008C
:103A3000733500087461736B5F73696D000000007B
:103A4000693500087461736B5F616476616E6365EC
:103A5000000000001535000810B54FF4FA6001F0C1
:103A60001BFC38B92248007820F00200801C204955
:103A700008702BE01E48007820F002001C490870F6
:103A800000F0D6FFF0221B491B48FCF7F4FC1BA1F9
:103A90001948FFF745FF012811D11748F030FCF70E
:103AA000CBFC134948600846007820F002000870FB
:103AB0000846007820F00100401C087006E00C4821
:103AC000007820F00200801C09490870084800783E
:103AD000C0F3400028B10648007820F001000449F6
:103AE000087000200349891E81F8F40010BD000011
:103AF000A8000020602000204C2400202273657262
:103B000069616C223A00000010B54FF4FA5001F0E0
:103B1000DDFB38B94048007820F00100401C3E49E8
:103B2000087047E03C48007820F001003A490870EE
:103B300000F07EFFF02239493948FCF79CFC39A19E
:103B40003748FFF7EDFE012823D139A13448F03082
:103B5000FCF79CFD38B93048007820F00200801C4A
:103B60002D49087005E02C48007820F002002A4911
:103B7000087031A12A48F030FCF788FD30B926489A
:103B8000007820F00800083023490870FFF78AFD0C
:103B900010E02148007820F002001F490870084614
:103BA000007820F0080008700846007820F0100027
:103BB0001030087018480078C0F3C00048B91648A3
:103BC000007800F0010020B913480078C0F34000ED
:103BD00030B11148007820F010000F4908701AE049
:103BE0000D48007820F0100010300B49087014A127
:103BF0000B48FFF795FE012802D1FFF753FD0AE0BD
:103C00000648401E90F8F20020F00100401C0349D5
:103C1000491E81F8F20010BDA50000208926002071
:103C20004C240020226572726F72223A000000005C
:103C300077696669000000006D717474000000000F
:103C40002240656D707479223A0000000D4991F8A8
:103C5000F120491C8854491E91F8F110491C094A69
:103C600082F8F110114691F8F110C82902DD002107
:103C700082F8F11000220449096962F38B01024ABB
:103C800011617047581F0020542100202DE9F05F7A
:103C90008046894617461D46DDF828A005F1140B1D
:103CA0005846FCF7EFFA0446002684F8008084F8B2
:103CB00001903812A070E77028122071657100BF62
:103CC00004E01AF80610B01D2154761CAE42F8DB51
:103CD000A91D2046FCF75AFF1249088008460178C2
:103CE000A81D21540F4800880112E81D2154002608
:103CF0000FE0012211020C48FDF7A7FFA05D012192
:103D0000FFF71AFA00224FF480710748FDF79DFF74
:103D1000761C05F109008642EBDB2046FCF7E1FA50
:103D2000BDE8F09F900000200008014010B5454814
:103D3000407801282DD143488078022829D1414874
:103D40000179C07801EB00203F4908803D48407967
:103D50003E4908703B488179C07901EB00203C491D
:103D6000088005213748401CFCF710FF39490880BE
:103D70000846008836490988884208D132480078C8
:103D800035490870314800784870012010BDFF2087
:103D9000FCE72C484078012850D12A488078032835
:103DA0004CD128480179C07801EB002026490880D1
:103DB00024488179407901EB002028490880214876
:103DC000401C0988891D425C24490988C91D405C42
:103DD00002EB00201E49088020480088811D1948F8
:103DE000401CFCF7D3FE1B49088008460088184990
:103DF0000988884224D119480088C82820DAF0218F
:103E00001548801CFCF7F9FB002007E00D49491C10
:103E1000821D8A5C1049891C0A54401C0F4909887C
:103E20008842F3DB0D4800880B49A1F8F2000648F0
:103E300000780870012081F8F40001E00020A5E777
:103E400000BFA3E7581F002092000020940000202C
:103E500096000020980000205E2000209A0000209C
:103E600010B5184890F8F100002807DD1648007CCE
:103E700020F00200801C1449087405E01248007C00
:103E800020F002001049087432210F48006961F3E4
:103E900015300D4908610846007C00F0010078B13A
:103EA0000846007C20F001000874FFF73FFFF02176
:103EB0000448401CFCF7A1FB0020024981F8F100F6
:103EC00010BD0000581F00205421002070B5054689
:103ED000FFF79FFB48B9FFF79FFB30B90848006820
:103EE000022805D1FFF792FB10B16FF0050404E042
:103EF000002415B1284601F0A7F8204670BD000047
:103F0000680000202DE9F04105460E461648076876
:103F100016480068001D00F017FF681C38B936B15C
:103F200012480168091D124800F064FF1AE07C196C
:103F30000E4800684460BC4207D20C480168091D65
:103F40000C48006800F03CFF0CE008480168091DBF
:103F50000948006800F034FF08480068844201D234
:103F600006480460BDE8F0812C0000201800002005
:103F7000D4050020200000201C0000204800002064
:103F800010B5044600F042FF24480068401C234955
:103F900008602348006840B921480460084600686A
:103FA00001280DD100F0F8F90AE01E48006838B980
:103FB0001B480068C06AE16A884201D8184804605A
:103FC00019480068401C1849086008460068606489
:103FD0001649E06A0968884202D91449E06A086013
:103FE000E16A01EB8101124A02EB8100211D00F020
:103FF00001FF00F035FF0B48006868B10848006811
:10400000C06AE16A884207D24FF0805009490860CF
:10401000BFF34F8FBFF36F8F10BD0000280000204B
:104020001800002034000020440000203000002050
:104030002401002004ED00E008B500F0E7FE12487E
:104040000068E8B9114800F0ABFE114800F0A8FE86
:104050000E48104908600E480F49086000200F4BB9
:104060000F4A102100900A2001F0DCF9064908608F
:104070000846006820B10BA10348006800F0A8FFC3
:1040800000F0EEFE08BD00005C000020E805002006
:10409000FC050020540000205800002010060020DD
:1040A00060060020546D72510000000010B516E04B
:1040B00000F0ACFE0C48C068C468201D00F044FE4F
:1040C0000A480068401E0949086009480068401E07
:1040D0000749086000F0C4FE204600F05EF804487E
:1040E00000680028E4D110BDC00500202800002091
:1040F0002400002070B504460D46206C70B1216C80
:10410000E0680844E0606168E068884201D32068A4
:10411000E0602846226CE168FCF7F0F970BD2DE9FB
:10412000F04104460F4615464FF00008A66B206C80
:1041300040B9206860BB606801F0C0FD8046002087
:10414000606025E07DB93946226CA068FCF7D6F99D
:10415000216CA0680844A060D4E90110884217D3FC
:104160002068A06014E03946226CE068FCF7C6F9CC
:10417000216CE068401AE0602168E068884203D260
:10418000216C6068401AE060022D01D106B1761EF4
:10419000701CA0634046BDE8F08110B5044694F859
:1041A000590030B9206B00F079FE204600F076FE11
:1041B0001AE094F85900012803D1204600F06EFE61
:1041C00012E094F85900022801D1012000E00020FB
:1041D00050B900BF502080F31188BFF34F8FBFF359
:1041E0006F8F00BF00BFFEE710BD00000146084A08
:1041F000126812680AB9012200E000220A600A6807
:1042000022B9034A1268D268106800E000207047A3
:104210005400002030B54FF47A63174800F00704CB
:104220002CB1C01D20F00700134C041B1B1B0246C1
:10423000124C22600024114D6C60D018083820F018
:1042400007000F4C206000240D4D2D686C600C4D54
:104250002D682C601146441A4C60094C24680C608F
:10426000084D4C682C60084D4C682C604FF00044A1
:10427000064D2C6030BD0000B80F00206C000020FF
:10428000740000207C0000207800002080000020C6
:1042900000BFFFF70BFF064800680128F9D94FF06F
:1042A000805004490860BFF34F8FBFF36F8FF0E772
:1042B0002401002004ED00E02DE9F04106460D4602
:1042C00017469846069C0DB9246000E02760E66317
:1042D00025640121204601F015F984F84C80BDE8E1
:1042E000F0812DE9F05F82460F4690469B460A9E7C
:1042F0000C9C4FEA8801A522206BFCF776F9A8F107
:104300000100216B01EB800929F0070909F0070082
:1043100008B9012000E0002050B900BF502080F310
:104320001188BFF34F8FBFF36F8F00BF00BFFEE751
:10433000002507E0795D04F134004155785D00B94E
:1043400002E06D1C102DF5D300BF00214320015564
:10435000382E00D33726E662E66400202065201D53
:1043600000F02BFD04F1180000F027FD2461C6F1D8
:104370003800A06164620020606584F858005A46E5
:104380005146484600F042FB20600B9808B10B985C
:104390000460BDE8F09F000010B5002407E004EBC6
:1043A00084010F4A02EB810000F0FAFC641C382CF7
:1043B000F5D30C4800F0F4FC0B4800F0F1FC0B487E
:1043C00000F0EEFC0A4800F0EBFC0A4800F0E8FCC4
:1043D00004480949086004480849086010BD000005
:1043E000240100208405002098050020AC05002051
:1043F000C0050020D40500201C0000202000002063
:1044000010B50146164800E0006803688B42FBD3F4
:104410000246436813448B4204D143684C682344EA
:10442000436001460A464B6813440468A34211D115
:104430000C4C03682468A34208D04B680468646885
:1044400023444B6003681B680B6005E0054B1B6849
:104450000B6001E003680B60884200D0016010BD72
:104460006C000020740000202DE9F04104460D4648
:1044700016461F464FF0000865602461B5420CD80F
:10448000F01BA169884202D34FF0010811E0211D01
:104490000948006800F094FC0BE0BE4204D2BD4223
:1044A00002D34FF0010804E0211D0448006800F029
:1044B00087FC4046BDE8F0815800002054000020F1
:1044C00070B5054600F0A2FCA86B08B9012400E015
:1044D000002400F0C5FC204670BD70B5054600F014
:1044E00095FCA86BE96B884201D1012400E000240F
:1044F00000F0B6FC204670BDF8B505460F461648DC
:104500000068C068C468201D00F01EFCE069012836
:104510001DD1A06941192B463A462046FFF7A4FF5A
:10452000A8B1002003462A4601460090204601F02B
:1045300021FD064656B900BF502080F31188BFF315
:104540004F8FBFF36F8F00BF00BFFEE700BF204655
:10455000616A8847F8BD000054000020F0B587B0BC
:1045600082E00398002811DA04AE56B900BF50204B
:1045700080F31188BFF34F8FBFF36F8F00BF00BF71
:10458000FEE7D6E90020B168904700BF03980028F5
:104590006ADB059C606908B9012000E0002010B9C1
:1045A000201D00F0D1FB02A800F0C0F805460398DA
:1045B0000A2857D2DFE800F009050731334F060813
:1045C000323400BF00BF00BF00BF0498A269811849
:1045D00003462A462046FFF747FFE8B12046616AB6
:1045E0008847E069012817D1002000900498A1694C
:1045F000421800231946204601F0BCFC074657B973
:1046000000BF502080F31188BFF34F8FBFF36F8F2F
:1046100000BF00BFFEE700BF25E000BF23E000BFF2
:104620000498A061A06908B1012000E0002050B901
:1046300000BF502080F31188BFF34F8FBFF36F8FFF
:1046400000BF00BFFEE7A06941192B462A4620465D
:10465000FFF70AFF07E094F82C0010B9204600F09D
:104660001DFC00E000BF00BF002203A90448006851
:1046700001F0E4F800287FF474AF07B0F0BD00004B
:104680005C000020F8B505460C4600F0B5FD684614
:1046900000F04CF80646009820BB44B9B54206D855
:1046A00001F0AAFB31462846FFF726FF1CE03CB18B
:1046B0000E480068006808B9012000E000200446A8
:1046C000A91B22460A48006800F098FC01F094FB00
:1046D00050B94FF0805007490860BFF34F8FBFF3C8
:1046E0006F8F01E001F088FBF8BD0000580000204A
:1046F0005C00002004ED00E00A490968096809B976
:10470000012100E0002121B14FF0FF31064A116084
:1047100006E004490968C968C868034A416811602D
:10472000704700001C0000204800002070B50446BF
:1047300001F01CFA054607480068854204D200F0E3
:104740000BF80120206001E0002020600148056096
:10475000284670BD640000202DE9F84332E024486B
:104760000068C068056822480068C068C468201DE9
:1047700000F0EAFA2046616A8847E069012821D101
:10478000A0694619AE4207D966602461211D184808
:10479000006800F015FB15E0002003462A4601469C
:1047A0000090204601F0E6FB074657B900BF5020B5
:1047B00080F31188BFF34F8FBFF36F8F00BF00BF2F
:1047C000FEE700BF0A480068006808B9012000E061
:1047D00000200028C3D00648D0F8008005480068B3
:1047E000034908600348C0F80080BDE8F883000072
:1047F00054000020580000200E480068401C08B9F2
:10480000012000E0002050B900BF502080F3118843
:10481000BFF34F8FBFF36F8F00BF00BFFEE700BF36
:10482000502080F31188BFF34F8FBFF36F8F00BF0D
:1048300000BFFEE78400002008B500BF6846FFF710
:10484000D5FC044620460099FFF71CFFFFF786FEC3
:10485000F4E770B5044600F0D9FA94F9455010E039
:10486000606A08B9012000E0002038B904F1240092
:1048700001F076FA18B100F021FC00E003E0681EB8
:1048800045B2002DECDC00BFFF2084F8450000F0AD
:10489000E7FA00F0BBFA94F9445010E0206908B937
:1048A000012000E0002048B904F1100001F058FA9E
:1048B00008B100F003FC681E45B200E001E0002DE5
:1048C000ECDC00BFFF2084F8440000F0C9FA70BDA2
:1048D0002DE9F04104464FF0000800F08DFC4648F9
:1048E000006808B9FFF796FC44480068204000289B
:1048F0006BD1D4B1083404F00700B0B104F0070064
:10490000C0F10800044404F0070008B9012000E0E9
:10491000002050B900BF502080F31188BFF34F8FA3
:10492000BFF36F8F00BF00BFFEE7002C4DD03448AF
:104930000068844249D8334E3046056801E02E466F
:104940002D686868A04202D228680028F7D12A485A
:104950000068854239D0306800F108082868306066
:104960006868001B102819D92F1907F0070008B92B
:10497000012000E0002050B900BF502080F31188D2
:10498000BFF34F8FBFF36F8F00BF00BFFEE76868B4
:10499000001B78606C603846FFF732FD1849686884
:1049A0000968081A16490860084600681649096827
:1049B000884203D212480068134908600F496868AA
:1049C0000968084368600020286001F015FA08F0C3
:1049D000070008B9012000E0002050B900BF5020B6
:1049E00080F31188BFF34F8FBFF36F8F00BF00BFFD
:1049F000FEE74046BDE8F081740000208000002002
:104A0000780000206C0000207C000020001F4FF088
:104A100080730360001F21F001030360001F034B3C
:104A2000036014380260203870470000F94700081E
:104A300010B500201A4981F8E00081F87400C1F82F
:104A4000DC00086701F1A700FBF739FD04462146A9
:104A50001348A730FBF7D1FD11483C30FBF72FFD81
:104A6000044621460E483C30FBF7E9FD0C480A306D
:104A7000FBF725FD0446214609480A30FBF7BDFD3A
:104A800007487530FBF71BFD044621460448753086
:104A9000FBF7B3FDF0210348FBF7D1FD10BD00008B
:104AA000A42500204C2400207B2802D101212C4A7F
:104AB00011702B49097801291FD12A4991F8F12059
:104AC000491C8854491E91F8F110491C254A82F866
:104AD000F1107D2811D10221214A1170214991F84C
:104AE000F110032903DD01211E4A117005E00021A8
:104AF0001C4A82F8F1101A4A11701A4991F8F11003
:104B0000F02903DB0021174A82F8F1101649097ECB
:104B100021F00201891C144A117600221249896988
:104B200062F38B01104A916105220F49896962F392
:104B300015310D4A91610D4991F8F0100B4A50540E
:104B4000114691F8F010491C82F8F010114691F8C6
:104B5000F010F02902DB002182F8F010704700000D
:104B6000B00000207B270020542100206E28002068
:104B700070B504460E4631462046FBF76AFC051B1D
:104B8000002D01DB284670BD4FF0FF30FBE7000031
:104B900008B5002000903EE04048009910F8210040
:104BA000C0F3400058B33D49009A01EB8200016810
:104BB0008908491C026861F38B020260374800993A
:104BC00050F82100C0F389003449009A51F82210AE
:104BD000C1F3093188421BDD3049009A01EB8200A4
:104BE0000022016862F38B0101602C49009A01EBFD
:104BF0008200017821F00101491C017008E0274979
:104C0000009A01EB82000022016862F38B010160CF
:104C10000098401C009000980A28BDDB00200090FE
:104C200038E01F48009910F82100C0F3400028B375
:104C30001B48009950F82100C0F3890000280BDDC3
:104C40001749009A01EB820001688908491E026831
:104C500061F38B0202601AE01149009A01EB8200B5
:104C6000017821F0020101700D49009A01EB8200E8
:104C7000017821F00101491C017008E00849009AFF
:104C800001EB82000022016862F38B010160009851
:104C9000401C009000980A28C3DB08BD5421002066
:104CA0007C210020002000BF49E0264911F8201097
:104CB000C1F38001B9B3234951F82010C908491C38
:104CC000204A52F8202061F3CC021E4941F82020EE
:104CD00051F82010C1F3C9011A4A52F82020C2F33A
:104CE0004932914229DD174911F8201001F00101E4
:104CF00039B9144911F8201021F00401114A02F8C1
:104D0000201000220F4951F8201062F3CC010D4A07
:104D100042F82010114611F8201021F00201891CE0
:104D200002F8201009E0FFE70022064951F82010A0
:104D300062F3CC01034A42F82010411C88B20A28D1
:104D4000B3DB7047A421002001460A69D1E9013094
:104D50009860D1E9010358605068884201D18868A1
:104D60005060002008611068401E10601068704795
:104D7000034B0360034B0B604FF480731360704769
:104D8000000700205C070020034B0360034B0B600F
:104D90004FF48073136070475C0B0020B80B002049
:104DA00000F1080141604FF0FF31816000F108011E
:104DB000C1600161002101607047002101617047FD
:104DC00010B502460B685C1C0CB9106907E002F1D3
:104DD000080000E04068446824689C42FAD94468AE
:104DE0004C604C68A160886041600A611468641C72
:104DF000146010BD42684A6093688B609368596084
:104E00009160086103685B1C0360704700BF50201D
:104E100080F31188BFF34F8FBFF36F8F00BF0E4831
:104E20000068401C0C49086008460068012812D13F
:104E30000A480068C0B208B9012000E0002050B95B
:104E400000BF502080F31188BFF34F8FBFF36F8FE7
:104E500000BF00BFFEE770478400002004ED00E0C3
:104E60000D48006850B900BF502080F31188BFF38F
:104E70004F8FBFF36F8F00BF00BFFEE7064800688B
:104E8000401E054908600846006820B9002080F3EC
:104E9000118800BF00BF70478400002070B506462F
:104EA0003546002E3FD0083D2C461F4960680968F2
:104EB000084008B1012000E0002050B900BF502098
:104EC00080F31188BFF34F8FBFF36F8F00BF00BF18
:104ED000FEE7206808B9012000E0002050B900BFBB
:104EE000502080F31188BFF34F8FBFF36F8F00BF47
:104EF00000BFFEE70C4960680968084098B1206867
:104F000088B90949606809688843606000F074F9ED
:104F10000649606809680844044908602046FFF7AC
:104F20006FFA00F069FF70BD80000020780000205B
:104F300000204FF0E02108618861064800684FF4C6
:104F40007A71B0FBF1F0401E4FF0E021486107207C
:104F5000086170471400002070B5FBF76FF9044634
:104F6000102C16D304F1E02090F8F0531548007887
:104F7000854201DB012000E0002050B900BF502035
:104F800080F31188BFF34F8FBFF36F8F00BF00BF57
:104F9000FEE70D48006800F4E0600C4909688842AB
:104FA00001D8012000E0002050B900BF502080F35C
:104FB0001188BFF34F8FBFF36F8F00BF00BFFEE7B5
:104FC00070BD0000880000200CED00E08C00002087
:104FD000024600200BE0084B53F8303033B9064B43
:104FE00043F8301003EBC0035A6002E0401C08286D
:104FF000F1D300BF70470000E40000202DE9F0412C
:1050000005460E4617462C46FFF700FF94F944006C
:10501000401C10B9002084F8440094F94500401C5D
:1050200010B9002084F84500FFF71AFFA06B28B9DB
:105030003A46314604F1240000F062F82046FFF7BA
:1050400008FCBDE8F081000070B504460025D4B12D
:105050001248006808B9012000E0002050B900BFE4
:10506000502080F31188BFF34F8FBFF36F8F00BFC5
:1050700000BFFEE700F0C0F800212046FEF742FF27
:1050800000F0BAFE05463DB94FF080500449086073
:10509000BFF34F8FBFF36F8F70BD00005000002033
:1050A00004ED00E0034909680160034909684160B3
:1050B00070470000400000202C0000200120014922
:1050C000086070473C00002070B504460D4654B996
:1050D00000BF502080F31188BFF34F8FBFF36F8F55
:1050E00000BF00BFFEE70548016818312046FFF702
:1050F00067FE01212846FEF705FF70BD180000205D
:1051000070B505460E46144655B900BF502080F3D1
:105110001188BFF34F8FBFF36F8F00BF00BFFEE753
:105120000648016818312846FFF764FE0CB14FF0BD
:10513000FF3621463046FEF7E5FE70BD1800002020
:1051400010B586B000200590049003AA04A905A814
:10515000FFF70EFE0022DDE904101346CDE9002121
:1051600002901EA11F48039A00F094FC1E4908609B
:105170000846006808B1012400E00024012C02D197
:1051800000F0BCFE0446012C15D100BF502080F376
:105190001188BFF34F8FBFF36F8F00BF4FF0FF3009
:1051A0001249086001201249086000201149086076
:1051B00000F0A2F810E0601C08B1012000E000201F
:1051C00050B900BF502080F31188BFF34F8FBFF359
:1051D0006F8F00BF00BFFEE706B010BD49444C45CD
:1051E00000000000914200084C0000204800002010
:1051F000340000202C00002002480068401C0149B7
:1052000008607047500000201E48006818B1012057
:105210001D49086034E000201B4908601B480168F4
:105220000CE051B900BF502080F31188BFF34F8FBD
:10523000BFF36F8F00BF00BFFEE7491E01EB810087
:10524000134A52F8200008B9012000E0002000288D
:10525000E7D101EB81020E4B03EB820042685268FA
:10526000426000F108024368934202D142685268EA
:1052700042604268D268074B1A600448016000BF70
:1052800070470000500000203C000020300000204B
:10529000240100201800002070B50446002511E00C
:1052A000FEF7DEFD0120FEF711FE074890F8F4003E
:1052B00000F0010008B1012070BD6D1CA54201DDA8
:1052C0000020F9E7ECE700005E20002070B50446FE
:1052D00000250EE00120FEF7F9FD0648007800F0F9
:1052E000010008B1012070BD6D1CA54201DD002048
:1052F000F9E7EFE7882600201CB538490846007812
:105300000190FF200A4610700846007800909DF832
:10531000000000F0F0009DF80020904201D1012033
:1053200000E0002050B900BF502080F31188BFF387
:105330004F8FBFF36F8F00BF00BFFEE79DF80000E7
:1053400000F05000264A10700720264A106009E03D
:1053500024480068401E234A10609DF80000400663
:10536000000E00909DF8000000F080008028EFD033
:105370001C480068C0F10700042801D1012000E0AA
:10538000002050B900BF502080F31188BFF34F8F29
:10539000BFF36F8F00BF00BFFEE712480068000236
:1053A000104A10601046008800F4E06010600B4A5C
:1053B000019810700C48006840F470000A490860B9
:1053C0000846006840F070400860FFF7B1FD00201B
:1053D00006490860FAF7FCFE00201CBD00E400E06E
:1053E000880000208C00002020ED00E084000020D8
:1053F00010B500BF502080F31188BFF34F8FBFF36B
:105400006F8F00BF00F0B8FB18B14FF08050044917
:10541000086000BF002080F3118800BF10BD0000AD
:1054200004ED00E02DE9F84380460E4617461D4680
:10543000DDF82090B8F1000F01D0012000E000203D
:1054400050B900BF502080F31188BFF34F8FBFF3D6
:105450006F8F00BF00BFFEE70DB1012000E000200C
:1054600050B900BF502080F31188BFF34F8FBFF3B6
:105470006F8F00BF00BFFEE707B10EB1012000E053
:10548000002050B900BF502080F31188BFF34F8F28
:10549000BFF36F8F00BF00BFFEE707B90EB9012051
:1054A00000E0002050B900BF502080F31188BFF306
:1054B0004F8FBFF36F8F00BF00BFFEE750200090FB
:1054C0000098502801D1012000E0002050B900BF11
:1054D000502080F31188BFF34F8FBFF36F8F00BF51
:1054E00000BFFEE72C464CB1012084F846004B4635
:1054F0003A46314640460094FEF7DEFE2046BDE8BF
:10550000F883000070B505460E462C4654B900BF1E
:10551000502080F31188BFF34F8FBFF36F8F00BF10
:1055200000BFFEE7FFF772FCD4E90F12206801FB11
:10553000020060600020A0632068A060E06B401E55
:10554000226C216800FB0210E060FF2084F8440018
:1055500084F845009EB9206908B9012000E00020C8
:10556000A8B904F1100000F0FBFB80B14FF08050AF
:1055700009490860BFF34F8FBFF36F8F07E004F155
:105580001000FFF70DFC04F12400FFF709FCFFF702
:1055900067FC012070BD000004ED00E02DE9FF4331
:1055A00083B0064688461D464FF00009344654B97C
:1055B00000BF502080F31188BFF34F8FBFF36F8F70
:1055C00000BF00BFFEE7B8F1000F01D1206C08B9A1
:1055D000012000E0002050B900BF502080F3118866
:1055E000BFF34F8FBFF36F8F00BF00BFFEE7022DE9
:1055F00002D1E06B012801D1012000E0002050B968
:1056000000BF502080F31188BFF34F8FBFF36F8F1F
:1056100000BF00BFFEE700F099FA08B9059808B985
:10562000012000E0002050B900BF502080F3118815
:10563000BFF34F8FBFF36F8F00BF00BFFEE700BF08
:10564000FFF7E4FBA06BE16B884201D3022D28D168
:105650002A4641462046FEF762FD0746606A08B9C1
:10566000012000E0002068B904F1240000F078FB7C
:1056700088B14FF0805032490860BFF34F8FBFF3BD
:105680006F8F08E03FB14FF080502D490860BFF3A5
:105690004F8FBFF36F8FFFF7E3FB012007B0BDE82B
:1056A000F083059818B9FFF7DBFB0020F6E7B9F1A6
:1056B000000F04D101A8FFF7F5FC4FF00109FFF737
:1056C000CFFBFFF799FDFFF7A1FB94F94400401CC5
:1056D00010B9002084F8440094F94500401C10B92A
:1056E000002084F84500FFF7BBFB05A901A800F0E6
:1056F00059F9F0B92046FEF7F0FEA0B104F1100010
:105700000599FFF7E1FC2046FFF7A3F800F074FBD2
:10571000002895D14FF0805009490860BFF34F8FA2
:10572000BFF36F8F8CE72046FFF793F800F064FB20
:1057300086E72046FFF78DF800F05EFB0020ADE71E
:1057400004ED00E02DE9F05F07468A4690461E46CC
:105750003C4654B900BF502080F31188BFF34F8FEF
:10576000BFF36F8F00BF00BFFEE7BAF1000F01D19A
:10577000206C08B9012000E0002050B900BF502083
:1057800080F31188BFF34F8FBFF36F8F00BF00BF4F
:10579000FEE7022E02D1E06B012801D1012000E0DA
:1057A000002050B900BF502080F31188BFF34F8F05
:1057B000BFF36F8F00BF00BFFEE7FFF7CDFB00BF59
:1057C0005021EFF3118081F31188BFF34F8FBFF3A6
:1057D0006F8F00BF0546A06BE16B884201D3022E9C
:1057E00023D194F945B0324651462046FEF797FC46
:1057F0000BF1010088B9606A08B9012000E00020BF
:1058000080B904F1240000F0ABFA58B1B8F1000FF0
:1058100008D00120C8F8000004E00BF1010040B2FC
:1058200084F845004FF0010901E04FF0000900BF86
:1058300085F3118800BF4846BDE8F09F2DE9F74188
:1058400083B005460E464FF000082C4654B900BF01
:10585000502080F31188BFF34F8FBFF36F8F00BFCD
:1058600000BFFEE70EB9206C08B9012000E000205F
:1058700050B900BF502080F31188BFF34F8FBFF3A2
:105880006F8F00BF00BFFEE700F060F908B9059810
:1058900008B9012000E0002050B900BF502080F37B
:1058A0001188BFF34F8FBFF36F8F00BF00BFFEE7BC
:1058B00000BFFFF7ABFAA76BF7B131462046FEF702
:1058C00019FC781EA063206908B9012000E00020BF
:1058D00060B904F1100000F043FA38B14FF0805085
:1058E0002F490860BFF34F8FBFF36F8FFFF7B8FAF0
:1058F000012006B0BDE8F081059818B9FFF7B0FAAD
:105900000020F6E7B8F1000F04D101A8FFF7CAFBA9
:105910004FF00108FFF7A4FAFFF76EFCFFF776FAE5
:1059200094F94400401C10B9002084F8440094F914
:105930004500401C10B9002084F84500FFF790FA9C
:1059400005A901A800F02EF8F0B92046FEF7B8FD31
:10595000A0B104F124000599FFF7B6FB2046FEF73D
:1059600078FF00F049FA0028A3D14FF080500C498D
:105970000860BFF34F8FBFF36F8F9AE72046FEF7A3
:1059800068FF00F039FA94E72046FEF762FF00F066
:1059900033FA2046FEF794FD00288AD00020A8E7BD
:1059A00004ED00E070B505460C4655B900BF502027
:1059B00080F31188BFF34F8FBFF36F8F00BF00BF1D
:1059C000FEE754B900BF502080F31188BFF34F8F1A
:1059D000BFF36F8F00BF00BFFEE7FFF717FA124853
:1059E00002686868131A2068401C08B9002617E08E
:1059F0000E4928680968884204D06868904201D836
:105A000001260DE02068984207D92068C01A20605E
:105A10002846FFF747FB002602E000202060012611
:105A2000FFF71EFA304670BD2C0000204000002019
:105A30002DE9FF4F85B0804689461746DDE912AB58
:105A4000B800FEF745FF064656B15C20FEF740FF62
:105A500004460CB1266304E03046FFF71FFA00E06D
:105A600000248CB1002084F85900CDE900ABCDE9C9
:105A700002403A4649464046089BFEF732FC204623
:105A8000FEF77EFA012501E04FF0FF35284609B008
:105A9000BDE8F08F2DE9F04F85B007468846914666
:105AA0009A46DDE90EB6109C0EB1012000E0002000
:105AB00050B900BF502080F31188BFF34F8FBFF360
:105AC0006F8F00BF00BFFEE70CB1012000E0002097
:105AD00050B900BF502080F31188BFF34F8FBFF340
