:020000040800F2
:10000000E02D00204D020008952700084D2700082C
:100010009127000879120008192D0008000000003F
:10002000000000000000000000000000B501000812
:100030001913000800000000F90100080928000851
:1000400067020008670200086702000867020008EC
:1000500067020008670200086702000867020008DC
:1000600067020008670200086702000867020008CC
:10007000B9120008C9120008D9120008E9120008D4
:10008000F912000809130008670200086702000857
:10009000670200086702000867020008670200089C
:1000A000670200086702000867020008670200088C
:1000B000670200086702000867020008670200087C
:1000C000670200086702000867020008670200086C
:1000D00067020008912C0008CD2C0008092D0008AB
:1000E00067020008670200086702000800F002F8D3
:1000F00000F050F80AA090E8000C82448344AAF172
:100100000107DA4501D100F045F8AFF2090EBAE86F
:100110000F0013F0010F18BFFB1A43F0010318473B
:100120005856000078560000103A24BF78C878C1AD
:10013000FAD8520724BF30C830C144BF04680C60ED
:10014000704700000023002400250026103A28BF35
:1001500078C1FBD8520728BF30C148BF0B60704739
:10016000642900F03181002070471FB59DE803002D
:1001700000F0DAFA00F01AFE04000020002105F079
:10018000CDFA401C606000F047FD1FBD10B500F0C7
:10019000ACFD10BD00F0E4FD1146FFF7E6FF03F0F3
:1001A0006FF800F04DFF03B4FFF7F0FF03BC00F061
:1001B00085FF0000224B19680868B0E8F00F80F353
:1001C0000988BFF36F8F4FF0000080F311884EF065
:1001D0000D0E70470000000006480068006880F3BC
:1001E000088862B661B6BFF34F8FBFF36F8F00DF31
:1001F00000BF00BF08ED00E0EFF30980BFF36F8F91
:100200000F4B1A6820E9F00F106008B54FF050004E
:1002100080F31188BFF34F8FBFF36F8F04F0B6FBED
:100220004FF0000080F31188BDE8084019680868A5
:10023000B0E8F00F80F30988BFF36F8F704700BFFD
:1002400018000020EFF30580704700000948804740
:1002500009480047FEE7FEE7FEE7FEE7FEE7FEE7A8
:10026000FEE7FEE7FEE7FEE704480549054A064BC0
:10027000704700007D280008ED000008E0270020FE
:10028000E02D0020E0290020E029002070B506467E
:1002900000F02AFA056806F10B0020F00704B442CA
:1002A0009CBF002070BD2B466A68BAB11068A0429E
:1002B00010D304F1080188423CBF5068586007D34E
:1002C0005168101941601168091B01605860146081
:1002D000101D70BD13465268002AE7D121462846FA
:1002E00000F00EFA0028DED170BD70B50446051F7F
:1002F00000F0FAF90068002C14BF446870BD002CAF
:1003000018BFAC423CBF20466468F8D301680A18A5
:10031000AA4218BF456003D12A680546114401600E
:1003200028684119A1421CBF6C6070BD616869609A
:1003300021680844286070BD0FB41CB5074B06AA9D
:100340007B4469460090059800F083FA00206946D6
:1003500000F092FA1CBC5DF814FB000035050000AB
:100360002DE9F0410E460446002020622046E16857
:10037000884730B3252805D0D4E901219047206A69
:10038000401CF2E7E168204600278847050018D0A6
:10039000A5F14100192802D820354FF400673246F4
:1003A000294620462760FFF7DBFE40B1012804D034
:1003B000F61D26F007060836D8E7361DD6E728468C
:1003C000DAE7206ABDE8F0812DE9F0410646002415
:1003D00010687529314616A510D0AFF300800028AB
:1003E00002DA404213A507E031688A0701D512A559
:1003F00002E0490704D511A5012401E0AFF3008014
:1004000000210A2206F1240709E0B0FBF2FCB0FB50
:10041000F2F302FB1C00303078541846491C0028C7
:10042000F3D123462A463046BDE8F04100F0B2B988
:10043000000000002D0000002B0000002000000044
:1004400070B5064600F054F90468054630460A22A5
:10045000002100F016FA2C6070BD000010B50446B3
:1004600003E002F023FE401C09D014F8010B0549FB
:100470000028F6D1BDE810400A2002F017BE4FF068
:10048000FF3010BDD426002030B505460B462A4665
:1004900013F8014B12F8010B08B1A042F8D01CB1BF
:1004A000002802D06D1CF1E7284630BD40EA010368
:1004B000024630B59B0710D14FF0013400E008C26E
:1004C00008C91D1B9D4315EAC41FF8D013F0FF0196
:1004D00002F8011B0DD01B0AF8E711F8013B002BB5
:1004E00002F8013B05D011F8013B002B02F8013B5B
:1004F000F3D130BD10B5431C02E010F8011B71B1FF
:100500008107FAD14FF0013202C88C1A8C4314EAE9
:10051000C211F9D0C01A0A0603D0C01E10BDC01AFD
:1005200010BD0A0401D0801E10BD0902FCD0401E7F
:1005300010BD032A40F2308010F0030C00F015804B
:1005400011F8013BBCF1020F624498BF11F801CBD6
:1005500000F8013B38BF11F8013BA2F1040298BF3B
:1005600000F801CB38BF00F8013B11F0030300F0A5
:10057000C081083AC0F0088051F8043B083A51F8AD
:1005800004CBA0E80810F5E7121D5CBF51F8043B4E
:1005900040F8043BAFF30080D20724BF11F8013BC1
:1005A00011F801CB48BF11F8012B24BF00F8013B23
:1005B00000F801CB48BF00F8012B704702F0FF03A1
:1005C00043EA032242EA024200F002B84FF000027E
:1005D0000429C0F0128010F0030C00F01B80CCF155
:1005E000040CBCF1020F18BF00F8012BA8BF20F8C3
:1005F000022BA1EB0C0100F00DB85FEAC17C24BF17
:1006000000F8012B00F8012B48BF00F8012B7047C0
:100610004FF0000200B5134694469646203922BF9B
:10062000A0E80C50A0E80C50B1F12001BFF4F7AFE6
:10063000090728BFA0E80C5048BF0CC05DF804EBC8
:10064000890028BF40F8042B08BF704748BF20F836
:10065000022B11F0804F18BF00F8012B70470000EB
:100660004FF0013C50F8042B51F8043B9A4221D141
:10067000A2EB0C03934313EACC1317D150F8042BCD
:1006800051F8043B9A4215D1A2EB0C03934313EAB1
:10069000CC130BD150F8042B51F8043B9A4209D1EA
:1006A000A2EB0C03934313EACC13DBD04FF0000012
:1006B000704700BFD01A01BAB1FA81F101F01801F8
:1006C00022FA01F0CB40C1F12001DBB2C0B2C01A66
:1006D0002CFA01F3D11A914311EAC311E6D1704704
:1006E000704770477047000000487047842700201B
:1006F000004870477C27002070477047704770475C
:1007000038B504460A4600206946AFF30080002849
:1007100008BF38BD02460099204600F029F90120A3
:1007200038BD012000F014BBF8B5AFF300800546DA
:1007300000200C46102000BF0646A819A0420DD983
:10074000324669460020AFF30080070008BF00F082
:10075000FFFA0098A04218BF0546C419FFF7C4FF6E
:1007600005600746F01D20F007004619284600F0F6
:100770000AF8B44208BFF8BDA21B31463868BDE88C
:10078000F84000F0F5B800210160C0E901107047A1
:10079000102070472DE9F0470D46994692460446D1
:1007A00000F124080168880604D5E06921F01001F1
:1007B000216000E00120A84201DD471B00E0002786
:1007C000A1697A1902EB0900081AA0612078C00615
:1007D00002D42046AFF30080002608E0D4E90121CE
:1007E0001AF806009047206A401C761C20624E458D
:1007F000F4DB2078C0060AD52046AFF3008006E07F
:10080000D4E9012130209047206A401C2062381E24
:10081000A7F10107F4DC07E0D4E9012118F805008D
:100820009047206A401C2062281EA5F10105F3DCD8
:100830002046AFF300802078000602D50220BDE8F4
:10084000F0870120FBE7000001694A1C026108787B
:10085000704700B58FB0CDE9013100210591054900
:100860007944CDE9031011466846FFF779FD0FB0D2
:1008700000BD0000E5FFFFFF0A6802F8010B0A60F7
:1008800070472DE9F04791460F4680460446002602
:1008900014F8015B2DB100F063F80068405DC007FB
:1008A000F6D12B2D02D02D2D18D0641E4A46394684
:1008B000204600F077F827B13968A14201D1C7F886
:1008C00000804FF0020471050BD54042002803DD83
:1008D000FFF70EFF0460A007BDE8F08746F48066CE
:1008E000E4E70028F8DAFFF703FF04606FF0004048
:1008F000F2E710B5203AC0F00B80B1E81850203A6A
:10090000A0E81850B1E81850A0E81850BFF4F5AFAF
:100910005FEA027C24BFB1E81850A0E8185044BF39
:1009200018C918C0BDE810405FEA827C24BF51F8A6
:10093000043B40F8043B08BF7047D20728BF31F89A
:10094000023B48BF11F8012B28BF20F8023B48BFEB
:1009500000F8012B70470000004870477C270020FA
:1009600010B500F023FA001D10BD00BFB14D00000E
:10097000034640688C46002818BF88423CBF0346A7
:100980004068F8D318681844884207D00CF1030077
:1009900020F00700001D411A521A0146081D0A6086
:1009A000FFF7A3BC2DE9F05F824615468B46002772
:1009B0000AF10104B9460078302801D09DB113E056
:1009C00014F8010B0127782803D0582801D045B12D
:1009D0000AE00DB1102D07D1002714F8010B1025E6
:1009E00002E0082500E00A250026B0460EE005FBDF
:1009F000080005FB06F101271FFA80F801EB1046FD
:100A0000B6F5803F00D3B94614F8010B294600F033
:100A1000D1F90028EBDABBF1000F05D00FB1641E4D
:100A200000E05446CBF80040B9F1000F06D0FFF7C4
:100A30005FFE02210160C81EBDE8F09F48EA064043
:100A4000FAE72DE9F04705460C46C86820F4201067
:100A500040F48000C860800602D5084600F033FAF2
:100A6000E06841F282014FF0FF390140022903D0D2
:100A7000204600F0D1F9B5E000F42041B1F5004F77
:100A80000FD1C00306D56168E06A884200D80846E5
:100A9000606006E02069E0626060606902F0E0F991
:100AA000A061A0680022EEB200280DDAE1688B0593
:100AB0000AD4C043A06041F490302260E0606068D6
:100AC000411C61600670A5E0E0689046226040F439
:100AD0000050E060206968BB606902F0D3F901272B
:100AE00004F12405A0B1A08910F4407F08D0E0698A
:100AF000FFF7CCFB206118B1E06840F4006016E01D
:100B0000E7612561E06820F4407040F480600EE009
:100B1000E069FFF7BBFB00282061F1D0E06840F4FA
:100B2000006010F4407FE06002D140F48070E0602B
:100B300020696060E06825696FF0010AC1051FD572
:100B40006168E06A884200D80846411B04D022460A
:100B5000284600F06BF9F0BBE068010203D5E562BE
:100B6000C4E9015854E0691CE1626160E16940F444
:100B70008030491EC4E9021030462E70BDE8F0876F
:100B8000010202D500F480320AE06068411C616015
:100B90000670E0680A2E40F48030E06006D0002243
:100BA000E16A6068814203D90B4602E00122F7E75F
:100BB0000346A7895B1B7F0503D4E7699F4200DDDD
:100BC000E2B1814200D80146E5620F1AC4E901583A
:100BD000002B09DD00E005E022461946284600F01A
:100BE00025F908B14846C9E747B1A069E5626560E3
:100BF000C01BA061E06840F01000E060E068000207
:100C000008D56168A069E562491B08446560A06178
:100C10005046B3E73046B1E710B542485421FFF7DC
:100C2000F7FC41485421FFF7F3FC40485421FFF7FB
:100C3000EFFC3F493B483C4A3F4B08603D490A6056
:100C40003A491960531C0365481C1065012008656A
:100C50003B48344A39A1784400F056F920B9384865
:100C600078440A3800F0FAF937482F4A35A1784419
:100C700000F04AF920B9344878440A3800F0EEF917
:100C800032482A4A2FA1784400F03EF920B92F4873
:100C900078440A3800F0E2F940232248DC000021C1
:100CA000224600F095F820B125487844543800F0E9
:100CB000D5F91D4822464023002100F089F820B1D3
:100CC00021487844543800F0C9F9184822461023C6
:100CD000002100F07DF8002806D01C487844BDE8CB
:100CE0001040563800F0BAB910BD104870B5006D0C
:100CF00020F001040B4800F07DF90B4800F07AF970
:100D00000A4800F077F909E0206D20F0010520463F
:100D100000F070F92046FFF7E8FA2C46002CF3D1DA
:100D200070BD000080260020D42600202827002047
:100D3000A4000020A8000020AC00002072000000E9
:100D4000064B000077000000F54A0000E54A00006D
:100D500010B500F08BF9BDE8104000F07AB970478B
:100D60007546FFF7F9FDAE4605006946534620F08B
:100D70000700854618B020B5FFF776FABDE8204099
:100D80004FF000064FF000074FF000084FF0000B47
:100D900021F00701AC46ACE8C009ACE8C009ACE8FA
:100DA000C009ACE8C0098D46704700000048704794
:100DB0009C2700203A2800D2303820F02002412A17
:100DC00001D3A2F13700884201D34FF0FF307047C2
:100DD00070B5C468A50713D0650211D4B2F5807F41
:100DE00009D0B2F5007F06D0B2F5806F08D101239B
:100DF00000F1240106E05D1E6FF07F46B54201D38D
:100E0000012070BD0161C361416024F47061114330
:100E1000C160002070BD0000C16821F4001141F0E4
:100E20008001C16000218160016070472DE9F047B9
:100E3000814614460E464FF0FF383248D568576950
:100E4000054209D03846A16902F062F8002811DB9A
:100E50002C48C0430540E5602B463246494638469B
:100E600002F06CF8A16920F00042B21A1144002887
:100E7000A16103D02046FFF7CFFF4046BDE8F087D1
:100E800070B504460569C06A6168884200D80846A2
:100E9000E16821F42011E160C90312D5A84208D00D
:100EA0002246411B2846FFF7C1FF10B14FF0FF302B
:100EB00070BD0020E562C4E90150E06820F4803094
:100EC000E060002070BD10B50446C06820F020002E
:100ED000E060A16AA06988420DD02046FFF7D0FFEC
:100EE000E06820F4405040F01000E060A06AA0618B
:100EF0002069E062606044F24001E0688843E0609D
:100F000010BD0000100002002DE9F0410C4607461C
:100F10001646104600F06EF82078611C61280AD051
:100F2000722802D077283CD102E00125002405E098
:100F30000225042402E0082448F2020511F8010BFE
:100F40002B2806D0622809D011F8010C74280AD089
:100F50000BE045F0030544F00204EFE745F004051B
:100F600044F00104EAE744F010043846214601F059
:100F70009BFF411C15D00021316171604FF400715D
:100F8000F560F1617061200704D53046022200212E
:100F900000F09AF8306D40F0010030653046BDE851
:100FA000F0810020FBE72DE9F0410D460646104C8C
:100FB000206DC10704D0410804D020F00104F7E7F8
:100FC00022460EE05420FFF761F907000ED0206D95
:100FD00047F001010843542120653846FFF718FB0C
:100FE0003A4629463046BDE8F0418DE70020D6E775
:100FF000802600202DE9F04704464FF000094FF00D
:10100000FF37C568D4E90486A80707D02046FFF754
:1010100037FF304601F011FF002802DA3846BDE8FC
:10102000F087280502D54046FFF75FF94C2120469E
:10103000FFF7EEFA206D20F0010020654846EEE74C
:1010400010B50446AFF300802046BDE81040FFF71E
:10105000AAB8002801D000F031B8704710B500F0F0
:10106000C9F8BDE81040FFF7F4BF000010B5012833
:1010700005D0002103A000F0A3F8012010BD09A1B4
:10108000F8E7000053494752544D454D3A204F75FB
:1010900074206F662068656170206D656D6F727970
:1010A000000000003A2048656170206D656D6F7228
:1010B0007920636F7272757074656400014918203D
:1010C000ABBEFEE7260002002DE9F04104461646BD
:1010D0000D464769007B80072ED0384601F0D2FECE
:1010E00050BB3EB3012E02D0022E25D104E0204693
:1010F00000F0A1F805441DE0384601F0B1FEE168BA
:10110000002841F01001E16005DA2046FFF784FE77
:101110000120BDE8F081C9030BD56268E16A914204
:1011200000D81146A26911442269891A814200DD62
:1011300008460544002D01DA0220EAE7E16A60680A
:10114000E268814206D29103E06203D522F40031C5
:1011500041F01002A6690027AE4213DCE16A814229
:1011600001D90B4600E0034603EB060C2369ACEB08
:10117000030CAC4506DD814201D98C4600E0844673
:101180009C4505D1A760276042F02000A5620DE0D4
:10119000AD1BE669AE1B8142A66000D90846C01AA5
:1011A000281A20605819606022F020000349084086
:1011B000E060002084F84870ABE70000BFCFD7FFA5
:1011C00070B505460C460A2000E06D1C00F02CF8B6
:1011D00035B128780028F8D102E0641C00F024F82A
:1011E00014B120780028F8D1BDE870400A2000F042
:1011F0001BB8000010B5014602A0FFF7E1FF012077
:1012000010BD000053494752545245443A2052659C
:101210006469726563743A2063616E2774206F702D
:10122000656E3A200000000008B569468DF80000A0
:101230000320ABBE08BD10B50146C268900703D0BD
:10124000900607D5886A0AE0FFF752FA012101608B
:10125000881E10BD8B69486818440B69C01A91F844
:1012600048301BB191F84910401A10BD1103FCD54C
:101270000028FADD401E10BD00BFFEE730B5024673
:101280000B464FF6FF700021002400BF10E0555CB4
:101290006840082409E000F0010525B140084AF241
:1012A0000105684000E04008641E002CF3D1491C91
:1012B0009942ECDB30BD000010B5024800F0DAF8CE
:1012C00010BD00005C23002010B5024800F0D2F8E9
:1012D00010BD00001823002010B5024800F0CAF825
:1012E00010BD00004C22002010B5024800F0C2F8EA
:1012F00010BD00000822002010B5024800F0BAF826
:1013000010BD00009022002010B5024800F0B2F895
:1013100010BD0000D4220020704772B600BFFEE767
:1013200000B585B00020019002900390049000BFAA
:101330002148806940F004001F498861084680699F
:1013400000F00400009000BF00BF00BF08468069A5
:1013500040F0080088610846806900F008000090AD
:1013600000BF00BF00223021144800F024FB0820F9
:101370000190002002900120039001A90F4800F085
:101380007BF9302001900120029000200390022080
:10139000049001A9094800F06FF94FF480700190A2
:1013A00001200290002003900220049001A904482B
:1013B00000F062F905B000BD00100240000C0140D1
:1013C0000008014070B50446002594F82100022869
:1013D00003D00420A063012548E02068006820F0C5
:1013E0000E00216808602068006820F00100216874
:1013F00008601F492068884201D1012026E01C496D
:1014000014312068884201D110201FE0184928318A
:101410002068884201D1801518E015493C312068C8
:10142000884201D1801411E011495031206888426E
:1014300002D14FF4803009E00D49643120688842C0
:1014400002D14FF4801001E04FF080700849083954
:101450004860012084F8210000BF002084F82000AB
:1014600000BF606B10B12046616B8847284670BD95
:101470000800024070B50446E06B05682068066805
:1014800094F84010042088402840002846D006F0F8
:101490000400002842D02068006800F0200028B92D
:1014A0002068006820F0040021680860574920681F
:1014B000884201D1042027E0544914312068884231
:1014C00001D1402020E0514928312068884201D1D3
:1014D000001519E04D493C312068884202D14FF493
:1014E000804011E0494950312068884202D14FF4D0
:1014F000802009E0454964312068884202D14FF4D8
:10150000800001E04FF08060404908394860E06A9F
:1015100000287AD02046E16A884776E094F84010A7
:10152000022088402840A0B306F0020088B320685B
:10153000006800F0200040B92068006820F00A0030
:1015400021680860012084F8210030492068884221
:1015500001D1022028E02D4914312068884201D1B0
:10156000202021E0294928312068884201D14015F6
:101570001AE026493C312068884202D14FF40050DD
:1015800012E0224950312068884203D14FF40030E4
:101590000AE017E01D4964312068884202D14FF407
:1015A000001001E04FF0007018490839486000BF92
:1015B000002084F8200000BFA06A30B32046A16A52
:1015C000884722E094F84010082088402840E0B185
:1015D00006F00800C8B12068006820F00E002168FD
:1015E000086094F8401001208840E16B48600120B9
:1015F000A06384F8210000BF002084F8200000BF11
:10160000206B10B12046216B884770BD0800024056
:101610000146002209B901207047164B0868C01A1C
:101620001423B0FBF3F08000086412480838C86344
:10163000022081F821000868026843F6F0708243B6
:10164000D1E901031843CB6818430B6918434B6970
:1016500018438B691843CB6918430243086802603A
:1016600000208863012081F82100002081F82000FB
:1016700000BFD1E7080002402DE9F84703460022E9
:1016800094466EE14FF0010808FA02F4D1F80080A8
:1016900008EA0400A0427DD1DFF8DCA2D1F8048082
:1016A000A8EB0A09D0453AD014DCB8F1030F50D0AA
:1016B00009DCB8F1000F31D0B8F1010F1CD0B8F13E
:1016C000020F49D120E0B8F1110F18D0B8F1120F74
:1016D00042D11EE0B9F5881F25D006DCB9F5803F60
:1016E00020D0B9F5801F37D11AE0B9F5001F18D006
:1016F000B9F5041F30D117E0D1F80CC02DE0D1F8B6
:101700000C8008F1040C28E0D1F80C8008F1080CDA
:1017100023E0D1F80C8008F10C0C1EE000BF00BFE4
:1017200000BF00BF00BF00BFD1F80880B8F1000FB4
:1017300002D14FF0040C0BE0D1F80880B8F1010F92
:1017400003D14FF0080C1C6102E04FF0080C5C6103
:1017500003E04FF0000C00E000BF00BFFF2801D8FD
:10176000984601E003F104084646FF2802D84FEAF4
:10177000820803E0A2F108084FEA88084746D6F835
:1017800000804FF00F0909FA07F928EA09080CFA56
:1017900007F900E088E048EA0908C6F80080D1F8B7
:1017A000048008F08058B8F1805F7DD100BFDFF879
:1017B000CC81D8F8188048F00108DFF8C091C9F84A
:1017C0001880C846D8F8188008F00108CDF80080C5
:1017D00000BF00BF4FEAB9384FEA920958F82950C4
:1017E0004FEA82784FEA18794FF00F0808FA09F8A3
:1017F00025EA0805DFF88881434502D14FF000084B
:1018000016E0DFF88081434502D14FF001080FE078
:10181000DFF87481434502D14FF0020808E0DFF899
:101820006C81434502D14FF0030801E04FF00408FA
:101830004FEA82794FEA197908FA09F848EA05056A
:10184000DFF84C814FEA920948F82950D1F804801A
:1018500008F48038B8F5803F0AD1DFF83881D8F82D
:10186000008048EA0008DFF82C91C9F8008009E000
:10187000DFF82081D8F8008028EA0008DFF814910A
:10188000C9F80080D1F8048008F40038B8F5003FAA
:1018900010D1DFF8008108F10408D8F8008048EA88
:1018A0000008DFF8F09000E05AE009F10409C9F8F7
:1018B00000800DE0DFF8DC8008F10408D8F8008033
:1018C00028EA0008DFF8CC9009F10409C9F8008083
:1018D000D1F8048008F48018B8F5801F0ED1DFF825
:1018E000B48008F10808D8F8008048EA0008DFF85A
:1018F000A49009F10809C9F800800DE0DFF8948090
:1019000008F10808D8F8008028EA0008DFF8849079
:1019100009F10809C9F80080D1F8048008F400181A
:10192000B8F5001F0ED1DFF86C8008F10C08D8F86C
:10193000008048EA0008DFF85C9009F10C09C9F85A
:1019400000800DE0DFF84C8008F10C08D8F800802A
:1019500028EA0008DFF83C9009F10C09C9F800807A
:10196000521CD1F8008028FA02F8B8F1000F7FF479
:1019700089AEBDE8F8870000000011100010024099
:1019800000080140000C014000100140001401401B
:101990000800014000040140024693680B400BB16F
:1019A000012000E000207047C2680A400AB141618E
:1019B00000E0016170470AB1016101E00B040361BD
:1019C00070470000014800687047000008000020D0
:1019D00003480068034909780844014908607047D2
:1019E000080000201000002010B50848006840F0F2
:1019F000100006490860032000F0BCF80F2000F03A
:101A000007F800F02BF8002010BD00000020024075
:101A100070B504460E4800784FF47A71B1FBF0F0CF
:101A20000C490968B1FBF0F5284600F01FFC08B12D
:101A3000012070BD102C07D200222146501E00F05C
:101A40005BF80548046001E00120F2E70020F0E7C0
:101A500010000020140000200C00002008B500BF7A
:101A60001848806940F0010016498861084680697D
:101A700000F00100009000BF00BF00BF0846C06931
:101A800040F08050C8610846C06900F08050009066
:101A900000BF00BF00220F21901E00F02DF800BFF4
:101AA0000949486820F0E06040F00070486000BFDD
:101AB000064800F0D7FC064800F0D4FC054800F0CA
:101AC000D1FC08BD00100240000001404821002068
:101AD00088210020C821002001460846002809DB93
:101AE00000F01F0301229A4043099B0003F1E02309
:101AF000C3F8002100BF70472DE9F05F80460D4616
:101B00001646002701F058F9074639462A4633465B
:101B100001F00700C0F1070ABAF1040F02D94FF033
:101B2000040A01E0C0F1070AD14600F1040ABAF143
:101B3000070F02D24FF0000A01E0A0F1030AD446D9
:101B40004FF0010A0AFA09FAAAF1010A0AEA020A9E
:101B50000AFA0CFA4FF0010B0BFA0CFBABF1010B7C
:101B60000BEA030B4AEA0B042146404601F034F924
:101B7000BDE8F09F00BF00F00702064B19684FF662
:101B8000FF031940044B0B4343EA0221014B196048
:101B900000BF70470CED00E00000FA0570B5044688
:101BA0000D460CB9012070BD5A48006800F00700CE
:101BB000A8420ED25748006820F007002843554934
:101BC00008600846006800F00700A84201D0012024
:101BD000E9E7207800F0020002281DD1207800F00B
:101BE0000400042805D14C48406840F4E0604A49AC
:101BF0004860207800F00800082805D14648406871
:101C000040F46050444948604348406820F0F00088
:101C1000A168084340494860207800F0010078B38B
:101C20006068012806D13C48006800F4003090B993
:101C30000120B8E76068022806D13748006800F044
:101C4000007040B90120AEE73348006800F00200A0
:101C500008B90120A7E73048406820F00300616818
:101C600008432D494860FFF7ADFE064609E0FFF73F
:101C7000A9FE801B41F28831884202D9032092E7F5
:101C800007E02548406800F00C006168B0EB810F68
:101C9000EDD12048006800F00700A8420ED91D4889
:101CA000006820F0070028431A49086008460068C9
:101CB00000F00700A84201D0012074E7207800F06E
:101CC0000400042807D11448406820F4E060E1686B
:101CD000084311494860207800F00800082808D11E
:101CE0000D48406820F46050216940EAC1000A496B
:101CF000486000F03FF808494968C1F30311074AFA
:101D0000515CC8400649086006480068FFF780FE3D
:101D1000002048E700200240001002404857000819
:101D2000140000200C0000200148006870470000EB
:101D30001400002000B5FFF7F7FF04494968C1F31C
:101D40000221034A515CC84000BD0000001002405F
:101D50005857000800B5FFF7E7FF04494968C1F389
:101D6000C221034A515CC84000BD0000001002407F
:101D700058570008F0B585B00FF26C0C9CE8E010E5
:101D800001A8A0E8E0101CA52D6800950021002204
:101D9000002300240020194D696801F00C05F5B1FD
:101DA000042D02D0082D19D101E0154819E001AD2C
:101DB000C1F38346AC5D01F4803555B10F4D6D68BC
:101DC000C5F340451DF805200D4D6543B5FBF2F305
:101DD00002E00C4D04FB05F3184602E000BF084882
:101DE00000BF00BF05B0F0BD0203040506070809E7
:101DF0000A0B0C0D0E0F1010010200000010024023
:101E000000127A0000093D00F8B504460CB9012023
:101E1000F8BD207800F00100002878D0F84840682C
:101E200000F00C0004280CD0F548406800F00C00CD
:101E3000082811D1F248406800F48030B0F5803FA6
:101E40000AD1EF48006800F4003000285FD06068D5
:101E500000285CD10120DBE700BF6068B0F5803F5F
:101E600006D1E748006840F48030E549086028E082
:101E7000606858B9E248006820F48030E0490860A2
:101E80000846006820F4802008601AE06068B0F519
:101E9000A02F0BD1DA48006840F48020D8490860B0
:101EA0000846006840F4803008600AE0D4480068C2
:101EB00020F48030D24908600846006820F4802071
:101EC000086000BF606888B1FFF77CFD054606E04A
:101ED000FFF778FD401B642801D9032098E7C84824
:101EE000006800F400300028F2D010E0FFF76AFD2F
:101EF000054606E0FFF766FD401B642801D9032074
:101F000086E7BF48006800F400300028F2D120784E
:101F100000F00200022857D1B948406800F00C00D8
:101F200050B1B748406800F00C00082818D1B448F8
:101F3000406800F4803098B9B148006800F00200B1
:101F400020B12069012801D0012061E7AC48006878
:101F500020F0F800616940EAC100A949086033E057
:101F60002069E8B10120A7490860FFF72BFD05466D
:101F700006E0FFF727FD401B022801D9032047E7B1
:101F80009F48006800F002000028F2D09C480068DA
:101F900020F0F800616940EAC1009949086013E047
:101FA000002098490860FFF70DFD054606E0FFF7A1
:101FB00009FD401B022801D9032029E79048006849
:101FC00000F002000028F2D1207800F00800082874
:101FD0002DD1A069B8B101208B490860FFF7F2FC50
:101FE000054606E0FFF7EEFC401B022801D903205E
:101FF0000EE78348406A00F002000028F2D001207A
:1020000000F0EAFB13E000207F490860FFF7DAFCEC
:10201000054606E0FFF7D6FC401B022801D9032045
:10202000F6E67748406A00F002000028F2D12078F6
:1020300000F00400042873D100277148C06900F043
:10204000805070B900BF6E48C06940F080506C4944
:10205000C8610846C06900F08050009000BF00BF12
:1020600001276A48006800F48070B0B967480068CA
:1020700040F4807065490860FFF7A4FC054606E05F
:10208000FFF7A0FC401B642801D90320C0E65F488D
:10209000006800F480700028F2D000BFE0680128DA
:1020A00006D15748006A40F001005549086227E010
:1020B000E06858B95248006A20F0010050490862AF
:1020C0000846006A20F00400086219E0E06805286C
:1020D0000BD14B48006A40F00400494908620846A9
:1020E000006A40F0010008620AE04548006A20F0FA
:1020F0000100434908620846006A20F004000862B3
:1021000000BFE068A0B1FFF75DFC054609E0FFF7FE
:1021100059FC401B41F28831884202D9032077E6FE
:1021200022E03748006A00F002000028EFD012E0F9
:10213000FFF748FC054608E0FFF744FC401B41F26E
:102140008831884201D9032062E62D48006A00F0F8
:1021500002000028F0D1012F05D12948C06920F0E4
:1021600080502749C86100BFE069C8B3244840686F
:1021700000F00C00082860D0E069022848D1002057
:1021800020490866FFF71EFC054606E0FFF71AFC2B
:10219000401B022801D903203AE61948006800F0E4
:1021A00000700028F2D1206AB0F5803F07D11448B2
:1021B000406820F40030A168084311494860D4E920
:1021C000080108430E49496821F4741108430C4979
:1021D000486001200B490866FFF7F4FB054607E05D
:1021E0003DE0FFF7EFFB401B022801D903200FE67B
:1021F0000348006800F000700028F2D02FE00000D3
:102200000010024000004242800442420070004040
:10221000002014490866FFF7D5FB054606E0FFF7E6
:10222000D1FB401B022801D90320F1E50E480068CC
:1022300000F000700028F2D111E0E069012800D11F
:10224000E6E50948466806F48031206A814204D1F7
:1022500006F47011606A814201D00120D8E50020A7
:10226000D6E50000000042420010024070B504466E
:102270002546681EB0F1807F01D301200FE0681E63
:102280004FF0E02148610F214FF0FF3000F0A4FD36
:1022900000204FF0E021886107200861002070BD18
:1022A000704700002DE9F047044620680568206863
:1022B000C668206847694FF00008C14605F00F085E
:1022C000B8F1000F0AD105F0200038B106F0200067
:1022D00020B1204600F084FBBDE8F087B8F1000F84
:1022E0006DD007F0010018B906F49070002866D090
:1022F00005F0010030B106F4807018B1E06B40F0D9
:102300000100E06305F0040030B107F0010018B1EE
:10231000E06B40F00200E06305F0020030B107F02E
:10232000010018B1E06B40F00400E06305F0080024
:1023300030B107F0010018B1E06B40F00800E06335
:10234000E06B68B305F0200028B106F0200010B162
:10235000204600F045FB20684069C0F38019E06B1F
:1023600000F0080010B9B9F1000F22D0204600F0AB
:1023700017FB2068406900F04000B0B12068406958
:1023800020F0400021684861606B50B11748616BD4
:102390004863606BFFF716F810B1606B416B8847BC
:1023A0000CE02046FFF77CFF08E02046FFF778FFAF
:1023B00004E02046FFF774FF0020E0638CE705F09F
:1023C000800030B106F0800018B1204600F02CFCEF
:1023D00082E705F0400030B106F0400018B1204619
:1023E00000F0EEFA78E700BF76E700008D290008DC
:1023F00010B504460CB9012010BDA06900B100E081
:1024000000BF94F8390028B9002084F8380020462D
:1024100000F028F8242084F839002068C06820F4EF
:1024200000502168C860204600F02EFB206800693B
:1024300020F49040216808612068406920F02A005B
:10244000216848612068C06840F400502168C86075
:102450000020E063202084F8390084F83A0000204E
:10246000CAE7000010B586B0044600200290039031
:1024700004900590A749206888426AD100BFA64809
:10248000806940F48040A44988610846806900F46E
:102490008040019000BF00BF00BF0846806940F047
:1024A000040088610846806900F00400019000BFC4
:1024B00000BF48150290022003900320059002A956
:1024C0009648FFF7D9F84FF48060029000200390FF
:1024D000049002A99148FFF7CFF89148914908600C
:1024E0000020486000218F4881608021C160002168
:1024F000016141618161C161FFF78AF808B1FEF7AE
:102500000CFF00BF87486063446200BF84481438F2
:10251000854908601020486000218348816080213F
:10252000C1600021016141618161C161FFF770F803
:1025300008B1FEF7F2FE00BF7B482063446200BF93
:10254000002205212520FFF7D7FA2520FFF7C4FA3E
:10255000DDE07649206888426AD100BF6E48C069D4
:1025600040F400306C49C8610846C06900F400308E
:10257000019000BF00BF00BF0846806940F0040022
:1025800088610846806900F00400019000BF00BF28
:1025900004200290022003900320059002A95F48C6
:1025A000FFF76AF80820029000200390049002A927
:1025B0005A48FFF761F85A4814305D490860002016
:1025C000486000215A4881608021C160002101617A
:1025D00041618161C161FFF71BF808B1FEF79DFE03
:1025E00000BF53486063446200BF4D4828305149E2
:1025F00008601020486000214E4881608021C16041
:102600000021016141618161C161FFF701F808B1F9
:10261000FEF783FE00BF47482063446200BF0022EC
:1026200005212620FFF768FA2620FFF755FA6EE00D
:102630004149206888426AD100BF3748C06940F4E8
:1026400080203549C8610846C06900F480200190A7
:1026500000BF00BF00BF0846806940F008008861E5
:102660000846806900F00800019000BF00BF08150F
:102670000290022003900320059002A92F48FEF744
:10268000FBFF4FF40060029000200390049002A929
:102690002A48FEF7F1FF224828382949086000201F
:1026A00048600021264881608021C16000210161CD
:1026B00041618161C161FEF7ABFF08B1FEF72DFEFC
:1026C00000BF1F486063446200BF15483C381D4985
:1026D00008601020486000211A4881608021C16094
:1026E0000021016141618161C161FEF791FF08B183
:1026F000FEF713FE00BF13482063446200BF0022B0
:1027000005212720FFF7F8F92720FFF7E5F906B0A4
:1027100010BD0000003801400010024000080140D8
:1027200058000240082200204C22002000440040B3
:1027300090220020D422002000480040000C0140DC
:10274000182300205C2300207047704700BFFEE77D
:1027500010B500F065F8FEF7E3FD00F0BBF800F0FF
:10276000E7F810BDC16841F02001C1607047014623
:102770000868C0F34010704701460868C0F3C010F5
:1027800070470146C868C0F3401070474160704709
:1027900000BFFEE700BFFEE7F0B503460C4603F0BE
:1027A0000701C1F10700042801D9042001E0C1F1AB
:1027B00007000646081D072801D2002000E0C81EB9
:1027C00005460120B040401E2040A8400127AF40F0
:1027D0007F1E17403843F0BD08B508490968C9088D
:1027E0004FF47A72B1FBF2F14143009100BF00BF98
:1027F00000994A1E00920029F9D108BD140000205A
:1028000010B500F061FC10BD10B501F0D5FDFFF76B
:10281000DFF802F02DFD012801D002F07BF910BD98
:1028200000B58FB0282105A8FDF7F2FE14216846F7
:10283000FDF7EEFE022005900120099010200A907D
:1028400002200C9000210D914FF4C0110E9105A8AB
:10285000FFF7DAFA08B1FEF760FD0F2000900220C2
:102860000190002002900390049001216846FFF738
:1028700095F908B1FEF751FD0FB000BD1148006891
:1028800040F001000F490860084640680E490840C2
:102890000C494860084600680C490840094908602E
:1028A0000846006820F4802008600846406820F44C
:1028B000FE0048604FF41F008860C80304490860A8
:1028C00070470000001002400000FFF8FFFFF6FE16
:1028D00008ED00E070B51448144908604FF4165034
:1028E0004860002111488160C16001610C21416193
:1028F00000218161C161FFF77BFD08B1FEF70DFD8D
:102900000948FFF72FFF00F05FFA05460122114644
:10291000FFF742FF04462146252000F071FA2520EA
:1029200000F03DFA70BD0000003801404821002051
:1029300070B51448144908604FF4165048600021DF
:1029400011488160C16001610C21416100218161F8
:10295000C161FFF74DFD08B1FEF7DFFC0948FFF745
:1029600001FF00F031FA054601221146FFF714FF7E
:1029700004462146262000F043FA262000F00FFAF4
:1029800070BD0000004400408821002070B505465D
:102990006C6A0020E085E0842046FFF781FC70BD72
:1029A0000168C96821F490710268D16001684969C1
:1029B00021F0010102685161202180F83A1070472E
:1029C00010B504462068C06820F040002168C86047
:1029D000202084F839002046FFF7B7FE002010BD04
:1029E00070B5044694F83A0022284AD1A068B0F5A0
:1029F000805F13D1A56A206940B920684068C0F3A0
:102A000008002880A06A801CA06219E02068406845
:102A1000C0B22880A06A401CA06211E0206938B9C9
:102A200020684068C1B2A26A501CA062117007E021
:102A30002068406800F07F01A26A501CA0621170FB
:102A4000E08D401E80B2E085C8B92068C06820F0E3
:102A500020002168C8602068C06820F48070216868
:102A6000C8602068406920F001002168486120208A
:102A700084F83A002046FFF767FE002070BD002072
:102A8000FCE70220FAE7000070B5044621680969F6
:102A900021F44051E2681143226811612269A16862
:102AA0001143626941EA02052168C96841F20C627A
:102AB000914329432268D1602168496921F440711A
:102AC000A269114322685161564A2168914254D14A
:102AD000FFF740F900EBC00101EB001162689200C2
:102AE000B1FBF2F100EBC00202EB001263689B0045
:102AF000B2FBF3F26423B2FBF3F202EBC20303EB8B
:102B00000212A1EB8201322202EB01116422B1FB1D
:102B1000F2F101F0F00100EBC00202EB0012636879
:102B20009B00B2FBF3F26423B2FBF3F201EB02125F
:102B300000EBC00101EB001163689B00B1FBF3F1F6
:102B400000EBC00303EB00136668B600B3FBF6F3BB
:102B50006426B3FBF6F303EBC30606EB0313A1EB0A
:102B60008301322303EB01116423B1FBF3F101F084
:102B70000F0111442268916053E0FFF7DBF800EB8E
:102B8000C00101EB001162689200B1FBF2F100EBB1
:102B9000C00202EB001263689B00B2FBF3F26423F5
:102BA000B2FBF3F202EBC20303EB0212A1EB8201D0
:102BB000322202EB01116422B1FBF2F101F0F001CB
:102BC00000EBC00202EB001263689B00B2FBF3F261
:102BD0006423B2FBF3F201EB021200EBC00101EB44
:102BE000001163689B00B1FBF3F100EBC00303EB42
:102BF00000136668B600B3FBF6F36426B3FBF6F386
:102C000003EBC30606EB0313A1EB8301322303EBB3
:102C100001116423B1FBF3F101F00F0111442268AB
:102C2000916070BD00380140014691F839002128BB
:102C30002CD18868B0F5805F0FD10A6A1088C0F384
:102C400008000B685860086918B9086A801C086297
:102C500009E0086A401C086205E00B6A581C08621B
:102C600018780B685860C88C401E80B2C88458B968
:102C70000868C06820F080000B68D8600868C068E9
:102C800040F040000B68D860002070470220FCE74D
:102C900010B50B48FFF76BFD68B10948FFF771FDF0
:102CA00048B100BF06484068C0B2064908700846EF
:102CB000007800F011FB0448FFF7F4FA10BD0000A3
:102CC00000380140040000204821002010B50B48C6
:102CD000FFF74DFD68B10948FFF753FD48B100BF4C
:102CE00006484068C0B2064908700846007800F0FF
:102CF000B1F90448FFF7D6FA10BD000000440040C7
:102D0000050000208821002010B50248FFF7CAFA0C
:102D100010BD0000C821002000BFFEE700BF102149
:102D20001848FEF741FEC82000F012FC202115488B
:102D3000FEF73AFE1448007D20F00200801C124984
:102D400008754FF448711048406961F315300E4919
:102D500048610846007D00F001000028DFD00846E9
:102D6000007D20F00100087508480068401C0749F4
:102D70000860084600680428D1DB0020086000F0E5
:102D800013F9CCE7000C0140D02000200000002007
:102D900000BF642000F0DCFB01F0BCFAF9E700287A
:102DA00009DB00F01F02012191404209920002F16B
:102DB000E022C2F80011704702480068C0F3022008
:102DC000704700000CED00E002480068C0F30220EC
:102DD000704700000CED00E010B5002804DB0A0786
:102DE000130E054A135406E00A07140E034A00F0B6
:102DF0000F031B1FD45410BD00E400E018ED00E0E9
:102E000010B5002804DB0A07130E054A135406E028
:102E10000A07140E034A00F00F031B1FD45410BD01
:102E200000E400E018ED00E0EFF311807047EFF3ED
:102E300005807047EFF31080704701466FF4004043
:102E4000084420B1012804D0022806D103E0002064
:102E500070470020FCE70020FAE74FF0FF30F7E76B
:102E600001466FF40040084420B1012804D0022834
:102E700006D103E0002070470020FCE70020FAE7BD
:102E80000020F8E701466FF40040084420B1012813
:102E900004D0022806D103E0012070470120FCE79E
:102EA0000120FAE70020F8E770B504460D4614B992
:102EB0004FF0FF3070BD20783A281AD10EA120467D
:102EC000FDF7CEFB10B948F20100F3E70CA1204654
:102ED000FDF7C6FB10B948F20200EBE70AA1204655
:102EE000FDF7BEFB10B948F20300E3E74FF0FF30F7
:102EF000E0E74FF0FF30DDE73A535444494E00001D
:102F00003A5354444F5554003A5354444552520096
:102F100002466FF40040104420B1012805D0022879
:102F200009D105E04FF0FF3070474FF0FF30FBE76D
:102F30004FF0FF30F8E74FF0FF30F5E72DE9F041B3
:102F400006460C46154698466FF40040304420B1C2
:102F5000012806D0022811D10EE04FF0FF30BDE865
:102F6000F08105E014F8017B384601F09DF96D1EF3
:102F7000002DF7D10020F2E70020F0E74FF0FF30FE
:102F8000EDE7000010B5C8210548FDF71FFB002044
:102F9000044908700249491E087081F8C90010BD33
:102FA000B5250020A000002000B595B0642011498F
:102FB00008800846408870B1002048800846028892
:102FC0000DA101A8FDF7B8F902201549087001A864
:102FD000FDF744FA0CE00748028812A101A8FDF7AA
:102FE000ABF902200E49087001A8FDF737FA00BFBF
:102FF00015B000BD9C0000207B2273657269616C76
:10300000223A222564222C2275726C223A225357CE
:103010005F454E41424C453D3126222C7D0000004B
:10302000070000207B2273657269616C223A2225B9
:1030300064222C226E616D655F7731223A222D2247
:103040002C22646174615F7731223A222D222C7D1B
:10305000000000007B2802D10121124A11701149A1
:103060000978012913D1104991F8C920491C8854C5
:10307000491E91F8C910491C0B4A82F8C9107D28D5
:1030800005D10221074A11700121074A1170064932
:1030900091F8C910C82903DB0021034A82F8C9103E
:1030A00070470000A0000020B42500208A68002A94
:1030B00001DCFDF7C6BC521E8A604A68C0B2531CD0
:1030C0004B60107070470000002000BF21E000221C
:1030D000374951F8201062F31531354A42F8201073
:1030E000114611F8201021F0020102F820101146BB
:1030F00011F8201021F0010102F8201000222C49C3
:1031000051F8201062F38B01294A42F82010411C2B
:1031100088B20A28DBDB002019E0264911F82010CC
:1031200021F00201234A02F82010114611F8201064
:1031300021F0010102F8201000221E4951F8201050
:1031400062F38B011B4A42F82010411C88B20A2806
:10315000E3DB002029E0184911F8201021F00401D8
:10316000154A02F820100022134951F8201062F38A
:103170005631114A42F82010114611F8201021F062
:10318000010102F82010114611F8201021F002016F
:1031900002F820100022084951F8201062F3CC01F7
:1031A000054A42F82010411C88B20A28D3DB704738
:1031B000D0200020F82000202021002070B50546F6
:1031C0000C462146284601F095F8002809DB2146E7
:1031D000284601F08FF806462046FDF78BF930446B
:1031E00070BD4FF0FF30FBE72DE9FE4305460F466B
:1031F0002248FDF77FF9804641462048FDF708FA4E
:10320000002639462846FFF7D9FF064616B90020A2
:10321000BDE8FE830024A85D222813D106E0301902
:10322000401C295C15480155601CC4B2701C204428
:10323000285C2C2804D0701C2044285C2228EED165
:103240000120E5E709E03019285C0DF80400601C56
:10325000C4B2052C01DD0020DAE73019285C2C28E7
:1032600003D03019285C7D28EDD16846FDF7E8F8D9
:103270000249C839C1F82C010220C9E7682400209E
:103280001CB5FEF7B1FBFFF763FAFFF7B9FA0020B0
:10329000012103466422CDE9001009A10A4801F08A
:1032A00059FF0020012103466422CDE9001007A147
:1032B000084801F04FFF01F005FB00201CBD000095
:1032C0007461736B310000001D2D00087461736B15
:1032D00032000000912D00080D4991F8C920491CC9
:1032E0008854491E91F8C910491C094A82F8C9102E
:1032F000114691F8C910C82902DD002182F8C910D1
:1033000000220449096962F38B01024A1161704786
:10331000241F0020D02000202DE9F05F8046894640
:1033200017461D46DDF828A005F1140B5846FCF79A
:10333000ADFF0446002684F8008084F8019038121E
:10334000A070E77028122071657100BF04E01AF8C0
:103350000610B01D2154761CAE42F8DBA91D204694
:10336000FDF78CFF1249088008460178A81D2154FA
:103370000F4800880112E81D215400260EE00122AA
:1033800011020C48FEF717FBA05D00F08DFF002234
:103390004FF480710748FEF70EFB761C05F109001B
:1033A0008642ECDB2046FCF7A0FFBDE8F09F000062
:1033B000900000200008014010B5434840780128E3
:1033C0002DD141488078022829D13F480179C07821
:1033D00001EB00203D4908803B4840793C4908709A
:1033E00039488179C07901EB00203A4908800521EC
:1033F0003548401CFDF742FF3749088008460088E1
:1034000034490988884208D1304800783349087027
:103410002F4800784870012010BDFF20FCE72A48A3
:10342000407801284CD128488078032848D1264884
:103430000179C07801EB0020244908802248817975
:10344000407901EB0020264908801F48401C09886C
:10345000891D425C22490988C91D405C02EB00209D
:103460001C4908801E480088811D1748401CFDF734
:1034700005FF1949088008460088164909888842CE
:103480001FD1C8211548801CFDF7A0F8002007E0D7
:103490000D49491C821D8A5C1049891C0A54401C34
:1034A0000F4909888842F3DB0D4800880B49A1F8D1
:1034B000CA00064800780870012081F8CC0000E0BE
:1034C00000BF00BFA8E70000241F002092000020DA
:1034D0009400002096000020980000200220002088
:1034E0009A00002010B5184890F8C900002807DDA0
:1034F0001648007C20F00200801C1449087405E086
:103500001248007C20F00200104908740A210F487C
:10351000006961F315300D4908610846007C00F030
:10352000010078B10846007C20F001000874FFF724
:1035300043FFC8210448401CFDF748F80020024919
:1035400081F8C90010BD0000241F0020D0200020F9
:1035500070B50546FFF76BFC48B9FFF76BFC30B957
:1035600008480068022805D1FFF75EFC10B16FF033
:10357000050404E0002415B1284601F027F920468F
:1035800070BD0000680000202DE9F04105460E46A0
:103590001648076816480068001D00F097FF681C71
:1035A00038B936B112480168091D124800F0E4FF2D
:1035B0001AE07C190E4800684460BC4207D20C48EF
:1035C0000168091D0C48006800F0BCFF0CE00848C9
:1035D0000168091D0948006800F0B4FF0848006848
:1035E000844201D206480460BDE8F0812C0000202E
:1035F00018000020A0050020200000201C00002052
:103600004800002010B5044600F0C2FF24480068BE
:10361000401C234908602348006840B921480460E1
:103620000846006801280DD100F0F8F90AE01E48AC
:10363000006838B91B480068C06AE16A884201D84E
:103640001848046019480068401C1849086008467A
:10365000006860641649E06A0968884202D9144922
:10366000E06A0860E16A01EB8101124A02EB810025
:10367000211D00F081FF00F0B5FF0B48006868B124
:1036800008480068C06AE16A884207D24FF080505B
:1036900009490860BFF34F8FBFF36F8F10BD000063
:1036A00028000020180000203400002044000020E2
:1036B00030000020F000002004ED00E008B500F02C
:1036C00067FF12480068E8B9114800F02BFF114865
:1036D00000F028FF0E48104908600E480F490860A6
:1036E00000200F4B0F4A102100900A2001F02CFA05
:1036F000064908600846006820B10BA1034800682D
:1037000001F028F800F06EFF08BD00005C0000200A
:10371000B4050020C80500205400002058000020F7
:10372000DC0500202C060020546D725100000000C2
:1037300010B516E000F02CFF0C48C068C468201DCE
:1037400000F0C4FE0A480068401E094908600948A4
:103750000068401E0749086000F044FF204600F062
:103760005EF8044800680028E4D110BD8C050020F4
:10377000280000202400002070B504460D46206C6F
:1037800070B1216CE0680844E0606168E0688842DC
:1037900001D32068E0602846226CE168FCF7C9FE8E
:1037A00070BD2DE9F04104460F4615464FF0000864
:1037B000A66B206C40B9206860BB606801F010FE09
:1037C00080460020606025E07DB93946226CA06803
:1037D000FCF7AFFE216CA0680844A060D4E901109A
:1037E000884217D32068A06014E03946226CE06854
:1037F000FCF79FFE216CE068401AE0602168E068F9
:10380000884203D2216C6068401AE060022D01D129
:1038100006B1761E701CA0634046BDE8F08110B56D
:10382000044694F8590030B9206B00F0F9FE2046A8
:1038300000F0F6FE1AE094F85900012803D1204662
:1038400000F0EEFE12E094F85900022801D10120A8
:1038500000E0002050B900BF502080F31188BFF372
:103860004F8FBFF36F8F00BF00BFFEE710BD00009A
:103870000146084A126812680AB9012200E00022D3
:103880000A600A6822B9034A1268D268106800E028
:10389000002070475400002030B54FF47A63174879
:1038A00000F007042CB1C01D20F00700134C041BCE
:1038B0001B1B0246124C22600024114D6C60D01874
:1038C000083820F007000F4C206000240D4D2D68B3
:1038D0006C600C4D2D682C601146441A4C60094CEC
:1038E00024680C60084D4C682C60084D4C682C60B6
:1038F0004FF00044064D2C6030BD0000840F0020C6
:103900006C000020740000207C0000207800002063
:103910008000002000BFFFF70BFF06480068012869
:10392000F9D94FF0805004490860BFF34F8FBFF3BF
:103930006F8FF0E7F000002004ED00E02DE9F0418A
:1039400006460D4617469846069C0DB9246000E0D1
:103950002760E66325640121204601F065F984F8BB
:103960004C80BDE8F0812DE9F05F82460F4690461D
:103970009B460A9E0C9C4FEA8801A522206BFCF70F
:103980001DFEA8F10100216B01EB800929F0070958
:1039900009F0070008B9012000E0002050B900BF7D
:1039A000502080F31188BFF34F8FBFF36F8F00BF9C
:1039B00000BFFEE7002507E0795D04F134004155C2
:1039C000785D00B902E06D1C102DF5D300BF002119
:1039D00043200155382E00D33726E662E6640020E6
:1039E0002065201D00F0ABFD04F1180000F0A7FDDC
:1039F0002461C6F13800A06164620020606584F82B
:103A000058005A465146484600F042FB20600B9849
:103A100008B10B980460BDE8F09F000010B50024C9
:103A200007E004EB84010F4A02EB810000F07AFD0D
:103A3000641C382CF5D30C4800F074FD0B4800F0E2
:103A400071FD0B4800F06EFD0A4800F06BFD0A485E
:103A500000F068FD04480949086004480849086006
:103A600010BD0000F000002050050020640500207B
:103A7000780500208C050020A00500201C000020F7
:103A80002000002010B50146164800E000680368D9
:103A90008B42FBD30246436813448B4204D14368F4
:103AA0004C682344436001460A464B68134404684B
:103AB000A34211D10C4C03682468A34208D04B6880
:103AC0000468646823444B6003681B680B6005E06E
:103AD000054B1B680B6001E003680B60884200D057
:103AE000016010BD6C000020740000202DE9F04141
:103AF00004460D4616461F464FF0000865602461D7
:103B0000B5420CD8F01BA169884202D34FF00108DE
:103B100011E0211D0948006800F014FD0BE0BE42D1
:103B200004D2BD4202D34FF0010804E0211D044835
:103B3000006800F007FD4046BDE8F0815800002015
:103B40005400002070B5054600F022FDA86B08B9AE
:103B5000012400E0002400F045FD204670BD70B552
:103B6000054600F015FDA86BE96B884201D10124E0
:103B700000E0002400F036FD204670BDF8B5054693
:103B80000F4616480068C068C468201D00F09EFCFF
:103B9000E06901281DD1A06941192B463A4620460B
:103BA000FFF7A4FFA8B1002003462A460146009073
:103BB000204601F071FD064656B900BF502080F343
:103BC0001188BFF34F8FBFF36F8F00BF00BFFEE7B9
:103BD00000BF2046616A8847F8BD000054000020FD
:103BE000F0B587B082E00398002811DA04AE56B928
:103BF00000BF502080F31188BFF34F8FBFF36F8F4A
:103C000000BF00BFFEE7D6E90020B168904700BFC3
:103C1000039800286ADB059C606908B9012000E070
:103C2000002010B9201D00F051FC02A800F0C0F8DF
:103C3000054603980A2857D2DFE800F00905073146
:103C4000334F0608323400BF00BF00BF00BF0498E6
:103C5000A269811803462A462046FFF747FFE8B1CC
:103C60002046616A8847E069012817D1002000904A
:103C70000498A169421800231946204601F00CFD62
:103C8000074657B900BF502080F31188BFF34F8F0C
:103C9000BFF36F8F00BF00BFFEE700BF25E000BF8E
:103CA00023E000BF0498A061A06908B1012000E0F2
:103CB000002050B900BF502080F31188BFF34F8F10
:103CC000BFF36F8F00BF00BFFEE7A06941192B460D
:103CD0002A462046FFF70AFF07E094F82C0010B9A7
:103CE000204600F09DFC00E000BF00BF002203A9B9
:103CF0000448006801F034F900287FF474AF07B07D
:103D0000F0BD00005C000020F8B505460C4600F050
:103D100035FE684600F04CF80646009820BB44B9D2
:103D2000B54206D801F0FAFB31462846FFF726FFD8
:103D30001CE03CB10E480068006808B9012000E0B2
:103D400000200446A91B22460A48006800F018FD1E
:103D500001F0E4FB50B94FF0805007490860BFF311
:103D60004F8FBFF36F8F01E001F0D8FBF8BD00006B
:103D7000580000205C00002004ED00E00A490968BA
:103D8000096809B9012100E0002121B14FF0FF319C
:103D9000064A116006E004490968C968C868034A10
:103DA00041681160704700001C000020480000209E
:103DB00070B5044601F06CFA054607480068854274
:103DC00004D200F00BF80120206001E00020206008
:103DD00001480560284670BD640000202DE9F843C5
:103DE00032E024480068C068056822480068C0685E
:103DF000C468201D00F06AFB2046616A8847E069BC
:103E0000012821D1A0694619AE4207D96660246114
:103E1000211D1848006800F095FB15E000200346BE
:103E20002A4601460090204601F036FC074657B965
:103E300000BF502080F31188BFF34F8FBFF36F8F07
:103E400000BF00BFFEE700BF0A480068006808B96D
:103E5000012000E000200028C3D00648D0F80080F0
:103E600005480068034908600348C0F80080BDE8C1
:103E7000F883000054000020580000200E4800681D
:103E8000401C08B9012000E0002050B900BF5020BC
:103E900080F31188BFF34F8FBFF36F8F00BF00BF58
:103EA000FEE700BF502080F31188BFF34F8FBFF3B0
:103EB0006F8F00BF00BFFEE78400002008B500BF81
:103EC0006846FFF7D5FC044620460099FFF71CFF23
:103ED000FFF786FEF4E770B5044600F059FB94F94D
:103EE000455010E0606A08B9012000E0002038B9B0
:103EF00004F1240001F0C6FA18B100F0A1FC00E0C2
:103F000003E0681E45B2002DECDC00BFFF2084F802
:103F1000450000F067FB00F03BFB94F9445010E0D3
:103F2000206908B9012000E0002048B904F1100020
:103F300001F0A8FA08B100F083FC681E45B200E069
:103F400001E0002DECDC00BFFF2084F8440000F00D
:103F500049FB70BD2DE9F04104464FF0000800F028
:103F60000DFD4648006808B9FFF796FC4448006814
:103F7000204000286BD1D4B1083404F00700B0B160
:103F800004F00700C0F10800044404F0070008B979
:103F9000012000E0002050B900BF502080F31188BC
:103FA000BFF34F8FBFF36F8F00BF00BFFEE7002C42
:103FB0004DD034480068844249D8334E30460568B5
:103FC00001E02E462D686868A04202D228680028C9
:103FD000F7D12A480068854239D0306800F10808D6
:103FE000286830606868001B102819D92F1907F05D
:103FF000070008B9012000E0002050B900BF5020A0
:1040000080F31188BFF34F8FBFF36F8F00BF00BFE6
:10401000FEE76868001B78606C603846FFF732FD89
:10402000184968680968081A16490860084600684F
:1040300016490968884203D212480068134908608B
:104040000F4968680968084368600020286001F02B
:1040500065FA08F0070008B9012000E0002050B917
:1040600000BF502080F31188BFF34F8FBFF36F8FD5
:1040700000BF00BFFEE74046BDE8F08174000020AD
:1040800080000020780000206C0000207C000020D0
:10409000001F4FF080730360001F21F001030360D5
:1040A000001F034B03601438026020387047000083
:1040B0007D3E000810B500F0BBF8C82209490A4847
:1040C000FCF7F4F900F01AF808A10748FFF78CF89C
:1040D000012805D10448C830FCF7B2F90649088028
:1040E00010BD000004200020A02300202273657270
:1040F00069616C223A0000009C00002010B53AA1D2
:104100003C48FFF771F801282BD13B483BA10978C7
:1041100081723849C8310A30FCF7C8F938A13548EE
:10412000FFF762F801280ED1334834A1097880F8EE
:104130003C103049C8313C30FCF7B8F901202E4919
:1041400081F874000DE02EA12A48FFF74DF80228EF
:1041500007D12848D0F82C0127490867022081F8A8
:1041600074002AA12348FFF73FF801282DD12248E7
:1041700022A1097880F875101E49C8317530FCF706
:1041800095F925A11B48FFF72FF801280ED11A48F1
:104190001AA1097880F8A7101649C831A730FCF792
:1041A00085F90120144981F8E0000EE01AA11148B8
:1041B000FFF71AF8022808D10E48D0F82C010E4952
:1041C000C1F8DC00022081F8E00016A10948FFF7E1
:1041D0000BF8012807D1084808A1097801700549A2
:1041E000C831FCF763F910BD226E616D655F7731F0
:1041F000223A0000A0230020D0240020000000006C
:1042000022646174615F7731223A0000226E616D31
:10421000655F7231223A000022646174615F72311D
:10422000223A00002273657269616C223A00000034
:1042300010B500201A4981F8E00081F87400C1F837
:10424000DC00086701F1A700FCF754F90446214699
:104250001348A730FCF7BAF911483C30FCF74AF98B
:10426000044621460E483C30FCF7D2F90C480A308F
:10427000FCF740F90446214609480A30FCF7A6F944
:1042800007487530FCF736F9044621460448753076
:10429000FCF79CF9C8210348FCF7BAF910BD0000EF
:1042A000D0240020A023002010B504460E4800783A
:1042B000022809D1E1B20D48FEF768FA00BF0B48A9
:1042C000FEF75AFA0028FAD007480078012809D1E9
:1042D000E1B20748FEF75AFA00BF0548FEF74CFA6C
:1042E0000028FAD0012010BD070000200044004043
:1042F0000038014070B504460E4631462046FCF7B2
:10430000C3F8051B002D01DB284670BD4FF0FF30C0
:10431000FBE7000038B508212048FDF73DFB10B948
:1043200001201F49488000224FF480711D48FDF78D
:1043300042FB1D48007800F0010090B101201B49AC
:1043400008701948401CFCF7D5F884B21648401C88
:1043500023460222032100900120FEF7DDFFFEF735
:1043600011FEFFF7BFF8124890F8CC0000F00100F2
:1043700098B100200E4981F8CC0002200B4908704A
:104380000B48801CFCF76AF800210A48406961F379
:104390008B0008494861FFF78DFE38BD000C0140D5
:1043A0009C00002000080140B425002007000020E8
:1043B00002200020D020002008B5002000903EE020
:1043C0004048009910F82100C0F3400058B33D491F
:1043D000009A01EB820001688908491C026861F3B8
:1043E0008B0202603748009950F82100C0F3890021
:1043F0003449009A51F82210C1F3093188421BDD7B
:104400003049009A01EB82000022016862F38B01BF
:1044100001602C49009A01EB8200017821F0010132
:10442000491C017008E02749009A01EB8200002234
:10443000016862F38B0101600098401C00900098B5
:104440000A28BDDB0020009038E01F48009910F8D2
:104450002100C0F3400028B31B48009950F8210008
:10446000C0F3890000280BDD1749009A01EB820098
:1044700001688908491E026861F38B0202601AE034
:104480001149009A01EB8200017821F002010170CC
:104490000D49009A01EB8200017821F00101491CCD
:1044A000017008E00849009A01EB820000220168CF
:1044B00062F38B0101600098401C009000980A286C
:1044C000C3DB08BDD0200020F820002001460A6987
:1044D000D1E901309860D1E9010358605068884201
:1044E00001D188685060002008611068401E10608B
:1044F00010687047034B0360034B0B604FF48073ED
:1045000013607047CC06002028070020034B03608F
:10451000034B0B604FF4807313607047280B00202F
:10452000840B002000F1080141604FF0FF318160F1
:1045300000F10801C16001610021016070470021A4
:104540000161704710B502460B685C1C0CB910691C
:1045500007E002F1080000E04068446824689C42DB
:10456000FAD944684C604C68A160886041600A6177
:104570001468641C146010BD42684A6093688B60C4
:10458000936859609160086103685B1C0360704721
:1045900000BF502080F31188BFF34F8FBFF36F8FA0
:1045A00000BF0E480068401C0C49086008460068BF
:1045B000012812D10A480068C0B208B9012000E001
:1045C000002050B900BF502080F31188BFF34F8FF7
:1045D000BFF36F8F00BF00BFFEE77047840000206D
:1045E00004ED00E00D48006850B900BF502080F392
:1045F0001188BFF34F8FBFF36F8F00BF00BFFEE77F
:1046000006480068401E054908600846006820B951
:10461000002080F3118800BF00BF70478400002095
:1046200070B506463546002E3FD0083D2C461F4942
:1046300060680968084008B1012000E0002050B916
:1046400000BF502080F31188BFF34F8FBFF36F8FEF
:1046500000BF00BFFEE7206808B9012000E000208D
:1046600050B900BF502080F31188BFF34F8FBFF3C4
:104670006F8F00BF00BFFEE70C4960680968084003
:1046800098B1206888B90949606809688843606002
:1046900000F074F906496068096808440449086034
:1046A0002046FFF7EFF900F039FF70BD80000020D1
:1046B0007800002000204FF0E02108618861064862
:1046C00000684FF47A71B0FBF1F0401E4FF0E0212A
:1046D00048610720086170471400002070B5FBF79F
:1046E000B1FD0446102C16D304F1E02090F8F053ED
:1046F00015480078854201DB012000E0002050B918
:1047000000BF502080F31188BFF34F8FBFF36F8F2E
:1047100000BF00BFFEE70D48006800F4E0600C49F0
:104720000968884201D8012000E0002050B900BF8C
:10473000502080F31188BFF34F8FBFF36F8F00BFFE
:1047400000BFFEE770BD0000880000200CED00E017
:104750008C000020024600200BE0084B53F830305C
:1047600033B9064B43F8301003EBC0035A6002E044
:10477000401C0828F1D300BF70470000B0000020A3
:104780002DE9F04105460E4617462C46FFF700FF7F
:1047900094F94400401C10B9002084F8440094F9B6
:1047A0004500401C10B9002084F84500FFF71AFFAF
:1047B000A06B28B93A46314604F1240000F062F8B3
:1047C0002046FFF788FBBDE8F081000070B5044685
:1047D0000025D4B11248006808B9012000E000208B
:1047E00050B900BF502080F31188BFF34F8FBFF343
:1047F0006F8F00BF00BFFEE700F0C0F80021204629
:10480000FEF7C2FE00F08AFE05463DB94FF080502B
:1048100004490860BFF34F8FBFF36F8F70BD000076
:104820005000002004ED00E00349096801600349DD
:104830000968416070470000400000202C00002003
:1048400001200149086070473C00002070B5044613
:104850000D4654B900BF502080F31188BFF34F8F2D
:10486000BFF36F8F00BF00BFFEE705480168183136
:104870002046FFF767FE01212846FEF785FE70BD42
:104880001800002070B505460E46144655B900BF05
:10489000502080F31188BFF34F8FBFF36F8F00BF9D
:1048A00000BFFEE70648016818312846FFF764FE9E
:1048B0000CB14FF0FF3621463046FEF765FE70BD65
:1048C0001800002010B586B000200590049003AABF
:1048D00004A905A8FFF70EFE0022DDE90410134627
:1048E000CDE9002102901EA11F48039A00F064FC4C
:1048F0001E4908600846006808B1012400E0002451
:10490000012C02D100F08CFE0446012C15D100BF11
:10491000502080F31188BFF34F8FBFF36F8F00BF1C
:104920004FF0FF3012490860012012490860002052
:104930001149086000F072F810E0601C08B1012015
:1049400000E0002050B900BF502080F31188BFF371
:104950004F8FBFF36F8F00BF00BFFEE706B010BDE3
:1049600049444C4500000000153900084C00002067
:1049700048000020340000202C000020024800687D
:10498000401C014908607047500000201E48006824
:1049900018B101201D49086034E000201B4908605F
:1049A0001B4801680CE051B900BF502080F311880A
:1049B000BFF34F8FBFF36F8F00BF00BFFEE7491EED
:1049C00001EB8100134A52F8200008B9012000E0F1
:1049D00000200028E7D101EB81020E4B03EB82009F
:1049E00042685268426000F108024368934202D173
:1049F0004268526842604268D268074B1A600448B5
:104A0000016000BF70470000500000203C00002003
:104A100030000020F0000020180000201CB53849AC
:104A2000084600780190FF200A461070084600787A
:104A300000909DF8000000F0F0009DF800209042EA
:104A400001D1012000E0002050B900BF502080F3C8
:104A50001188BFF34F8FBFF36F8F00BF00BFFEE71A
:104A60009DF8000000F05000264A10700720264AEA
:104A7000106009E024480068401E234A10609DF839
:104A800000004006000E00909DF8000000F080003D
:104A90008028EFD01C480068C0F10700042801D12D
:104AA000012000E0002050B900BF502080F31188A1
:104AB000BFF34F8FBFF36F8F00BF00BFFEE71248F9
:104AC00000680002104A10601046008800F4E060A0
:104AD00010600B4A019810700C48006840F4700098
:104AE0000A4908600846006840F070400860FFF717
:104AF000E1FD002006490860FBF76EFB00201CBDAD
:104B000000E400E0880000208C00002020ED00E0A0
:104B10008400002010B500BF502080F31188BFF33F
:104B20004F8FBFF36F8F00BF00F0B8FB18B14FF08D
:104B300080500449086000BF002080F3118800BF46
:104B400010BD000004ED00E02DE9F84380460E465C
:104B500017461D46DDF82090B8F1000F01D0012066
:104B600000E0002050B900BF502080F31188BFF34F
:104B70004F8FBFF36F8F00BF00BFFEE70DB1012065
:104B800000E0002050B900BF502080F31188BFF32F
:104B90004F8FBFF36F8F00BF00BFFEE707B10EB1AD
:104BA000012000E0002050B900BF502080F31188A0
:104BB000BFF34F8FBFF36F8F00BF00BFFEE707B992
:104BC0000EB9012000E0002050B900BF502080F352
:104BD0001188BFF34F8FBFF36F8F00BF00BFFEE799
:104BE000502000900098502801D1012000E00020C2
:104BF00050B900BF502080F31188BFF34F8FBFF32F
:104C00006F8F00BF00BFFEE72C464CB1012084F837
:104C100046004B463A46314640460094FEF78EFE2B
:104C20002046BDE8F883000070B505460E462C46C8
:104C300054B900BF502080F31188BFF34F8FBFF3EA
:104C40006F8F00BF00BFFEE7FFF7A2FCD4E90F1291
:104C5000206801FB020060600020A0632068A06063
:104C6000E06B401E226C216800FB0210E060FF2018
:104C700084F8440084F845009EB9206908B90120F1
:104C800000E00020A8B904F1100000F0FBFB80B1A7
:104C90004FF0805009490860BFF34F8FBFF36F8F0B
:104CA00007E004F11000FFF73DFC04F12400FFF7DA
:104CB00039FCFFF797FC012070BD000004ED00E017
:104CC0002DE9FF4383B0064688461D464FF0000994
:104CD000344654B900BF502080F31188BFF34F8F82
:104CE000BFF36F8F00BF00BFFEE7B8F1000F01D127
:104CF000206C08B9012000E0002050B900BF50200E
:104D000080F31188BFF34F8FBFF36F8F00BF00BFD9
:104D1000FEE7022D02D1E06B012801D1012000E065
:104D2000002050B900BF502080F31188BFF34F8F8F
:104D3000BFF36F8F00BF00BFFEE700F099FA08B91C
:104D4000059808B9012000E0002050B900BF5020AC
:104D500080F31188BFF34F8FBFF36F8F00BF00BF89
:104D6000FEE700BFFFF714FCA06BE16B884201D3A4
:104D7000022D28D12A4641462046FEF712FD07465D
:104D8000606A08B9012000E0002068B904F124003D
:104D900000F078FB88B14FF0805032490860BFF3D3
:104DA0004F8FBFF36F8F08E03FB14FF080502D4918
:104DB0000860BFF34F8FBFF36F8FFFF713FC012025
:104DC00007B0BDE8F083059818B9FFF70BFC002089
:104DD000F6E7B9F1000F04D101A8FFF725FD4FF068
:104DE0000109FFF7FFFBFFF7C9FDFFF7D1FB94F9BE
:104DF0004400401C10B9002084F8440094F9450098
:104E0000401C10B9002084F84500FFF7EBFB05A912
:104E100001A800F059F9F0B92046FEF7A0FEA0B1B4
:104E200004F110000599FFF711FD2046FFF753F834
:104E300000F074FB002895D14FF0805009490860BC
:104E4000BFF34F8FBFF36F8F8CE72046FFF743F818
:104E500000F064FB86E72046FFF73DF800F05EFBBC
:104E60000020ADE704ED00E02DE9F05F07468A463B
:104E700090461E463C4654B900BF502080F311882E
:104E8000BFF34F8FBFF36F8F00BF00BFFEE7BAF1D4
:104E9000000F01D1206C08B9012000E0002050B9BA
:104EA00000BF502080F31188BFF34F8FBFF36F8F87
:104EB00000BF00BFFEE7022E02D1E06B012801D146
:104EC000012000E0002050B900BF502080F311887D
:104ED000BFF34F8FBFF36F8F00BF00BFFEE7FFF739
:104EE000FDFB00BF5021EFF3118081F31188BFF368
:104EF0004F8FBFF36F8F00BF0546A06BE16B8842F9
:104F000001D3022E23D194F945B0324651462046B2
:104F1000FEF747FC0BF1010088B9606A08B901206F
:104F200000E0002080B904F1240000F0ABFA58B191
:104F3000B8F1000F08D00120C8F8000004E00BF120
:104F4000010040B284F845004FF0010901E04FF044
:104F5000000900BF85F3118800BF4846BDE8F09FF7
:104F60002DE9F74183B005460E464FF000082C4668
:104F700054B900BF502080F31188BFF34F8FBFF3A7
:104F80006F8F00BF00BFFEE70EB9206C08B901208B
:104F900000E0002050B900BF502080F31188BFF31B
:104FA0004F8FBFF36F8F00BF00BFFEE700F060F9C7
:104FB00008B9059808B9012000E0002050B900BFE9
:104FC000502080F31188BFF34F8FBFF36F8F00BF66
:104FD00000BFFEE700BFFFF7DBFAA76BF7B1314672
:104FE0002046FEF7C9FB781EA063206908B901209E
:104FF00000E0002060B904F1100000F043FA38B17D
:105000004FF080502F490860BFF34F8FBFF36F8F71
:10501000FFF7E8FA012006B0BDE8F081059818B95D
:10502000FFF7E0FA0020F6E7B8F1000F04D101A87D
:10503000FFF7FAFB4FF00108FFF7D4FAFFF79EFCE9
:10504000FFF7A6FA94F94400401C10B9002084F838
:10505000440094F94500401C10B9002084F8450034
:10506000FFF7C0FA05A901A800F02EF8F0B9204614
:10507000FEF768FDA0B104F124000599FFF7E6FBF7
:105080002046FEF728FF00F049FA0028A3D14FF090
:1050900080500C490860BFF34F8FBFF36F8F9AE7C2
:1050A0002046FEF718FF00F039FA94E72046FEF795
:1050B00012FF00F033FA2046FEF744FD00288AD0A4
:1050C0000020A8E704ED00E070B505460C4655B990
:1050D00000BF502080F31188BFF34F8FBFF36F8F55
:1050E00000BF00BFFEE754B900BF502080F3118815
:1050F000BFF34F8FBFF36F8F00BF00BFFEE7FFF717
:1051000047FA124802686868131A2068401C08B9F8
:10511000002617E00E4928680968884204D06868AC
:10512000904201D801260DE02068984207D92068F6
:10513000C01A20602846FFF777FB002602E0002017
:1051400020600126FFF74EFA304670BD2C0000208B
:10515000400000202DE9FF4F85B080468946174664
:10516000DDE912ABB800FEF7F5FE064656B15C204D
:10517000FEF7F0FE04460CB1266304E03046FFF76C
:105180004FFA00E000248CB1002084F85900CDE9EA
:1051900000ABCDE902403A4649464046089BFEF73F
:1051A000E2FB2046FEF72EFA012501E04FF0FF3525
:1051B000284609B0BDE8F08F2DE9F04F85B00746CD
:1051C000884691469A46DDE90EB6109C0EB1012044
:1051D00000E0002050B900BF502080F31188BFF3D9
:1051E0004F8FBFF36F8F00BF00BFFEE70CB10120F0
:1051F00000E0002050B900BF502080F31188BFF3B9
:105200004F8FBFF36F8F00BF00BFFEE75C2003909E
:1052100003985C2801D1012000E0002050B900BFB4
:10522000502080F31188BFF34F8FBFF36F8F00BF03
:1052300000BFFEE7B4B1AEB125462C462E63022076
:1052400085F85900002004A953464A46CDE900B12B
:10525000CDE9025041463846FEF785FB2846FEF769
:10526000D1F901E000200490049805B0BDE8F08F6A
:105270000549096809B9012005E00449096809B927
:10528000022000E000207047340000205000002081
:1052900001490868704700002C0000202DE9F0410A
:1052A0004FF0000843480068002876D14248006863
:1052B000451C4148056015BB40480068006808B9B6
:1052C000012000E0002050B900BF502080F3118879
:1052D000BFF34F8FBFF36F8F00BF00BFFEE73748AC
:1052E0000768374800683549086035480760354821
:1052F0000068401C33490860FEF740FD00BF32489B
:10530000006885423BD300BF2C480068006808B99C
:10531000012000E0002020B14FF0FF302A49086052
:105320002CE026480068C068C4686668B54202D2AE
:105330002548066022E0201DFFF7C8F8A06A18B1D2
:1053400004F11800FFF7C2F82049E06A09688842B2
:1053500002D91E49E06A0860E16A01EB81011C4A3A
:1053600002EB8100211DFFF707F91A49E06A09687D
:10537000C96A8842C8D34FF00108C5E700BF154885
:105380000068C06A00EB8000114951F82000012834
:1053900001D94FF0010805E0FFE70F480068401C05
:1053A0000D4908600D48006808B14FF001084046FB
:1053B000BDE8F081500000202C0000201C000020DF
:1053C0002000002040000020480000203000002085
:1053D000F000002018000020380000203C000020D1
:1053E00070B505462C460026002D43D022480068A3
:1053F000844201D1012000E0002050B900BF5020BC
:1054000080F31188BFF34F8FBFF36F8F00BF00BFD2
:10541000FEE7206D50B900BF502080F31188BFF324
:105420004F8FBFF36F8F00BF00BFFEE7206D401EA0
:105430002065E16CE06A88421CD0206DD0B9201D47
:10544000FFF744F8E06CE062E06AC0F13800A06168
:105450000A49E06A0968884202D90849E06A086096
:10546000E16A01EB8101064A02EB8100211DFFF791
:1054700083F80126304670BD18000020300000205F
:10548000F000002070B50646F068C46854B900BF4B
:10549000502080F31188BFF34F8FBFF36F8F00BF91
:1054A00000BFFEE704F11800FFF710F81548006888
:1054B000A0B9201DFFF70AF81349E06A096888427D
:1054C00002D91149E06A0860E16A01EB81010F4AE3
:1054D00002EB8100211DFFF74FF804E004F11801F1
:1054E0000B48FFF749F80B49E06A0968C96A884226
:1054F00004D9012501200849086000E0002528465C
:1055000070BD00005000002030000020F00000209E
:1055100078050020180000203C00002070B5002411
:1055200000263648006850B900BF502080F311882B
:10553000BFF34F8FBFF36F8F00BF00BFFEE7FFF7D2
:1055400027F82E480068401E2C490860084600686D
:1055500000284ED12A48006800284AD023E0294874
:10556000C068C46804F11800FEF7B0FF201DFEF704
:10557000ADFF2549E06A0968884202D92249E06AFC
:105580000860E16A01EB8101204A02EB8100211DE4
:10559000FEF7F2FF1E49E06A0968C96A884202D331
:1055A00001201C4908601748006808B9012000E084
:1055B00000200028D3D00CB1FEF7E0FB16480568A8
:1055C00065B100BFFFF76AFE10B101201149086004
:1055D0006D1E002DF6D100200F4908600D480068AF
:1055E00038B1012630070D490860BFF34F8FBFF374
:1055F0006F8FFEF7F7FF304670BD000050000020AF
:10560000280000207805002030000020F000002055
:10561000180000203C0000203800002004ED00E0CD
:1056200010B586B00024FEF749F816480068D0B1DE
:1056300000200590049003AA04A905A8FEF766FFC0
:105640000222DDE904100023CDE9002102900EA121
:105650000F48039AFFF7B0FD0E490860084600683E
:1056600000B1012400BF54B900BF502080F311885D
:10567000BFF34F8FBFF36F8F00BF00BFFEE7204621
:1056800006B010BD5C000020546D7220537663009C
:10569000BD3E0008600000202DE9FF4704460D468E
:1056A00016461F46DDF830804FF0000954B900BFA0
:1056B000502080F31188BFF34F8FBFF36F8F00BF6F
:1056C00000BFFEE71448006810B3009501960294ED
:1056D000062D15DAFFF7CCFD022808D1002342463B
:1056E00069460D480068FFF7EBFA814610E0002399
:1056F0001A46694608480068FFF7E2FA814607E063
:1057000000233A46694604480068FFF7ADFB81462E
:10571000484604B0BDE8F0875C00002010B50029C1
:105720000AD00878002807D005487844FAF798FF8F
:10573000002801D0002010BD0248784410BD0000B0
:105740006E00000066000000000000000000000085
:105750000102030406070809000000000102030417
:105760003A535444494E003A5354444F5554003A26
:105770005354444552520000A8580008000000202D
:10578000B00000002801000858590008B0000020AF
:10579000302D00004401000810010000430000000B
:1057A000F8FFFFFF00404040404040404040414142
:1057B00041414140404040404040404040404040E6
:1057C0004040404040050202020202020202020280
:1057D000020202020220202020202020202020027D
:1057E000020202020202909090909090101010100D
:1057F00010101010101010101010101010101010A9
:10580000020202020202888888888888080808083C
:105810000808080808080808080808080808080808
:105820000202020240000000000000000000000030
:105830000000000000000000000000000000000068
:105840000000000000000000000000000000000058
:105850000000000000000000000000000000000048
:105860000000000000000000000000000000000038
:105870000000000000000000000000000000000028
:105880000000000000000000000000000000000018
:105890000000000000000000000000000000000008
:1058A00000000000000000000000000000000000F8
:1058B0000000000010000000010000000024F400BF
:1058C00000000000000000000000000000000000D8
:1058D00000000000000000000000000000000000C8
:1058E00000000000000000000000000000000000B8
:1058F00000000000000000000000000000000000A8
:105900000000000000000000000000000000000097
:105910000000000000000000000000000000000087
:10592000000000000000000000000000AAAAAAAACF
:105930000000000000000000000000000000000067
:105940000000000000000000000000000000000057
:0859500000000000000000004F
:04000005080000ED02
:00000001FF
