:020000040800F2
:10000000782E002039020008ED1E0008A11E00080D
:10001000E91E0008C90900080D27000800000000BB
:10002000000000000000000000000000A101000826
:10003000690A000800000000E501000861200008CE
:10004000530200085302000853020008530200083C
:10005000530200085302000853020008530200082C
:10006000530200085302000853020008530200081C
:10007000090A0008190A0008290A0008390A0008B4
:10008000490A0008590A00085302000853020008F0
:1000900053020008530200085302000853020008EC
:1000A00053020008530200085302000853020008DC
:1000B00053020008530200085302000853020008CC
:1000C00053020008530200085302000853020008BC
:1000D000530200085926000895260008D12600087A
:1000E00053020008530200085302000800F002F80F
:1000F00000F047F80AA090E8000C82448344AAF17B
:100100000107DA4501D100F03CF8AFF2090EBAE878
:100110000F0013F0010F18BFFB1A43F0010318473B
:10012000A4570000C4570000103A24BF78C878C113
:10013000FAD8520724BF30C830C144BF04680C60ED
:10014000704700000023002400250026103A28BF35
:1001500078C1FBD8520728BF30C148BF0B60704739
:100160001FB59DE8030000F07FFA00F0BFFB04001C
:100170000020002105F068FB401C60601FBD10B529
:1001800010BD00F08EFB1146FFF7EAFF02F06EFD96
:1001900000F0BEFB03B4FFF7F2FF03BC00F0EEFB80
:1001A000224B19680868B0E8F00F80F30988BFF3A4
:1001B0006F8F4FF0000080F311884EF00D0E7047E6
:1001C0000000000006480068006880F3088862B6F6
:1001D00061B6BFF34F8FBFF36F8F00DF00BF00BF6B
:1001E00008ED00E0EFF30980BFF36F8F0F4B1A6843
:1001F00020E9F00F106008B54FF0500080F311882F
:10020000BFF34F8FBFF36F8F04F0E2FB4FF000009E
:1002100080F31188BDE8084019680868B0E8F00F5D
:1002200080F30988BFF36F8F704700BF1400002070
:10023000EFF30580704700000948804709480047F0
:10024000FEE7FEE7FEE7FEE7FEE7FEE7FEE7FEE786
:10025000FEE7FEE704480549054A064B70470000E3
:1002600011210008ED00000878280020782E0020D9
:10027000782A0020782A002070B5064600F0D4F9CC
:10028000056806F10B0020F00704B4429CBF002073
:1002900070BD2B466A68BAB11068A04210D304F151
:1002A000080188423CBF5068586007D35168101954
:1002B00041601168091B016058601460101D70BD19
:1002C00013465268002AE7D12146284600F0B8F9C3
:1002D0000028DED170BD70B50446051F00F0A4F9FA
:1002E0000068002C14BF446870BD002C18BFAC42DD
:1002F0003CBF20466468F8D301680A18AA4218BFB8
:10030000456003D12A6805461144016028684119F7
:10031000A1421CBF6C6070BD6168696021680844BF
:10032000286070BD0FB41CB5074B06AA7B44694614
:100330000090059800F0D3F90020694600F0E2F93A
:100340001CBC5DF814FB0000D503000070B5064628
:1003500000F06EF90468054630460A22002100F0DC
:10036000D6F92C6070BD30B505460B462A4613F809
:10037000014B12F8010B08B1A042F8D01CB10028C3
:1003800002D06D1CF1E7284630BD40EA0103024669
:1003900030B59B0710D14FF0013400E008C208C906
:1003A0001D1B9D4315EAC41FF8D013F0FF0102F88E
:1003B000011B0DD01B0AF8E711F8013B002B02F8D6
:1003C000013B05D011F8013B002B02F8013BF3D1B2
:1003D00030BD10B5431C02E010F8011B71B181075C
:1003E000FAD14FF0013202C88C1A8C4314EAC211C0
:1003F000F9D0C01A0A0603D0C01E10BDC01A10BD25
:100400000A0401D0801E10BD0902FCD0401E10BDA0
:10041000032A40F2308010F0030C00F0158011F830
:10042000013BBCF1020F624498BF11F801CB00F808
:10043000013B38BF11F8013BA2F1040298BF00F85C
:1004400001CB38BF00F8013B11F0030300F0258019
:10045000083AC0F0088051F8043B083A51F804CB40
:10046000A0E80810F5E7121D5CBF51F8043B40F806
:10047000043BAFF30080D20724BF11F8013B11F811
:1004800001CB48BF11F8012B24BF00F8013B00F855
:1004900001CB48BF00F8012B704710B5203AC0F0DF
:1004A0000B80B1E81850203AA0E81850B1E8185075
:1004B000A0E81850BFF4F5AF5FEA027C24BFB1E8B2
:1004C0001850A0E8185044BF18C918C0BDE8104023
:1004D0005FEA827C24BF51F8043B40F8043B08BF2C
:1004E0007047D20728BF31F8023B48BF11F8012BF3
:1004F00028BF20F8023B48BF00F8012B704702F0EC
:10050000FF0343EA032242EA024200F002B84FF03E
:1005100000020429C0F0128010F0030C00F01B80D0
:10052000CCF1040CBCF1020F18BF00F8012BA8BFDE
:1005300020F8022BA1EB0C0100F00DB85FEAC17CA2
:1005400024BF00F8012B00F8012B48BF00F8012B55
:1005500070474FF0000200B5134694469646203986
:1005600022BFA0E80C50A0E80C50B1F12001BFF46C
:10057000F7AF090728BFA0E80C5048BF0CC05DF8D2
:1005800004EB890028BF40F8042B08BF704748BF20
:1005900020F8022B11F0804F18BF00F8012B704794
:1005A0004FF0013C50F8042B51F8043B9A4221D102
:1005B000A2EB0C03934313EACC1317D150F8042B8E
:1005C00051F8043B9A4215D1A2EB0C03934313EA72
:1005D000CC130BD150F8042B51F8043B9A4209D1AB
:1005E000A2EB0C03934313EACC13DBD04FF00000D3
:1005F000704700BFD01A01BAB1FA81F101F01801B9
:1006000022FA01F0CB40C1F12001DBB2C0B2C01A26
:100610002CFA01F3D11A914311EAC311E6D17047C4
:100620007047704770470000004870471C28002042
:100630000048704714280020704770477047704783
:1006400038B504460A4600206946AFF3008000280A
:1006500008BF38BD02460099204600F09DF80120F1
:1006600038BD012000F015B9F8B5AFF3008005469C
:1006700000200C46102000BF0646A819A0420DD944
:10068000324669460020AFF30080070008BF00F043
:1006900000F90098A04218BF0546C419FFF7C4FF2F
:1006A00005600746F01D20F007004619284600F0B7
:1006B0000AF8B44208BFF8BDA21B31463868BDE84D
:1006C000F84000F069B800210160C0E901107047EE
:1006D0001020704701694A1C02610878704700B514
:1006E0008FB0CDE901310021059105497944CDE96B
:1006F00003101146684600F069F80FB000BD000015
:10070000E5FFFFFF0A6802F8010B0A6070472DE958
:10071000F04791460F4680460446002614F8015BD8
:100720002DB100F031F80068405DC007F6D12B2DE7
:1007300002D02D2D18D0641E4A463946204600F0BE
:1007400059F827B13968A14201D1C7F800804FF0AC
:10075000020471050BD54042002803DDFFF768FF56
:100760000460A007BDE8F08746F48066E4E700284F
:10077000F8DAFFF75DFF04606FF00040F2E7000079
:10078000004870471428002010B500F0AFF8001D95
:1007900010BD00BFB5500000034640688C460028DD
:1007A00018BF88423CBF03464068F8D31868184415
:1007B000884207D00CF1030020F00700001D411A09
:1007C000521A0146081D0A60FFF785BD2DE9F04168
:1007D00006460024D6E90170F5688046304603E0FD
:1007E0004146B847641C3046A8470028F8D1204647
:1007F000BDE8F0812DE9F05F824615468B46002763
:100800000AF10104B9460078302801D09DB113E007
:1008100014F8010B0127782803D0582801D045B1DE
:100820000AE00DB1102D07D1002714F8010B102597
:1008300002E0082500E00A250026B0460EE005FB90
:10084000080005FB06F101271FFA80F801EB1046AE
:10085000B6F5803F00D3B94614F8010B294600F0E5
:1008600049F80028EBDABBF1000F05D00FB1641E88
:1008700000E05446CBF80040B9F1000F06D0FFF776
:10088000D7FE02210160C81EBDE8F09F48EA06407D
:10089000FAE710B500F04AF8BDE8104000F041B8A2
:1008A00070477546FFF76CFFAE4605006946534634
:1008B00020F00700854618B020B5FFF7CBFCBDE857
:1008C00020404FF000064FF000074FF000084FF0B7
:1008D000000B21F00701AC46ACE8C009ACE8C00948
:1008E000ACE8C009ACE8C0098D46704700487047C5
:1008F000342800203A2800D2303820F02002412A43
:1009000001D3A2F13700884201D34FF0FF30704786
:1009100010B50446AFF300802046BDE81040FFF755
:1009200039BC002801D000F029B8704710B5012863
:1009300005D0002103A000F027F8012010BD09A177
:10094000F8E7000053494752544D454D3A204F7542
:1009500074206F662068656170206D656D6F7279B7
:10096000000000003A2048656170206D656D6F726F
:100970007920636F72727570746564000149182084
:10098000ABBEFEE72600020070B505460C460A2005
:1009900000E06D1C00F011F835B128780028F8D17E
:1009A00002E0641C00F009F814B120780028F8D1A6
:1009B000BDE870400A20AFF3008008B569468DF8A5
:1009C00000000320ABBE08BD00BFFEE730B5024605
:1009D0000B464FF6FF700021002400BF10E0555C6D
:1009E0006840082409E000F0010525B140084AF2FA
:1009F0000105684000E04008641E002CF3D1491C4A
:100A00009942ECDB30BD000010B5024800F0E4F87C
:100A100010BD00005C23002010B5024800F0DCF897
:100A200010BD00001823002010B5024800F0D4F8D3
:100A300010BD00004C22002010B5024800F0CCF898
:100A400010BD00000822002010B5024800F0C4F8D4
:100A500010BD00009022002010B5024800F0BCF844
:100A600010BD0000D4220020704772B600BFFEE720
:100A700000B585B00020019002900390049000BF63
:100A80002648806940F0040024498861084680694E
:100A900000F00400009000BF00BF00BF084680695E
:100AA00040F0080088610846806900F00800009066
:100AB00000BF00BF00223021194800F026FB0820AB
:100AC0000190002002900120039001A9144800F039
:100AD00085F930200190012002900020039002202F
:100AE000049001A90E4800F079F94FF4807001904C
:100AF00001200290002003900220049001A90948DF
:100B000000F06CF94FF40050019001200290039026
:100B100001A9034800F062F905B000BD00100240D1
:100B2000000C01400008014070B50446002594F80F
:100B30002100022803D00420A063012548E020689A
:100B4000006820F00E00216808602068006820F02E
:100B50000100216808601F492068884201D10120F6
:100B600026E01C4914312068884201D110201FE082
:100B7000184928312068884201D1801518E01549AC
:100B80003C312068884201D1801411E01149503174
:100B90002068884202D14FF4803009E00D49643169
:100BA0002068884202D14FF4801001E04FF080703D
:100BB000084908394860012084F8210000BF00205E
:100BC00084F8200000BF606B10B12046616B88473D
:100BD000284670BD0800024070B50446E06B056809
:100BE0002068066894F840100420884028400028B7
:100BF00046D006F00400002842D02068006800F0CB
:100C0000200028B92068006820F0040021680860EE
:100C100057492068884201D1042027E05449143103
:100C20002068884201D1402020E0514928312068C5
:100C3000884201D1001519E04D493C3120688842B5
:100C400002D14FF4804011E0494950312068884278
:100C500002D14FF4802009E0454964312068884280
:100C600002D14FF4800001E04FF080604049083924
:100C70004860E06A00287AD02046E16A884776E03A
:100C800094F84010022088402840A0B306F00200EB
:100C900088B32068006800F0200040B92068006830
:100CA00020F00A0021680860012084F82100304902
:100CB0002068884201D1022028E02D4914312068A3
:100CC000884201D1202021E029492831206888422A
:100CD00001D140151AE026493C312068884202D1F2
:100CE0004FF4005012E0224950312068884203D16D
:100CF0004FF400300AE017E01D4964312068884253
:100D000002D14FF4001001E04FF00070184908398B
:100D1000486000BF002084F8200000BFA06A30B304
:100D20002046A16A884722E094F8401008208840B5
:100D30002840E0B106F00800C8B12068006820F043
:100D40000E002168086094F8401001208840E16B93
:100D500048600120A06384F8210000BF002084F8CF
:100D6000200000BF206B10B12046216B884770BD6A
:100D7000080002400146002209B901207047164BC5
:100D80000868C01A1423B0FBF3F08000086412480E
:100D90000838C863022081F821000868026843F619
:100DA000F0708243D1E901031843CB6818430B6903
:100DB00018434B6918438B691843CB6918430243A6
:100DC0000868026000208863012081F8210000206B
:100DD00081F8200000BFD1E7080002402DE9F84764
:100DE0000346002294466EE14FF0010808FA02F42F
:100DF000D1F8008008EA0400A0427DD1DFF8DCA22F
:100E0000D1F80480A8EB0A09D0453AD014DCB8F137
:100E1000030F50D009DCB8F1000F31D0B8F1010F49
:100E20001CD0B8F1020F49D120E0B8F1110F18D051
:100E3000B8F1120F42D11EE0B9F5881F25D006DCAB
:100E4000B9F5803F20D0B9F5801F37D11AE0B9F548
:100E5000001F18D0B9F5041F30D117E0D1F80CC02D
:100E60002DE0D1F80C8008F1040C28E0D1F80C80BA
:100E700008F1080C23E0D1F80C8008F10C0C1EE0FE
:100E800000BF00BF00BF00BF00BF00BFD1F8088097
:100E9000B8F1000F02D14FF0040C0BE0D1F808803C
:100EA000B8F1010F03D14FF0080C1C6102E04FF0C4
:100EB000080C5C6103E04FF0000C00E000BF00BFD5
:100EC000FF2801D8984601E003F104084646FF28B0
:100ED00002D84FEA820803E0A2F108084FEA880826
:100EE0004746D6F800804FF00F0909FA07F928EABB
:100EF00009080CFA07F900E088E048EA0908C6F892
:100F00000080D1F8048008F08058B8F1805F7DD16E
:100F100000BFDFF8CC81D8F8188048F00108DFF86E
:100F2000C091C9F81880C846D8F8188008F00108A0
:100F3000CDF8008000BF00BF4FEAB9384FEA9209F0
:100F400058F829504FEA82784FEA18794FF00F0885
:100F500008FA09F825EA0805DFF88881434502D137
:100F60004FF0000816E0DFF88081434502D14FF0D2
:100F700001080FE0DFF87481434502D14FF0020809
:100F800008E0DFF86C81434502D14FF0030801E02F
:100F90004FF004084FEA82794FEA197908FA09F804
:100FA00048EA0505DFF84C814FEA920948F82950D4
:100FB000D1F8048008F48038B8F5803F0AD1DFF812
:100FC0003881D8F8008048EA0008DFF82C91C9F889
:100FD000008009E0DFF82081D8F8008028EA0008C6
:100FE000DFF81491C9F80080D1F8048008F40038C3
:100FF000B8F5003F10D1DFF8008108F10408D8F8F7
:10100000008048EA0008DFF8F09000E05AE009F1BB
:101010000409C9F800800DE0DFF8DC8008F104085D
:10102000D8F8008028EA0008DFF8CC9009F104091C
:10103000C9F80080D1F8048008F48018B8F5801F42
:101040000ED1DFF8B48008F10808D8F8008048EA2B
:101050000008DFF8A49009F10809C9F800800DE044
:10106000DFF8948008F10808D8F8008028EA000822
:10107000DFF8849009F10809C9F80080D1F80480EC
:1010800008F40018B8F5001F0ED1DFF86C8008F1E5
:101090000C08D8F8008048EA0008DFF85C9009F1F5
:1010A0000C09C9F800800DE0DFF84C8008F10C084D
:1010B000D8F8008028EA0008DFF83C9009F10C0914
:1010C000C9F80080521CD1F8008028FA02F8B8F163
:1010D000000F7FF489AEBDE8F88700000000111012
:1010E0000010024000080140000C014000100140C7
:1010F000001401400800014000040140C2680A4099
:101100000AB1416100E0016170470AB1016101E08B
:101110000B0403617047000001480068704700003D
:101120000400002003480068034909780844014985
:1011300008607047040000200C00002010B508482B
:10114000006840F0100006490860032000F0BCF879
:101150000F2000F007F800F02BF8002010BD000071
:101160000020024070B504460E4800784FF47A71B2
:10117000B1FBF0F00C490968B1FBF0F5284600F02E
:101180001FFC08B1012070BD102C07D2002221469F
:10119000501E00F05BF80548046001E00120F2E712
:1011A0000020F0E70C0000201000002008000020C4
:1011B00008B500BF1848806940F0010016498861F1
:1011C0000846806900F00100009000BF00BF00BF2A
:1011D0000846C06940F08050C8610846C06900F008
:1011E0008050009000BF00BF00220F21901E00F031
:1011F0002DF800BF0949486820F0E06040F0007019
:10120000486000BF064800F0D7FC064800F0D4FC58
:10121000054800F0D1FC08BD00100240000001406C
:101220004821002088210020C821002001460846CE
:10123000002809DB00F01F0301229A4043099B00AC
:1012400003F1E023C3F8002100BF70472DE9F05FF0
:1012500080460D461646002701F09AFA07463946A1
:101260002A46334601F00700C0F1070ABAF1040F1D
:1012700002D94FF0040A01E0C0F1070AD14600F19B
:10128000040ABAF1070F02D24FF0000A01E0A0F100
:10129000030AD4464FF0010A0AFA09FAAAF1010A30
:1012A0000AEA020A0AFA0CFA4FF0010B0BFA0CFBDD
:1012B000ABF1010B0BEA030B4AEA0B042146404653
:1012C00001F076FABDE8F09F00BF00F00702064B80
:1012D00019684FF6FF031940044B0B4343EA022100
:1012E000014B196000BF70470CED00E00000FA05EB
:1012F00070B504460D460CB9012070BD5A4800680F
:1013000000F00700A8420ED25748006820F00700FE
:101310002843554908600846006800F00700A842C5
:1013200001D00120E9E7207800F0020002281DD159
:10133000207800F00400042805D14C48406840F4AF
:10134000E0604A494860207800F00800082805D18C
:101350004648406840F4605044494860434840680B
:1013600020F0F000A168084340494860207800F070
:10137000010078B36068012806D13C48006800F499
:10138000003090B90120B8E76068022806D13748DC
:10139000006800F0007040B90120AEE733480068F3
:1013A00000F0020008B90120A7E73048406820F0AB
:1013B0000300616808432D494860FFF7ADFE06460B
:1013C00009E0FFF7A9FE801B41F28831884202D96B
:1013D000032092E707E02548406800F00C006168B0
:1013E000B0EB810FEDD12048006800F00700A84263
:1013F0000ED91D48006820F0070028431A490860EC
:101400000846006800F00700A84201D0012074E7F8
:10141000207800F00400042807D11448406820F424
:10142000E060E168084311494860207800F0080056
:10143000082808D10D48406820F46050216940EA2E
:10144000C1000A49486000F03FF808494968C1F303
:101450000311074A515CC840064908600648006805
:10146000FFF780FE002048E7002002400010024005
:10147000745800081000002008000020014800688F
:10148000704700001000002000B5FFF7F7FF044987
:101490004968C1F30221034A515CC84000BD000005
:1014A000001002408458000800B5FFF7E7FF044928
:1014B0004968C1F3C221034A515CC84000BD000025
:1014C0000010024084580008F0B585B00FF26C0C93
:1014D0009CE8E01001A8A0E8E0101CA52D6800958C
:1014E00000210022002300240020194D696801F02A
:1014F0000C05F5B1042D02D0082D19D101E01548D5
:1015000019E001ADC1F38346AC5D01F4803555B1FE
:101510000F4D6D68C5F340451DF805200D4D654321
:10152000B5FBF2F302E00C4D04FB05F3184602E0B4
:1015300000BF084800BF00BF05B0F0BD02030405AE
:10154000060708090A0B0C0D0E0F1010010200000F
:101550000010024000127A0000093D00F8B5044670
:101560000CB90120F8BD207800F00100002878D0E7
:10157000F848406800F00C0004280CD0F54840689A
:1015800000F00C00082811D1F248406800F48030C7
:10159000B0F5803F0AD1EF48006800F40030002821
:1015A0005FD0606800285CD10120DBE700BF606885
:1015B000B0F5803F06D1E748006840F48030E54947
:1015C000086028E0606858B9E248006820F480307C
:1015D000E04908600846006820F4802008601AE0AE
:1015E0006068B0F5A02F0BD1DA48006840F4802085
:1015F000D84908600846006840F4803008600AE076
:10160000D448006820F48030D24908600846006859
:1016100020F48020086000BF606888B1FFF77CFD7F
:10162000054606E0FFF778FD401B642801D903203A
:1016300098E7C848006800F400300028F2D010E0B5
:10164000FFF76AFD054606E0FFF766FD401B6428CC
:1016500001D9032086E7BF48006800F40030002865
:10166000F2D1207800F00200022857D1B948406832
:1016700000F00C0050B1B748406800F00C0008289A
:1016800018D1B448406800F4803098B9B148006877
:1016900000F0020020B12069012801D0012061E79B
:1016A000AC48006820F0F800616940EAC100A9492F
:1016B000086033E02069E8B10120A7490860FFF71E
:1016C0002BFD054606E0FFF727FD401B022801D948
:1016D000032047E79F48006800F002000028F2D08E
:1016E0009C48006820F0F800616940EAC10099490F
:1016F000086013E0002098490860FFF70DFD0546DB
:1017000006E0FFF709FD401B022801D9032029E765
:101710009048006800F002000028F2D1207800F024
:10172000080008282DD1A069B8B101208B490860B4
:10173000FFF7F2FC054606E0FFF7EEFC401B02282F
:1017400001D903200EE78348406A00F00200002818
:10175000F2D0012000F0ECFB13E000207F4908608C
:10176000FFF7DAFC054606E0FFF7D6FC401B02282F
:1017700001D90320F6E67748406A00F0020000280D
:10178000F2D1207800F00400042873D100277148BA
:10179000C06900F0805070B900BF6E48C06940F069
:1017A00080506C49C8610846C06900F080500090C4
:1017B00000BF00BF01276A48006800F48070B0B91C
:1017C0006748006840F4807065490860FFF7A4FC32
:1017D000054606E0FFF7A0FC401B642801D9032062
:1017E000C0E65F48006800F480700028F2D000BFB7
:1017F000E068012806D15748006A40F001005549C9
:10180000086227E0E06858B95248006A20F00100F9
:10181000504908620846006A20F00400086219E096
:10182000E06805280BD14B48006A40F004004949A4
:1018300008620846006A40F0010008620AE0454874
:10184000006A20F00100434908620846006A20F05F
:101850000400086200BFE068A0B1FFF75DFC054628
:1018600009E0FFF759FC401B41F28831884202D958
:10187000032077E622E03748006A00F002000028E3
:10188000EFD012E0FFF748FC054608E0FFF744FC04
:10189000401B41F28831884201D9032062E62D487D
:1018A000006A00F002000028F0D1012F05D129487C
:1018B000C06920F080502749C86100BFE069C8B303
:1018C0002448406800F00C00082860D0E069022835
:1018D00048D1002020490866FFF71EFC054606E0B7
:1018E000FFF71AFC401B022801D903203AE61948E9
:1018F000006800F000700028F2D1206AB0F5803F47
:1019000007D11448406820F40030A1680843114909
:101910004860D4E9080108430E49496821F474116C
:1019200008430C49486001200B490866FFF7F4FBA7
:10193000054607E03DE0FFF7EFFB401B022801D919
:1019400003200FE60348006800F000700028F2D082
:101950002FE000000010024000004242800442429A
:1019600000700040002014490866FFF7D5FB0546CB
:1019700006E0FFF7D1FB401B022801D90320F1E567
:101980000E48006800F000700028F2D111E0E06914
:10199000012800D1E6E50948466806F48031206A4E
:1019A000814204D106F47011606A814201D00120A5
:1019B000D8E50020D6E500000000424200100240B9
:1019C00070B504462546681EB0F1807F01D3012022
:1019D0000FE0681E4FF0E02148610F214FF0FF300B
:1019E00000F0E6FE00204FF0E0218861072008614A
:1019F000002070BD704700002DE9F04704462068C4
:101A000005682068C668206847694FF00008C1462D
:101A100005F00F08B8F1000F0AD105F0200038B129
:101A200006F0200020B1204600F0BEFCBDE8F087A3
:101A3000B8F1000F6DD007F0010018B906F49070EE
:101A4000002866D005F0010030B106F4807018B1AE
:101A5000E06B40F00100E06305F0040030B107F0F6
:101A6000010018B1E06B40F00200E06305F00200F5
:101A700030B107F0010018B1E06B40F00400E06302
:101A800005F0080030B107F0010018B1E06B40F03C
:101A90000800E063E06B68B305F0200028B106F0B1
:101AA000200010B1204600F07FFC20684069C0F3A0
:101AB0008019E06B00F0080010B9B9F1000F22D0D6
:101AC000204600F0E5FB2068406900F04000B0B11E
:101AD0002068406920F0400021684861606B50B187
:101AE0001748616B4863606BFFF71EF810B1606BBD
:101AF000416B88470CE02046FFF77CFF08E020465A
:101B0000FFF778FF04E02046FFF774FF0020E06352
:101B10008CE705F0800030B106F0800018B1204657
:101B200000F066FD82E705F0400030B106F04000AD
:101B300018B1204600F0BCFB78E700BF76E7000054
:101B40007D22000810B504460CB9012010BDA06923
:101B500000B100E000BF94F8390028B9002084F8F3
:101B60003800204600F028F8242084F83900206846
:101B7000C06820F400502168C860204600F068FC6E
:101B80002068006920F4904021680861206840695D
:101B900020F02A00216848612068C06840F40050A5
:101BA0002168C8600020E063202084F8390084F8B0
:101BB0003A000020CAE7000010B586B004460020B5
:101BC0000290039004900590A749206888426AD14A
:101BD00000BFA648806940F48040A4498861084657
:101BE000806900F48040019000BF00BF00BF08463C
:101BF000806940F0040088610846806900F00400B4
:101C0000019000BF00BF48150290022003900320FE
:101C1000059002A99648FFF7E1F84FF48060029022
:101C200000200390049002A99148FFF7D7F891484B
:101C3000914908600020486000218F488160802120
:101C4000C1600021016141618161C161FFF792F8CA
:101C500008B1FEF70AFF00BF87486063446200BF17
:101C60008448143885490860102048600021834862
:101C700081608021C1600021016141618161C16198
:101C8000FFF778F808B1FEF7F0FE00BF7B4820634D
:101C9000446200BF002205212520FFF7D7FA252046
:101CA000FFF7C4FADDE07649206888426AD100BFB8
:101CB0006E48C06940F400306C49C8610846C0698C
:101CC00000F40030019000BF00BF00BF08468069EB
:101CD00040F0040088610846806900F0040001902B
:101CE00000BF00BF04200290022003900320059053
:101CF00002A95F48FFF772F80820029000200390C5
:101D0000049002A95A48FFF769F85A4814305D490F
:101D100008600020486000215A4881608021C1602D
:101D20000021016141618161C161FFF723F808B1C0
:101D3000FEF79BFE00BF53486063446200BF4D48FE
:101D40002830514908601020486000214E488160C9
:101D50008021C1600021016141618161C161FFF7A2
:101D600009F808B1FEF781FE00BF474820634462CE
:101D700000BF002205212620FFF768FA2620FFF782
:101D800055FA6EE04149206888426AD100BF374861
:101D9000C06940F480203549C8610846C06900F434
:101DA0008020019000BF00BF00BF0846806940F05E
:101DB000080088610846806900F00800019000BFB3
:101DC00000BF08150290022003900320059002A98D
:101DD0002F48FFF703F84FF40060029000200390B3
:101DE000049002A92A48FEF7F9FF22482838294919
:101DF0000860002048600021264881608021C16081
:101E00000021016141618161C161FEF7B3FF08B149
:101E1000FEF72BFE00BF1F486063446200BF1548F9
:101E20003C381D4908601020486000211A48816034
:101E30008021C1600021016141618161C161FEF7C2
:101E400099FF08B1FEF711FE00BF134820634462FA
:101E500000BF002205212720FFF7F8F92720FFF710
:101E6000E5F906B010BD0000003801400010024046
:101E70000008014058000240082200204C220020A7
:101E80000044004090220020D4220020004800405E
:101E9000000C0140182300205C230020704770478D
:101EA00000BFFEE710B500F005F9FEF7E1FD00F018
:101EB0005BF900F087F900F0B3F910BDC16841F09B
:101EC0002001C160704701460868C0F340107047A8
:101ED00001460868C0F3C01070470146C868C0F3E7
:101EE000401070474160704700BFFEE700BFFEE74B
:101EF000F0B503460C4603F00701C1F107000428C2
:101F000001D9042001E0C1F107000646081D072899
:101F100001D2002000E0C81E05460120B040401E4E
:101F20002040A8400127AF407F1E17403843F0BD36
:101F300008B508490968C9084FF47A72B1FBF2F193
:101F40004143009100BF00BF00994A1E0092002942
:101F5000F9D108BD1000002010B53448407810B108
:101F600032480078B8B900224FF400513048FFF7EA
:101F7000CCF8C82001F080FA012251032C48FFF769
:101F8000C4F8C82001F078FA2AA002F0E9F84FF46A
:101F9000FA5001F071FA02F085F82448007801281F
:101FA00001D101F033FA21480078012815D11F48EA
:101FB0004078012811D11FA002F0D2F81FA121A062
:101FC00001F05EF94FF4FA7001F056FA1EA001F02C
:101FD000CFF94FF4FA7001F04FFA00241DE0012010
:101FE00001F04AFA641C40F6B830844202DD002455
:101FF00001F0C4F8164890F8CA00C0F3400060B180
:10200000134890F8CA0020F00200114981F8CA0074
:10201000002410490BA001F033F90448007801288E
:1020200003D1024840780128D9D010BDAD0000206E
:10203000000C0140415445300A0000007374617285
:102040007400000067736D0073657276657200003E
:102050007F2600200420002010B500F02BFD10BDCD
:1020600010B502F079F91248007920F00200801CC6
:102070000F4908714FF47A710D48406861F31530CB
:102080000B4948600846007900F0010030B108466D
:10209000007920F00100087102F0E8F9FFF742F83A
:1020A00003F07CF9012801D002F0CAFD10BD000048
:1020B000D020002000B58FB0282105A8FEF749FAEE
:1020C00014216846FEF745FA022005900120099088
:1020D00010200A9002200C9000210D914FF4C011A5
:1020E0000E9105A8FFF73AFA08B1FEF7BEFC0F20E3
:1020F00000900220019000200290039004900121A2
:102100006846FFF7F5F808B1FEF7AFFC0FB000BD69
:102110001148006840F001000F4908600846406817
:102120000E4908400C494860084600680C490840C0
:10213000094908600846006820F4802008600846C5
:10214000406820F4FE0048604FF41F008860C80318
:102150000449086070470000001002400000FFF8CA
:10216000FFFFF6FE08ED00E070B514481449086062
:102170004FF416504860002111488160C160016130
:102180000C21416100218161C161FFF7DBFC08B1D5
:10219000FEF76BFC0948FFF791FE00F001FB0546D6
:1021A00001221146FFF7A4FE04462146252000F037
:1021B00013FB252000F0DFFA70BD0000003801405D
:1021C0004821002070B51448144908604FF4E130EC
:1021D0004860002111488160C16001610C214161AA
:1021E00000218161C161FFF7ADFC08B1FEF73DFC44
:1021F0000948FFF763FE00F0D3FA054601221146B5
:10220000FFF776FE04462146262000F0E5FA262058
:1022100000F0B1FA70BD00000044004088210020A9
:1022200070B51448144908604FF4165048600021F6
:1022300011488160C16001610C214161002181610F
:10224000C161FFF77FFC08B1FEF70FFC0948FFF7FB
:1022500035FE00F0A5FA054601221146FFF748FEBB
:1022600004462146272000F0B7FA272000F083FA21
:1022700070BD000000480040C821002070B5054630
:102280006C6A0020E085E0842046FFF7B3FB70BD58
:102290000168C96821F490710268D16001684969D8
:1022A00021F0010102685161202180F83A10704745
:1022B00010B504462068C06820F040002168C8605E
:1022C000202084F839002046FFF7E9FD002010BDEA
:1022D00070B505460E462846FEF77BF8174908609C
:1022E000002400BF24E0032E09D1295D1448FFF724
:1022F000F9FD00BF1248FFF7EBFD0028FAD0022ECF
:1023000009D1295D0F48FFF7EDFD00BF0D48FFF72C
:10231000DFFD0028FAD0012E09D1295D0A48FFF718
:10232000E1FD00BF0848FFF7D3FD0028FAD0641C88
:10233000024800688442D6DB012070BD980000206E
:1023400000480040004400400038014070B5054698
:102350000C46032C09D129461048FFF7C3FD00BFE6
:102360000E48FFF7B5FD0028FAD0022C09D1294606
:102370000B48FFF7B7FD00BF0948FFF7A9FD00288C
:10238000FAD0012C09D129460648FFF7ABFD00BF62
:102390000448FFF79DFD0028FAD070BD00480040BA
:1023A000004400400038014070B5044694F83A00FB
:1023B00022284AD1A068B0F5805F13D1A56A2069B0
:1023C00040B920684068C0F308002880A06A801CDB
:1023D000A06219E020684068C0B22880A06A401C52
:1023E000A06211E0206938B920684068C1B2A26AD1
:1023F000501CA062117007E02068406800F07F0167
:10240000A26A501CA0621170E08D401E80B2E0856F
:10241000C8B92068C06820F020002168C860206822
:10242000C06820F480702168C8602068406920F08E
:10243000010021684861202084F83A002046FFF717
:102440002DFD002070BD0020FCE70220FAE700000F
:1024500070B504462168096921F44051E2681143CE
:10246000226811612269A1681143626941EA02058B
:102470002168C96841F20C62914329432268D16006
:102480002168496921F44071A269114322685161B0
:10249000564A2168914254D1FFF706F800EBC0017B
:1024A00001EB001162689200B1FBF2F100EBC00297
:1024B00002EB001263689B00B2FBF3F26423B2FBF1
:1024C000F3F202EBC20303EB0212A1EB8201322210
:1024D00002EB01116422B1FBF2F101F0F00100EB1B
:1024E000C00202EB001263689B00B2FBF3F26423AC
:1024F000B2FBF3F201EB021200EBC00101EB0011A1
:1025000063689B00B1FBF3F100EBC00303EB001326
:102510006668B600B3FBF6F36426B3FBF6F303EB91
:10252000C30606EB0313A1EB8301322303EB011176
:102530006423B1FBF3F101F00F01114422689160B3
:1025400053E0FEF7A1FF00EBC00101EB0011626850
:102550009200B1FBF2F100EBC00202EB00126368E3
:102560009B00B2FBF3F26423B2FBF3F202EBC20373
:1025700003EB0212A1EB8201322202EB0111642271
:10258000B1FBF2F101F0F00100EBC00202EB00122E
:1025900063689B00B2FBF3F26423B2FBF3F201EB3E
:1025A000021200EBC00101EB001163689B00B1FB5C
:1025B000F3F100EBC00303EB00136668B600B3FB56
:1025C000F6F36426B3FBF6F303EBC30606EB031343
:1025D000A1EB8301322303EB01116423B1FBF3F17F
:1025E00001F00F0111442268916070BD0038014074
:1025F000014691F8390021282CD18868B0F5805F18
:102600000FD10A6A1088C0F308000B685860086987
:1026100018B9086A801C086209E0086A401C086250
:1026200005E00B6A581C086218780B685860C88C63
:10263000401E80B2C88458B90868C06820F0800085
:102640000B68D8600868C06840F040000B68D8602C
:10265000002070470220FCE710B50B48FFF733FC61
:1026600068B10948FFF739FC48B100BF0648406827
:10267000C0B2064908700846007800F043FC0448E0
:10268000FFF7BAF910BD000000380140000000203B
:102690004821002010B50B48FFF715FC68B1094828
:1026A000FFF71BFC48B100BF06484068C0B20649AE
:1026B00008700846007800F0D1F90448FFF79CF94B
:1026C00010BD0000004400400100002088210020CF
:1026D00010B50B48FFF7F7FB68B10948FFF7FDFBA2
:1026E00048B100BF06484068C0B2064908700846B5
:1026F000007801F043FD0448FFF77EF910BD0000AB
:102700000048004002000020C821002000BFFEE772
:1027100000BF012000F0B0FE1048007820F0020059
:10272000801C0E4908704FF496710C48006861F3E4
:1027300015300A4908600846007800F0010040B1F1
:102740000846007820F00100087000F03BF901F025
:1027500081FC00F07DF801F085FDDAE7D020002053
:1027600000BFFFF7F9FBFCE700BF00F0E1F8012034
:1027700000F082FEF9E7002809DB00F01F020121CA
:1027800091404209920002F1E022C2F80011704724
:1027900002480068C0F30220704700000CED00E022
:1027A00002480068C0F30220704700000CED00E012
:1027B00010B5002804DB0A07130E054A135406E07F
:1027C0000A07140E034A00F00F031B1FD45410BD58
:1027D00000E400E018ED00E010B5002804DB0A0773
:1027E000130E054A135406E00A07140E034A00F0BC
:1027F0000F031B1FD45410BD00E400E018ED00E0EF
:10280000EFF311807047EFF305807047EFF310800E
:102810007047000010B596B009A102A8FDF782FD2F
:1028200002A8FDF7D6FD84B202A8234602220321A6
:102830000090012000F086FB00F06AFA16B010BD8F
:102840007B2273657269616C223A223F222C7D00E3
:1028500010B51048007920F00400001D0D490871E2
:102860000846007920F00100401C08710521094844
:10287000406861F356300749486008460079C0F364
:10288000400030B10846007920F002000871FFF7DF
:10289000C1FF10BD2021002010B5C8210548FDF75B
:1028A00036FE0020044908700249491E087081F86C
:1028B000C90010BDB5250020A000002010B5C8211A
:1028C0000348FDF724FE0020014981F8C80010BD2F
:1028D0004A27002010B5C8210548FDF718FE002042
:1028E000044908700249491E087081F8C90010BDEA
:1028F00080260020AC00002000B595B0FFF7CCFF8B
:1029000005A101A8FDF70EFD022101A8FFF7E0FCDB
:1029100000F056FA15B000BD7B636F6E6E65637490
:10292000696F6E5F746573743A223F222C7D0000DC
:1029300010B521480078C0F30010A8B31F4890F8E4
:10294000CA00C0F3400008B100F06AF81B4890F8D4
:10295000CA0000F0010030B91848007800F001000A
:1029600008B100F02DFA1648007820F00400001D90
:10297000134908700846007820F00100401C0870D8
:1029800006210F48006861F356300D49086008467B
:102990000078C0F3400070B10846007820F00200D3
:1029A0000870FFF7A9FF06E0FFE7FFF7A5FF4FF468
:1029B0007A7000F061FD10BDA1000020B425002058
:1029C0002021002010B514480078C0F3400040B921
:1029D00011480078C0F3C00018B110210F48FEF76D
:1029E0008DFB0D48007800F0010020B90A480078FE
:1029F000C0F3400020B1002210210848FEF785FBFB
:102A000005480078C0F3001020B1012210210348CE
:102A1000FEF77BFB10BD0000A1000020000C014070
:102A200010B564200A4908800A4890F8CA00C0F32B
:102A3000400058B1074890F8CA0020F0020005494C
:102A400081F8CA0002210448FFF742FC10BD0000D3
:102A50009C000020B42500200420002010B504466E
:102A60007B2C02D101201149087010480078012800
:102A700013D10F4890F8C910401C4454401E90F8E0
:102A8000C900401C0A4981F8C9007D2C05D10220EB
:102A900006490870012006490870054890F8C900E9
:102AA000C82801DBFFF7F8FE10BD0000A0000020E1
:102AB000B4250020002000BF21E00022374951F852
:102AC000201062F31531354A42F82010114611F8F2
:102AD000201021F0020102F82010114611F82010F8
:102AE00021F0010102F8201000222C4951F8201099
:102AF00062F38B01294A42F82010411C88B20A284F
:102B0000DBDB002019E0264911F8201021F002013A
:102B1000234A02F82010114611F8201021F001017B
:102B200002F8201000221E4951F8201062F38B0198
:102B30001B4A42F82010411C88B20A28E3DB00201F
:102B400029E0184911F8201021F00401154A02F873
:102B500020100022134951F8201062F35631114A17
:102B600042F82010114611F8201021F0010102F85E
:102B70002010114611F8201021F0020102F8201057
:102B80000022084951F8201062F3CC01054A42F8AE
:102B90002010411C88B20A28D3DB7047D0200020C7
:102BA000F82000202021002070B505460C46214663
:102BB000284601F047FB002809DB2146284601F0A2
:102BC00041FB06462046FDF704FC304470BD4FF043
:102BD000FF30FBE72DE9FE4305460F462248FDF78F
:102BE000F8FB804641462048FDF7B3FC00263946F5
:102BF0002846FFF7D9FF064616B90020BDE8FE8338
:102C00000024A85D222813D106E03019401C295C5D
:102C100015480155601CC4B2701C2044285C2C2847
:102C200004D0701C2044285C2228EED10120E5E766
:102C300009E03019285C0DF80400601CC4B2052CB2
:102C400001DD0020DAE73019285C2C2803D0301988
:102C5000285C7D28EDD16846FDF778FB0249C8392C
:102C6000C1F82C010220C9E7682400201CB5FEF73A
:102C700065FAFFF717F9FFF7EFF90122110215487E
:102C8000FEF743FA012251031348FEF73EFA0020F3
:102C9000012103466422CDE9001010A1124802F080
:102CA000EFFA0020012103466422CDE900100FA1B4
:102CB000114802F0E5FA0020012103466422CDE923
:102CC00000100EA1114802F0DBFA01F01DFE0020F9
:102CD0001CBD000000080140000C01407461736BD2
:102CE0005F77696669000000692700087461736B8B
:102CF0005F73696D00000000612700087461736BE9
:102D00005F616476616E6365000000001127000852
:102D100010B54FF4FA6001F0A3FE38B922480078EC
:102D200020F00200801C204908702BE01E4800782B
:102D300020F002001C49087001F050F9C8221B491C
:102D40001B48FDF722FB1BA11948FFF743FF012891
:102D500011D11748C830FDF7F9FA13494860084601
:102D6000007820F0020008700846007820F001008A
:102D7000401C087006E00C48007820F00200801C1F
:102D80000949087008480078C0F3400028B1064897
:102D9000007820F001000449087000200349891ED2
:102DA00081F8CC0010BD0000A40000200420002009
:102DB000A02300202273657269616C223A00000032
:102DC00010B54FF4FA5001F065FE38B9404800786C
:102DD00020F00100401C3E49087047E03C48007864
:102DE00020F001003A49087001F0F8F8C82239498A
:102DF0003948FDF7CAFA39A13748FFF7EBFE012839
:102E000023D139A13448C830FDF7CAFB38B930485E
:102E1000007820F00200801C2D49087005E02C4845
:102E2000007820F002002A49087031A12A48C830F1
:102E3000FDF7B6FB30B92648007820F008000830CE
:102E400023490870FFF728FD10E02148007820F0A2
:102E500002001F4908700846007820F0080008703A
:102E60000846007820F010001030087018480078EC
:102E7000C0F3C00048B91648007800F0010020B93E
:102E800013480078C0F3400030B11148007820F0BA
:102E900010000F4908701AE00D48007820F010006B
:102EA00010300B49087014A10B48FFF793FE01285E
:102EB00002D1FFF7F1FC0AE00648401E90F8CA0074
:102EC00020F00100401C0349491E81F8CA0010BDD2
:102ED000A1000020B5250020A023002022657272E9
:102EE0006F72223A000000007769666900000000F6
:102EF0006D717474000000002240656D7074792259
:102F00003A0000000D4991F8C920491C8854491E17
:102F100091F8C910491C094A82F8C910114691F864
:102F2000C910C82902DD002182F8C9100022044915
:102F3000096962F38B01024A11617047241F002066
:102F4000D02000202DE9F05F8046894617461D46B7
:102F5000DDF828A005F1140B5846FDF78DF904465D
:102F6000002684F8008084F801903812A070E77081
:102F700028122071657100BF04E01AF80610B01D18
:102F80002154761CAE42F8DBA91D2046FDF71EFD3C
:102F90001249088008460178A81D21540F4800886E
:102FA0000112E81D215400260FE0012211020C48F5
:102FB000FEF7ABF8A05D0121FFF7C8F900224FF43E
:102FC00080710748FEF7A1F8761C05F109008642DA
:102FD000EBDB2046FDF77FF9BDE8F09F8C00002079
:102FE0000008014010B54348407801282DD14148E0
:102FF0008078022829D13F480179C07801EB002070
:103000003D4908803B4840793C49087039488179FE
:10301000C07901EB00203A49088005213548401C61
:10302000FDF7D4FC374908800846008834490988F0
:10303000884208D130480078334908702F4800781A
:103040004870012010BDFF20FCE72A484078012885
:103050004CD128488078032848D126480179C07887
:1030600001EB00202449088022488179407901EB56
:103070000020264908801F48401C0988891D425CA1
:1030800022490988C91D405C02EB00201C490880C8
:103090001E480088811D1748401CFDF797FC194900
:1030A0000880084600881649098888421FD1C8212F
:1030B0001548801CFDF72BFA002007E00D49491C3C
:1030C000821D8A5C1049891C0A54401C0F490988DA
:1030D0008842F3DB0D4800880B49A1F8CA00064876
:1030E00000780870012081F8CC0000E000BF00BF2C
:1030F000A8E70000241F00208E0000209000002080
:103100009200002094000020022000209600002061
:1031100010B5184890F8C900002807DD1648007C53
:1031200020F00200801C1449087405E01248007C5D
:1031300020F00200104908740A210F48006961F369
:1031400015300D4908610846007C00F0010078B197
:103150000846007C20F001000874FFF743FFC821F7
:103160000448401CFDF7D3F90020024981F8C9004A
:1031700010BD0000241F0020D020002038B517A06B
:1031800000F0EEFF642000F077F917A000680090CF
:103190000225002405E01DF804000321FFF7D6F8FE
:1031A000641CAC42F7DB03211A20FFF7CFF84FF481
:1031B0007A6001F0A9FC0DA10D4801F043F8002848
:1031C00002DD01200B4948700BA1094801F03AF8D3
:1031D000002802DD00200749487038BD41542B43C8
:1031E000495053454E440A00C00000004F4B0000B8
:1031F0004A270020AD0000204552524F52000000E7
:1032000030B58DB00FA000F0ABFF642000F034F9B2
:1032100030220FA101A8FDF740F92E25002405E07A
:1032200001A9085D0321FFF791F8641CAC42F7DBAC
:1032300003211A20FFF78AF84FF47A6001F064FC4A
:103240000DB030BD41542B43495053454E440A0004
:10325000102C00064D514973647003C2003C0006F7
:1032600041424344454600086478786B676B707050
:10327000000C7141555A4264615349554C78000025
:10328000F0B5B3B007460D4630A000F069FF6420EA
:1032900000F0F2F8C42102A8FDF75BF92E4800689F
:1032A00001903846FDF795F8C0B28DF8070000246C
:1032B00004E0395D01AA201D1154641C3846FDF755
:1032C00088F8A042F5DC002408E03846FDF781F8D4
:1032D000211D084401A92A5D0A54641C2846FDF7F3
:1032E00078F8A042F1DC3846FDF773F8044628462A
:1032F000FDF76FF82044061DB01EC0B28DF8050022
:10330000002405E001A9085D0321FFF71FF8641CF4
:10331000B442F7DB03211A20FFF718F84FF47A6064
:1033200001F0F2FB0DA10E4800F08CFF002802DD39
:1033300001200C4948700CA1094800F083FF0028C7
:1033400002DD00200749487033B0F0BD41542B43E3
:10335000495053454E440A00B85800084F4B0000EE
:103360004A270020AD0000204552524F5200000075
:1033700070B5B2B0064621A000F0F2FE642000F065
:103380007BF8C02102A8FDF7E4F81F4903C9CDE985
:1033900000013046FDF71DF8C0B28DF8050000248D
:1033A00004E0315DA01D0DF80010641C3046FDF7EF
:1033B00010F8A042F5DC3046FDF70BF8C01D0022E6
:1033C0000DF800203046FDF704F8C51DA81EC0B258
:1033D0008DF80100002405E01DF804000321FEF72C
:1033E000B5FF641CAC42F7DB03211A20FEF7AEFFE9
:1033F0004FF47A6001F088FB32B070BD41542B432A
:10340000495053454E440A00BC58000810B54FF4CB
:103410007A7000F031F80AA000F0A2FE42F21071BA
:1034200012A001F04DFB134948704FF47A7000F080
:1034300023F8FFF7E5FE4FF47A7000F01DF810BD99
:1034400041542B43495053544152543D225443500C
:10345000222C22352E3139382E3137362E32333365
:10346000222C2231383833220A000000434F4E4EBE
:1034700045435400AD00002070B50546FFF7C3F981
:1034800048B9FFF7C3F930B908480068022805D1E8
:10349000FFF7B6F910B16FF0050404E0002415B190
:1034A000284601F0B5F9204670BD000064000020F8
:1034B0002DE9F04105460E46164807681648006893
:1034C000001D01F025F8681C38B936B112480168B2
:1034D000091D124801F072F81AE07C190E480068C4
:1034E0004460BC4207D20C480168091D0C480068C2
:1034F00001F04AF80CE008480168091D0948006815
:1035000001F042F808480068844201D2064804608D
:10351000BDE8F0812800002014000020A005002054
:103520001C000020180000204400002010B50446B4
:1035300001F050F824480068401C234908602348E3
:10354000006840B9214804600846006801280DD190
:1035500000F0F8F90AE01E48006838B91B48006816
:10356000C06AE16A884201D81848046019480068B6
:10357000401C184908600846006860641649E06A03
:103580000968884202D91449E06A0860E16A01EBDF
:103590008101124A02EB8100211D01F00FF801F0B8
:1035A00043F80B48006868B108480068C06AE16ADF
:1035B000884207D24FF0805009490860BFF34F8F0F
:1035C000BFF36F8F10BD0000240000201400002006
:1035D00030000020400000202C000020F0000020DF
:1035E00004ED00E008B500F0F5FF12480068E8B906
:1035F000114800F0B9FF114800F0B6FF0E4810491D
:1036000008600E480F49086000200F4B0F4A102138
:1036100000900A2001F02EFB064908600846006869
:1036200020B10BA10348006801F0B6F800F0FCFFE0
:1036300008BD000058000020B4050020C805002087
:103640005000002054000020DC0500202C06002043
:10365000546D72510000000010B516E000F0BAFF82
:103660000C48C068C468201D00F052FF0A4800687A
:10367000401E0949086009480068401E0749086063
:1036800000F0D2FF204600F05EF8044800680028F1
:10369000E4D110BD8C050020240000202000002073
:1036A00070B504460D46206C70B1216CE06808448A
:1036B000E0606168E068884201D32068E0602846E5
:1036C000226CE168FCF7A4FE70BD2DE9F0410446D0
:1036D0000F4615464FF00008A66B206C40B92068D5
:1036E00060BB606801F012FF80460020606025E04A
:1036F0007DB93946226CA068FCF78AFE216CA0686F
:103700000844A060D4E90110884217D32068A06063
:1037100014E03946226CE068FCF77AFE216CE06820
:10372000401AE0602168E068884203D2216C60683A
:10373000401AE060022D01D106B1761E701CA06314
:103740004046BDE8F08110B5044694F8590030B900
:10375000206B00F087FF204600F084FF1AE094F809
:103760005900012803D1204600F07CFF12E094F8B4
:103770005900022801D1012000E0002050B900BF0B
:10378000502080F31188BFF34F8FBFF36F8F00BFBE
:1037900000BFFEE710BD00000146084A126812682B
:1037A0000AB9012200E000220A600A6822B9034A2D
:1037B0001268D268106800E00020704750000020B6
:1037C00030B54FF47A63174800F007042CB1C01DE0
:1037D00020F00700134C041B1B1B0246124C2260F6
:1037E0000024114D6C60D018083820F007000F4CF1
:1037F000206000240D4D2D686C600C4D2D682C60F0
:103800001146441A4C60094C24680C60084D4C6801
:103810002C60084D4C682C604FF00044064D2C6025
:1038200030BD0000840F00206800002070000020E0
:1038300078000020740000207C00002000BFFFF70B
:103840000BFF064800680128F9D94FF08050044961
:103850000860BFF34F8FBFF36F8FF0E7F0000020D9
:1038600004ED00E02DE9F04106460D461746984666
:10387000069C0DB9246000E02760E6632564012101
:10388000204601F067FA84F84C80BDE8F0812DE90C
:10389000F05F82460F4690469B460A9E0C9C4FEA7C
:1038A0008801A522206BFCF72AFEA8F10100216BFC
:1038B00001EB800929F0070909F0070008B9012088
:1038C00000E0002050B900BF502080F31188BFF302
:1038D0004F8FBFF36F8F00BF00BFFEE7002507E0EB
:1038E000795D04F134004155785D00B902E06D1C4A
:1038F000102DF5D300BF002143200155382E00D3F1
:103900003726E662E66400202065201D00F039FEBF
:1039100004F1180000F035FE2461C6F13800A06102
:1039200064620020606584F858005A465146484653
:1039300000F042FB20600B9808B10B980460BDE8D2
:10394000F09F000010B5002407E004EB84010F4A4B
:1039500002EB810000F008FE641C382CF5D30C4803
:1039600000F002FE0B4800F0FFFD0B4800F0FCFDEC
:103970000A4800F0F9FD0A4800F0F6FD044809493C
:10398000086004480849086010BD0000F0000020ED
:103990005005002064050020780500208C050020DB
:1039A000A0050020180000201C00002010B50146D2
:1039B000164800E0006803688B42FBD30246436868
:1039C00013448B4204D143684C682344436001464E
:1039D0000A464B6813440468A34211D10C4C036897
:1039E0002468A34208D04B680468646823444B6091
:1039F00003681B680B6005E0054B1B680B6001E06A
:103A000003680B60884200D0016010BD6800002090
:103A1000700000202DE9F04104460D4616461F4671
:103A20004FF0000865602461B5420CD8F01BA16915
:103A3000884202D34FF0010811E0211D09480068B7
:103A400000F0A2FD0BE0BE4204D2BD4202D34FF013
:103A5000010804E0211D0448006800F095FD40467F
:103A6000BDE8F081540000205000002070B50546EC
:103A700000F0B0FDA86B08B9012400E0002400F0BC
:103A8000D3FD204670BD70B5054600F0A3FDA86BC0
:103A9000E96B884201D1012400E0002400F0C4FD5C
:103AA000204670BDF8B505460F4616480068C06848
:103AB000C468201D00F02CFDE06901281DD1A0691B
:103AC00041192B463A462046FFF7A4FFA8B1002033
:103AD00003462A4601460090204601F073FE064642
:103AE00056B900BF502080F31188BFF34F8FBFF34A
:103AF0006F8F00BF00BFFEE700BF2046616A8847A6
:103B0000F8BD000050000020F0B587B082E00398B7
:103B1000002811DA04AE56B900BF502080F3118896
:103B2000BFF34F8FBFF36F8F00BF00BFFEE7D6E933
:103B30000020B168904700BF039800286ADB059C0D
:103B4000606908B9012000E0002010B9201D00F0D4
:103B5000DFFC02A800F0C0F8054603980A2857D2F7
:103B6000DFE800F009050731334F0608323400BFA3
:103B700000BF00BF00BF0498A269811803462A460F
:103B80002046FFF747FFE8B12046616A8847E069B1
:103B9000012817D1002000900498A1694218002341
:103BA0001946204601F00EFE074657B900BF5020C7
:103BB00080F31188BFF34F8FBFF36F8F00BF00BF3B
:103BC000FEE700BF25E000BF23E000BF0498A0612E
:103BD000A06908B1012000E0002050B900BF5020CA
:103BE00080F31188BFF34F8FBFF36F8F00BF00BF0B
:103BF000FEE7A06941192B462A462046FFF70AFF37
:103C000007E094F82C0010B9204600F02BFD00E0EE
:103C100000BF00BF002203A90448006801F036FA83
:103C200000287FF474AF07B0F0BD000058000020FA
:103C3000F8B505460C4600F0C3FE684600F04CF8A7
:103C40000646009820BB44B9B54206D801F0FCFCFA
:103C500031462846FFF726FF1CE03CB10E480068BD
:103C6000006808B9012000E000200446A91B224694
:103C70000A48006800F0A6FD01F0E6FC50B94FF0DC
:103C8000805007490860BFF34F8FBFF36F8F01E08B
:103C900001F0DAFCF8BD00005400002058000020BC
:103CA00004ED00E00A490968096809B9012100E04A
:103CB000002121B14FF0FF31064A116006E00449AE
:103CC0000968C968C868034A416811607047000004
:103CD000180000204400002070B5044601F06EFB7F
:103CE000054607480068854204D200F00BF8012021
:103CF000206001E00020206001480560284670BD7A
:103D0000600000202DE9F84332E024480068C068D4
:103D1000056822480068C068C468201D00F0F8FBF0
:103D20002046616A8847E069012821D1A0694619C7
:103D3000AE4207D966602461211D1848006800F072
:103D400023FC15E0002003462A4601460090204649
:103D500001F038FD074657B900BF502080F31188A5
:103D6000BFF34F8FBFF36F8F00BF00BFFEE700BFF1
:103D70000A480068006808B9012000E00020002817
:103D8000C3D00648D0F800800548006803490860A1
:103D90000348C0F80080BDE8F88300005000002010
:103DA000540000200E480068401C08B9012000E0C3
:103DB000002050B900BF502080F31188BFF34F8F0F
:103DC000BFF36F8F00BF00BFFEE700BF502080F33E
:103DD0001188BFF34F8FBFF36F8F00BF00BFFEE7A7
:103DE0008000002008B500BF6846FFF7D5FC0446F8
:103DF00020460099FFF71CFFFFF786FEF4E770B539
:103E0000044600F0E7FB94F9455010E0606A08B9F9
:103E1000012000E0002038B904F1240001F0C8FBC3
:103E200018B100F02FFD00E003E0681E45B2002D40
:103E3000ECDC00BFFF2084F8450000F0F5FB00F04B
:103E4000C9FB94F9445010E0206908B9012000E052
:103E5000002048B904F1100001F0AAFB08B100F0FD
:103E600011FD681E45B200E001E0002DECDC00BF52
:103E7000FF2084F8440000F0D7FB70BD2DE9F0412D
:103E800004464FF0000800F09BFD4648006808B962
:103E9000FFF796FC44480068204000286BD1D4B15D
:103EA000083404F00700B0B104F00700C0F10800C6
:103EB000044404F0070008B9012000E0002050B9D4
:103EC00000BF502080F31188BFF34F8FBFF36F8F77
:103ED00000BF00BFFEE7002C4DD03448006884428C
:103EE00049D8334E3046056801E02E462D68686893
:103EF000A04202D228680028F7D12A4800688542EB
:103F000039D0306800F10808286830606868001B04
:103F1000102819D92F1907F0070008B9012000E06F
:103F2000002050B900BF502080F31188BFF34F8F9D
:103F3000BFF36F8F00BF00BFFEE76868001B7860AB
:103F40006C603846FFF732FD184968680968081A3E
:103F5000164908600846006816490968884203D275
:103F600012480068134908600F49686809680843E7
:103F700068600020286001F067FB08F0070008B9BE
:103F8000012000E0002050B900BF502080F31188CC
:103F9000BFF34F8FBFF36F8F00BF00BFFEE74046F8
:103FA000BDE8F081700000207C000020740000203B
:103FB0006800002078000020001F4FF0807303602D
:103FC000001F21F001030360001F034B036014383E
:103FD0000260203870470000A53D000810B50020A1
:103FE0001A4981F8E00081F87400C1F8DC00086724
:103FF00001F1A700FCF7EDF9044621461348A7306C
:10400000FCF785FA11483C30FCF7E3F904462146F9
:104010000E483C30FCF79DFA0C480A30FCF7D9F901
:104020000446214609480A30FCF771FA0748753002
:10403000FCF7CFF90446214604487530FCF767FACF
:10404000C8210348FCF785FA10BD0000D0240020E9
:10405000A023002010B51148407838B90F480078E7
:10406000012803D120210E48FDF748F80B480078BD
:10407000012804D0002220210948FDF746F807480E
:104080004078012808D105480078012804D1012290
:1040900020210348FDF739F810BD0000AD000020D5
:1040A000000C014010B500200E49487008700EA0A9
:1040B00000F056F80DA000F053F814A000F050F8EE
:1040C0001AA000F04DF81DA000F04AF81FA000F063
:1040D00047F84FF47A6120A000F0F2FC0149087023
:1040E00010BD0000AD00002041540A0041542B5384
:1040F000415042523D332C312C22436F6E74797003
:1041000065222C2247505253220A000041542B535F
:10411000415042523D332C312C2241504E222C2210
:104120006D63696E6574220A0000000041542B53D0
:10413000415042523D312C310A00000041542B5372
:10414000415042523D322C310A00000041542B6351
:1041500070696E3F0A00000052454144590000005A
:1041600010B50446FEF7AAFB03212046FEF7B0F87F
:104170004FF47A6000F0C8FC10BD00007B2802D12B
:1041800001212C4A11702B49097801291FD12A4994
:1041900091F8C920491C8854491E91F8C910491C3E
:1041A000254A82F8C9107D2811D10221214A1170B7
:1041B000214991F8C910032903DD01211E4A11701C
:1041C00005E000211C4A82F8C9101A4A11701A49E8
:1041D00091F8C910C82903DB0021174A82F8C910D9
:1041E0001649097E21F00201891C144A1176002229
:1041F0001249896962F38B01104A916105220F49C6
:10420000896962F315310D4A91610D4991F8C81021
:104210000B4A5054114691F8C810491C82F8C81036
:10422000114691F8C810C82902DB002182F8C81095
:1042300070470000AC0000207F260020D020002026
:104240004A27002070B504460E4631462046FCF74A
:104250008AF8051B002D01DB284670BD4FF0FF30AA
:10426000FBE7000038B500224FF480713448FCF7BA
:104270004CFF344890F8CA0000F00100D8B1314832
:1042800090F8CA0020F001002E4981F8CA000846C3
:1042900090F8C90003280CDD481CFCF79AF884B29A
:1042A0002848401C23460222032100900120FEF7EB
:1042B00049FEFEF7F1FA2448007800F00100B0B1A1
:1042C000002021490870084690F8C90003280CDD39
:1042D000481CFCF77EF884B21B48401C234602228F
:1042E000032100900120FEF72DFEFEF7F3FAFEF702
:1042F0000FFF164890F8CC0000F00100F0B100204C
:10430000124981F8CC0012480078C0F3001048B17F
:104310000C4890F8CA0020F00200801C094981F87E
:10432000CA000BE00B48407840B1074890F8CA003B
:1043300020F00200801C044981F8CA0038BD00004A
:1043400000080140B42500207F2600200220002024
:10435000A1000020AD00002008B5002000903EE044
:104360004048009910F82100C0F3400058B33D497F
:10437000009A01EB820001688908491C026861F318
:104380008B0202603748009950F82100C0F3890081
:104390003449009A51F82210C1F3093188421BDDDB
:1043A0003049009A01EB82000022016862F38B0120
:1043B00001602C49009A01EB8200017821F0010193
:1043C000491C017008E02749009A01EB8200002295
:1043D000016862F38B0101600098401C0090009816
:1043E0000A28BDDB0020009038E01F48009910F833
:1043F0002100C0F3400028B31B48009950F8210069
:10440000C0F3890000280BDD1749009A01EB8200F8
:1044100001688908491E026861F38B0202601AE094
:104420001149009A01EB8200017821F0020101702C
:104430000D49009A01EB8200017821F00101491C2D
:10444000017008E00849009A01EB8200002201682F
:1044500062F38B0101600098401C009000980A28CC
:10446000C3DB08BDD0200020F8200020002000BFC2
:1044700049E0264911F82010C1F38001B9B323495E
:1044800051F82010C908491C204A52F8202061F335
:10449000CC021E4941F8202051F82010C1F3C90177
:1044A0001A4A52F82020C2F34932914229DD1749B5
:1044B00011F8201001F0010139B9144911F8201048
:1044C00021F00401114A02F8201000220F4951F88E
:1044D000201062F3CC010D4A42F82010114611F869
:1044E000201021F00201891C02F8201009E0FFE7EA
:1044F0000022064951F8201062F3CC01034A42F829
:104500002010411C88B20A28B3DB7047202100200C
:1045100001460A69D1E901309860D1E90103586088
:104520005068884201D18868506000200861106896
:10453000401E106010687047034B0360034B0B6014
:104540004FF4807313607047CC06002028070020CA
:10455000034B0360034B0B604FF480731360704791
:10456000280B0020840B002000F1080141604FF06F
:10457000FF31816000F10801C1600161002101602B
:10458000704700210161704710B502460B685C1C42
:104590000CB9106907E002F1080000E040684468C7
:1045A00024689C42FAD944684C604C68A1608860D9
:1045B00041600A611468641C146010BD42684A605E
:1045C00093688B60936859609160086103685B1C15
:1045D0000360704700BF502080F31188BFF34F8FF6
:1045E000BFF36F8F00BF0E480068401C0C49086085
:1045F00008460068012812D10A480068C0B208B90C
:10460000012000E0002050B900BF502080F3118845
:10461000BFF34F8FBFF36F8F00BF00BFFEE7704740
:104620008000002004ED00E00D48006850B900BF94
:10463000502080F31188BFF34F8FBFF36F8F00BFFF
:1046400000BFFEE706480068401E054908600846AE
:10465000006820B9002080F3118800BF00BF7047B8
:104660008000002070B506463546002E3FD0083D3C
:104670002C461F4960680968084008B1012000E025
:10468000002050B900BF502080F31188BFF34F8F36
:10469000BFF36F8F00BF00BFFEE7206808B901209D
:1046A00000E0002050B900BF502080F31188BFF314
:1046B0004F8FBFF36F8F00BF00BFFEE70C496068EC
:1046C0000968084098B1206888B909496068096894
:1046D0008843606000F074F906496068096808441E
:1046E000044908602046FFF761F900F0ADFF70BD96
:1046F0007C0000207400002000204FF0E0210861C1
:104700008861064800684FF47A71B0FBF1F0401EF2
:104710004FF0E02148610720086170471000002039
:1047200070B5FBF785FD0446102C16D304F1E0208C
:1047300090F8F05315480078854201DB012000E035
:10474000002050B900BF502080F31188BFF34F8F75
:10475000BFF36F8F00BF00BFFEE70D48006800F495
:10476000E0600C490968884201D8012000E000207F
:1047700050B900BF502080F31188BFF34F8FBFF3B3
:104780006F8F00BF00BFFEE770BD000084000020F7
:104790000CED00E088000020024600200BE0084BF2
:1047A00053F8303033B9064B43F8301003EBC003F5
:1047B0005A6002E0401C0828F1D300BF7047000097
:1047C000B00000202DE9F04105460E4617462C4664
:1047D000FFF700FF94F94400401C10B9002084F852
:1047E000440094F94500401C10B9002084F84500AD
:1047F000FFF71AFFA06B28B93A46314604F12400AE
:1048000000F062F82046FFF7FAFABDE8F0810000F8
:1048100070B504460025D4B11248006808B90120DB
:1048200000E0002050B900BF502080F31188BFF392
:104830004F8FBFF36F8F00BF00BFFEE700F0C0F8DF
:1048400000212046FEF734FE00F0FEFE05463DB98D
:104850004FF0805004490860BFF34F8FBFF36F8F54
:1048600070BD00004C00002004ED00E00349096821
:104870000160034909684160704700003C00002066
:1048800028000020012001490860704738000020FE
:1048900070B504460D4654B900BF502080F311880E
:1048A000BFF34F8FBFF36F8F00BF00BFFEE7054818
:1048B000016818312046FFF767FE01212846FEF700
:1048C000F7FD70BD1400002070B505460E46144675
:1048D00055B900BF502080F31188BFF34F8FBFF34D
:1048E0006F8F00BF00BFFEE70648016818312846F9
:1048F000FFF764FE0CB14FF0FF3621463046FEF75D
:10490000D7FD70BD1400002010B586B000200590C2
:10491000049003AA04A905A8FFF70EFE0022DDE912
:1049200004101346CDE9002102901EA11F48039AEE
:1049300000F0D8FC1E4908600846006808B1012450
:1049400000E00024012C02D100F000FF0446012CFD
:1049500015D100BF502080F31188BFF34F8FBFF3F4
:104960006F8F00BF4FF0FF301249086001201249DD
:10497000086000201149086000F0E6F810E0601CB3
:1049800008B1012000E0002050B900BF502080F3A2
:104990001188BFF34F8FBFF36F8F00BF00BFFEE7DB
:1049A00006B010BD49444C45000000003D380008E9
:1049B0004800002044000020300000202800002093
:1049C00002480068401C0149086070474C00002004
:1049D0001E48006818B101201D49086034E000201D
:1049E0001B4908601B4801680CE051B900BF50200A
:1049F00080F31188BFF34F8FBFF36F8F00BF00BFED
:104A0000FEE7491E01EB8100134A52F8200008B965
:104A1000012000E000200028E7D101EB81020E4BCD
:104A200003EB820042685268426000F1080243686A
:104A3000934202D14268526842604268D268074B92
:104A40001A600448016000BF704700004C0000205D
:104A5000380000202C000020F0000020140000206E
:104A600070B50446002511E0FEF752FB0120FEF769
:104A700003FD074890F8CC0000F0010008B10120C8
:104A800070BD6D1CA54201DD0020F9E7ECE70000D8
:104A90000220002070B5044600250EE00120FEF73C
:104AA000EBFC0648007800F0010008B1012070BD61
:104AB0006D1CA54201DD0020F9E7EFE7B4250020D9
:104AC00070B504460D46002617E021460B48FFF757
:104AD000B9FB002801DD012070BD0120FEF7CCFCF0
:104AE000761C07A10548FFF7ADFB002801DD00207B
:104AF000F2E7AE4201DDFF20EEE7E6E74A270020BD
:104B00004552524F5200000070B50446002506E0A1
:104B10000120FEF7B1FC6D1CA54200DD05E009484F
:104B2000007E00F001000028F2D000BF0548007EA2
:104B300020F00100034908760846007E20F00200BC
:104B4000087670BDD02000201CB538490846007892
:104B50000190FF200A4610700846007800909DF8EA
:104B6000000000F0F0009DF80020904201D10120EB
:104B700000E0002050B900BF502080F31188BFF33F
:104B80004F8FBFF36F8F00BF00BFFEE79DF800009F
:104B900000F05000264A10700720264A106009E0F5
:104BA00024480068401E234A10609DF8000040061B
:104BB000000E00909DF8000000F080008028EFD0EB
:104BC0001C480068C0F10700042801D1012000E062
:104BD000002050B900BF502080F31188BFF34F8FE1
:104BE000BFF36F8F00BF00BFFEE7124800680002EE
:104BF000104A10601046008800F4E06010600B4A14
:104C0000019810700C48006840F470000A49086070
:104C10000846006840F070400860FFF76DFD002016
:104C200006490860FBF7CEFA00201CBD00E400E056
:104C3000840000208800002020ED00E0800000209B
:104C400010B500BF502080F31188BFF34F8FBFF322
:104C50006F8F00BF00F0B8FB18B14FF080500449CF
:104C6000086000BF002080F3118800BF10BD000065
:104C700004ED00E02DE9F84380460E4617461D4638
:104C8000DDF82090B8F1000F01D0012000E00020F5
:104C900050B900BF502080F31188BFF34F8FBFF38E
:104CA0006F8F00BF00BFFEE70DB1012000E00020C4
:104CB00050B900BF502080F31188BFF34F8FBFF36E
:104CC0006F8F00BF00BFFEE707B10EB1012000E00B
:104CD000002050B900BF502080F31188BFF34F8FE0
:104CE000BFF36F8F00BF00BFFEE707B90EB9012009
:104CF00000E0002050B900BF502080F31188BFF3BE
:104D00004F8FBFF36F8F00BF00BFFEE750200090B2
:104D10000098502801D1012000E0002050B900BFC8
:104D2000502080F31188BFF34F8FBFF36F8F00BF08
:104D300000BFFEE72C464CB1012084F846004B46EC
:104D40003A46314640460094FEF78CFD2046BDE8C9
:104D5000F883000070B505460E462C4654B900BFD6
:104D6000502080F31188BFF34F8FBFF36F8F00BFC8
:104D700000BFFEE7FFF72EFCD4E90F12206801FB0D
:104D8000020060600020A0632068A060E06B401E0D
:104D9000226C216800FB0210E060FF2084F84400D0
:104DA00084F845009EB9206908B9012000E0002080
:104DB000A8B904F1100000F0FBFB80B14FF0805067
:104DC00009490860BFF34F8FBFF36F8F07E004F10D
:104DD0001000FFF7C9FB04F12400FFF7C5FBFFF744
:104DE00023FC012070BD000004ED00E02DE9FF432D
:104DF00083B0064688461D464FF00009344654B934
:104E000000BF502080F31188BFF34F8FBFF36F8F27
:104E100000BF00BFFEE7B8F1000F01D1206C08B958
:104E2000012000E0002050B900BF502080F311881D
:104E3000BFF34F8FBFF36F8F00BF00BFFEE7022DA0
:104E400002D1E06B012801D1012000E0002050B91F
:104E500000BF502080F31188BFF34F8FBFF36F8FD7
:104E600000BF00BFFEE700F099FA08B9059808B93D
:104E7000012000E0002050B900BF502080F31188CD
:104E8000BFF34F8FBFF36F8F00BF00BFFEE700BFC0
:104E9000FFF7A0FBA06BE16B884201D3022D28D164
:104EA0002A4641462046FEF710FC0746606A08B9CC
:104EB000012000E0002068B904F1240000F078FB34
:104EC00088B14FF0805032490860BFF34F8FBFF375
:104ED0006F8F08E03FB14FF080502D490860BFF35D
:104EE0004F8FBFF36F8FFFF79FFB012007B0BDE827
:104EF000F083059818B9FFF797FB0020F6E7B9F1A2
:104F0000000F04D101A8FFF7B1FC4FF00109FFF732
:104F10008BFBFFF755FDFFF75DFB94F94400401C48
:104F200010B9002084F8440094F94500401C10B9E1
:104F3000002084F84500FFF777FB05A901A800F0E1
:104F400059F9F0B92046FEF79EFDA0B104F110001A
:104F50000599FFF79DFC2046FEF751FF00F074FB1A
:104F6000002895D14FF0805009490860BFF34F8F5A
:104F7000BFF36F8F8CE72046FEF741FF00F064FB24
:104F800086E72046FEF73BFF00F05EFB0020ADE722
:104F900004ED00E02DE9F05F07468A4690461E4684
:104FA0003C4654B900BF502080F31188BFF34F8FA7
:104FB000BFF36F8F00BF00BFFEE7BAF1000F01D152
:104FC000206C08B9012000E0002050B900BF50203B
:104FD00080F31188BFF34F8FBFF36F8F00BF00BF07
:104FE000FEE7022E02D1E06B012801D1012000E092
:104FF000002050B900BF502080F31188BFF34F8FBD
:10500000BFF36F8F00BF00BFFEE7FFF789FB00BF54
:105010005021EFF3118081F31188BFF34F8FBFF35D
:105020006F8F00BF0546A06BE16B884201D3022E53
:1050300023D194F945B0324651462046FEF745FB50
:105040000BF1010088B9606A08B9012000E0002076
:1050500080B904F1240000F0ABFA58B1B8F1000FA8
:1050600008D00120C8F8000004E00BF1010040B2B4
:1050700084F845004FF0010901E04FF0000900BF3E
:1050800085F3118800BF4846BDE8F09F2DE9F74140
:1050900083B005460E464FF000082C4654B900BFB9
:1050A000502080F31188BFF34F8FBFF36F8F00BF85
:1050B00000BFFEE70EB9206C08B9012000E0002017
:1050C00050B900BF502080F31188BFF34F8FBFF35A
:1050D0006F8F00BF00BFFEE700F060F908B90598C8
:1050E00008B9012000E0002050B900BF502080F333
:1050F0001188BFF34F8FBFF36F8F00BF00BFFEE774
:1051000000BFFFF767FAA76BF7B131462046FEF7FD
:10511000C7FA781EA063206908B9012000E00020CA
:1051200060B904F1100000F043FA38B14FF080503C
:105130002F490860BFF34F8FBFF36F8FFFF774FAEB
:10514000012006B0BDE8F081059818B9FFF76CFAA8
:105150000020F6E7B8F1000F04D101A8FFF786FBA5
:105160004FF00108FFF760FAFFF72AFCFFF732FA69
:1051700094F94400401C10B9002084F8440094F9CC
:105180004500401C10B9002084F84500FFF74CFA98
:1051900005A901A800F02EF8F0B92046FEF766FC3C
:1051A000A0B104F124000599FFF772FB2046FEF739
:1051B00026FE00F049FA0028A3D14FF080500C4998
:1051C0000860BFF34F8FBFF36F8F9AE72046FEF75B
:1051D00016FE00F039FA94E72046FEF710FE00F0C4
:1051E00033FA2046FEF742FC00288AD00020A8E7C8
:1051F00004ED00E070B505460C4655B900BF5020DF
:1052000080F31188BFF34F8FBFF36F8F00BF00BFD4
:10521000FEE754B900BF502080F31188BFF34F8FD1
:10522000BFF36F8F00BF00BFFEE7FFF7D3F912484F
:1052300002686868131A2068401C08B9002617E045
:105240000E4928680968884204D06868904201D8ED
:1052500001260DE02068984207D92068C01A206016
:105260002846FFF703FB002602E00020206001260D
:10527000FFF7DAF9304670BD280000203C0000201E
:105280002DE9FF4F85B0804689461746DDE912AB10
:10529000B800FEF7F3FD064656B15C20FEF7EEFDC2
:1052A00004460CB1266304E03046FFF7DBF900E06A
:1052B00000248CB1002084F85900CDE900ABCDE981
:1052C00002403A4649464046089BFEF7E0FA20462F
:1052D000FEF72CF9012501E04FF0FF35284609B013
:1052E000BDE8F08F2DE9F04F85B00746884691461E
:1052F0009A46DDE90EB6109C0EB1012000E00020B8
:1053000050B900BF502080F31188BFF34F8FBFF317
:105310006F8F00BF00BFFEE70CB1012000E000204E
:1053200050B900BF502080F31188BFF34F8FBFF3F7
:105330006F8F00BF00BFFEE75C20039003985C28DE
:1053400001D1012000E0002050B900BF502080F3BF
:105350001188BFF34F8FBFF36F8F00BF00BFFEE711
:10536000B4B1AEB125462C462E63022085F8590013
:10537000002004A953464A46CDE900B1CDE90250C8
:1053800041463846FEF783FA2846FEF7CFF801E09B
:1053900000200490049805B0BDE8F08F0549096825
:1053A00009B9012005E00449096809B9022000E0B3
:1053B00000207047300000204C00002001490868A0
:1053C00070470000280000202DE9F0414FF0000850
:1053D00043480068002876D142480068451C41488F
:1053E000056015BB40480068006808B9012000E06E
:1053F000002050B900BF502080F31188BFF34F8FB9
:10540000BFF36F8F00BF00BFFEE73748076837481C
:105410000068354908603548076035480068401C19
:1054200033490860FEF73EFC00BF32480068854201
:105430003BD300BF2C480068006808B9012000E099
:10544000002020B14FF0FF302A4908602CE02648A8
:105450000068C068C4686668B54202D22548066024
:1054600022E0201DFFF754F8A06A18B104F11800DB
:10547000FFF74EF82049E06A0968884202D91E49C0
:10548000E06A0860E16A01EB81011C4A02EB8100DD
:10549000211DFFF793F81A49E06A0968C96A884232
:1054A000C8D34FF00108C5E700BF15480068C06ABF
:1054B00000EB8000114951F82000012801D94FF07C
:1054C000010805E0FFE70F480068401C0D4908602F
:1054D0000D48006808B14FF001084046BDE8F08172
:1054E0004C00002028000020180000201C00002094
:1054F0003C000020440000202C000020F000002090
:1055000014000020340000203800002070B505464B
:105510002C460026002D43D022480068844201D149
:10552000012000E0002050B900BF502080F3118816
:10553000BFF34F8FBFF36F8F00BF00BFFEE7206D3B
:1055400050B900BF502080F31188BFF34F8FBFF3D5
:105550006F8F00BF00BFFEE7206D401E2065E16C2D
:10556000E06A88421CD0206DD0B9201DFEF7D0FF24
:10557000E06CE062E06AC0F13800A0610A49E06ACC
:105580000968884202D90849E06A0860E16A01EBCB
:105590008101064A02EB8100211DFFF70FF8012669
:1055A000304670BD140000202C000020F0000020C8
:1055B00070B50646F068C46854B900BF502080F347
:1055C0001188BFF34F8FBFF36F8F00BF00BFFEE79F
:1055D00004F11800FEF79CFF15480068A0B9201DD3
:1055E000FEF796FF1349E06A0968884202D911491B
:1055F000E06A0860E16A01EB81010F4A02EB810079
:10560000211DFEF7DBFF04E004F118010B48FEF753
:10561000D5FF0B49E06A0968C96A884204D90125A7
:1056200001200849086000E00025284670BD000000
:105630004C0000202C000020F00000207805002005
:10564000140000203800002070B5002400263648E1
:10565000006850B900BF502080F31188BFF34F8F0E
:10566000BFF36F8F00BF00BFFEE7FEF7B3FF2E480A
:105670000068401E2C4908600846006800284ED18A
:105680002A48006800284AD023E02948C068C46836
:1056900004F11800FEF73CFF201DFEF739FF2549F5
:1056A000E06A0968884202D92249E06A0860E16A32
:1056B00001EB8101204A02EB8100211DFEF77EFFF4
:1056C0001E49E06A0968C96A884202D301201C4960
:1056D00008601748006808B9012000E00020002891
:1056E000D3D00CB1FEF7DEFA1648056865B100BFED
:1056F000FFF76AFE10B10120114908606D1E002DF0
:10570000F6D100200F4908600D48006838B1012625
:1057100030070D490860BFF34F8FBFF36F8FFEF75F
:1057200083FF304670BD00004C00002024000020A4
:10573000780500202C000020F0000020140000203C
:10574000380000203400002004ED00E010B586B0E1
:105750000024FDF747FF16480068D0B100200590EF
:10576000049003AA04A905A8FEF7F2FE0222DDE9CF
:1057700004100023CDE9002102900EA10F48039AE6
:10578000FFF7B0FD0E4908600846006800B101242B
:1057900000BF54B900BF502080F31188BFF34F8F72
:1057A000BFF36F8F00BF00BFFEE7204606B010BDFD
:1057B00058000020546D722053766300E53D0008C8
:1057C0005C0000202DE9FF4704460D4616461F46A3
:1057D000DDF830804FF0000954B900BF502080F34D
:1057E0001188BFF34F8FBFF36F8F00BF00BFFEE77D
:1057F0001448006810B3009501960294062D15DA3E
:10580000FFF7CCFD022808D10023424669460D4827
:105810000068FFF7EBFA814610E000231A4669465C
:1058200008480068FFF7E2FA814607E000233A469D
:10583000694604480068FFF7ADFB8146484604B05E
:10584000BDE8F0875800002010B500290AD008787C
:10585000002807D005487844FAF7A2FE002801D0B6
:10586000002010BD0248784410BD00008E000000EA
:105870008600000000000000000000000102030498
:10588000060708090000000001020304081C304458
:10589000586C8000000000040404000008000000B0
:1058A000080000080000000800020406080A0C00B6
:1058B000010203040506000030130000820D000100
:1058C00000000000F459000800000020B0000000B3
:1058D00028010008A45A0008B0000020C82D0000CC
:1058E000440100081001000043000000F8FFFFFF22
:1058F00000404040404040404040414141414140E3
:105900004040404040404040404040404040404097
:105910004005020202020202020202020202020226
:10592000022020202020202020202002020202022B
:105930000202909090909090101010101010101083
:10594000101010101010101010101010020202028F
:1059500002028888888888880808080808080808D3
:1059600008080808080808080808080802020202CF
:1059700040000000000000000000000000000000E7
:105980000000000000000000000000000000000017
:105990000000000000000000000000000000000007
:1059A00000000000000000000000000000000000F7
:1059B00000000000000000000000000000000000E7
:1059C00000000000000000000000000000000000D7
:1059D00000000000000000000000000000000000C7
:1059E00000000000000000000000000000000000B7
:1059F0000000000000000000000000001000000097
:105A0000010000000024F40000000000000000007D
:105A10000000000000000000000000000000000086
:105A20000000000000000000000000000000000076
:105A30000000000000000000000000000000000066
:105A40000000000000000000000000000000000056
:105A50000000000000000000000000000000000046
:105A60000000000000000000000000000000000036
:105A700000000000AAAAAAAA00000000000000007E
:105A80000000000000000000000000000000000016
:105A90000000000000000000000000000000000006
:045AA0000000000002
:04000005080000ED02
:00000001FF
